{"contracts/Q402BatchExecutor.sol":{"Q402BatchExecutor":{"abi":[{"inputs":[{"internalType":"address","name":"_owner","type":"address"},{"internalType":"address","name":"_pancakeRouter","type":"address"}],"stateMutability":"nonpayable","type":"constructor"},{"inputs":[],"name":"BatchIdAlreadyUsed","type":"error"},{"inputs":[],"name":"CallFailed","type":"error"},{"inputs":[],"name":"ContractPaused","type":"error"},{"inputs":[],"name":"ECDSAInvalidSignature","type":"error"},{"inputs":[{"internalType":"uint256","name":"length","type":"uint256"}],"name":"ECDSAInvalidSignatureLength","type":"error"},{"inputs":[{"internalType":"bytes32","name":"s","type":"bytes32"}],"name":"ECDSAInvalidSignatureS","type":"error"},{"inputs":[],"name":"ExpiredDeadline","type":"error"},{"inputs":[],"name":"InsufficientOutput","type":"error"},{"inputs":[],"name":"InvalidAmount","type":"error"},{"inputs":[],"name":"InvalidNonce","type":"error"},{"inputs":[],"name":"InvalidOperationType","type":"error"},{"inputs":[],"name":"InvalidShortString","type":"error"},{"inputs":[],"name":"InvalidSignature","type":"error"},{"inputs":[],"name":"InvalidTarget","type":"error"},{"inputs":[],"name":"OperationsHashMismatch","type":"error"},{"inputs":[{"internalType":"address","name":"owner","type":"address"}],"name":"OwnableInvalidOwner","type":"error"},{"inputs":[{"internalType":"address","name":"account","type":"address"}],"name":"OwnableUnauthorizedAccount","type":"error"},{"inputs":[],"name":"ReentrancyGuardReentrantCall","type":"error"},{"inputs":[],"name":"RouterNotWhitelisted","type":"error"},{"inputs":[{"internalType":"address","name":"token","type":"address"}],"name":"SafeERC20FailedOperation","type":"error"},{"inputs":[{"internalType":"string","name":"str","type":"string"}],"name":"StringTooLong","type":"error"},{"inputs":[],"name":"SwapFailed","type":"error"},{"inputs":[],"name":"TargetNotWhitelisted","type":"error"},{"inputs":[],"name":"TooManyOperations","type":"error"},{"inputs":[],"name":"TransferFailed","type":"error"},{"inputs":[],"name":"UnauthorizedFacilitator","type":"error"},{"anonymous":false,"inputs":[{"indexed":true,"internalType":"address","name":"owner","type":"address"},{"indexed":true,"internalType":"bytes32","name":"batchId","type":"bytes32"},{"indexed":false,"internalType":"uint256","name":"operationCount","type":"uint256"},{"indexed":false,"internalType":"uint256","name":"nonce","type":"uint256"},{"indexed":false,"internalType":"address","name":"facilitator","type":"address"}],"name":"BatchExecuted","type":"event"},{"anonymous":false,"inputs":[],"name":"EIP712DomainChanged","type":"event"},{"anonymous":false,"inputs":[{"indexed":true,"internalType":"address","name":"facilitator","type":"address"},{"indexed":false,"internalType":"bool","name":"authorized","type":"bool"}],"name":"FacilitatorUpdated","type":"event"},{"anonymous":false,"inputs":[{"indexed":false,"internalType":"uint256","name":"newMax","type":"uint256"}],"name":"MaxOperationsUpdated","type":"event"},{"anonymous":false,"inputs":[{"indexed":true,"internalType":"bytes32","name":"batchId","type":"bytes32"},{"indexed":true,"internalType":"uint256","name":"operationIndex","type":"uint256"},{"indexed":false,"internalType":"uint8","name":"opType","type":"uint8"},{"indexed":false,"internalType":"address","name":"tokenIn","type":"address"},{"indexed":false,"internalType":"uint256","name":"amountIn","type":"uint256"},{"indexed":false,"internalType":"address","name":"tokenOut","type":"address"},{"indexed":false,"internalType":"uint256","name":"amountOut","type":"uint256"},{"indexed":false,"internalType":"address","name":"target","type":"address"}],"name":"OperationExecuted","type":"event"},{"anonymous":false,"inputs":[{"indexed":true,"internalType":"address","name":"previousOwner","type":"address"},{"indexed":true,"internalType":"address","name":"newOwner","type":"address"}],"name":"OwnershipTransferred","type":"event"},{"anonymous":false,"inputs":[{"indexed":false,"internalType":"bool","name":"paused","type":"bool"}],"name":"PausedStateChanged","type":"event"},{"anonymous":false,"inputs":[{"indexed":true,"internalType":"address","name":"router","type":"address"},{"indexed":false,"internalType":"bool","name":"whitelisted","type":"bool"}],"name":"RouterWhitelisted","type":"event"},{"anonymous":false,"inputs":[{"indexed":true,"internalType":"address","name":"target","type":"address"},{"indexed":false,"internalType":"bool","name":"whitelisted","type":"bool"}],"name":"TargetWhitelisted","type":"event"},{"inputs":[],"name":"BATCH_WITNESS_TYPEHASH","outputs":[{"internalType":"bytes32","name":"","type":"bytes32"}],"stateMutability":"view","type":"function"},{"inputs":[],"name":"OPERATION_TYPEHASH","outputs":[{"internalType":"bytes32","name":"","type":"bytes32"}],"stateMutability":"view","type":"function"},{"inputs":[],"name":"OP_CALL","outputs":[{"internalType":"uint8","name":"","type":"uint8"}],"stateMutability":"view","type":"function"},{"inputs":[],"name":"OP_SWAP","outputs":[{"internalType":"uint8","name":"","type":"uint8"}],"stateMutability":"view","type":"function"},{"inputs":[],"name":"OP_TRANSFER","outputs":[{"internalType":"uint8","name":"","type":"uint8"}],"stateMutability":"view","type":"function"},{"inputs":[{"components":[{"internalType":"uint8","name":"opType","type":"uint8"},{"internalType":"address","name":"tokenIn","type":"address"},{"internalType":"uint256","name":"amountIn","type":"uint256"},{"internalType":"address","name":"tokenOut","type":"address"},{"internalType":"uint256","name":"minAmountOut","type":"uint256"},{"internalType":"address","name":"target","type":"address"},{"internalType":"bytes","name":"data","type":"bytes"}],"internalType":"struct Q402BatchExecutor.Operation[]","name":"operations","type":"tuple[]"}],"name":"computeOperationsHash","outputs":[{"internalType":"bytes32","name":"","type":"bytes32"}],"stateMutability":"pure","type":"function"},{"inputs":[],"name":"domainSeparator","outputs":[{"internalType":"bytes32","name":"","type":"bytes32"}],"stateMutability":"view","type":"function"},{"inputs":[],"name":"eip712Domain","outputs":[{"internalType":"bytes1","name":"fields","type":"bytes1"},{"internalType":"string","name":"name","type":"string"},{"internalType":"string","name":"version","type":"string"},{"internalType":"uint256","name":"chainId","type":"uint256"},{"internalType":"address","name":"verifyingContract","type":"address"},{"internalType":"bytes32","name":"salt","type":"bytes32"},{"internalType":"uint256[]","name":"extensions","type":"uint256[]"}],"stateMutability":"view","type":"function"},{"inputs":[{"internalType":"address","name":"token","type":"address"},{"internalType":"address","name":"to","type":"address"},{"internalType":"uint256","name":"amount","type":"uint256"}],"name":"emergencyWithdraw","outputs":[],"stateMutability":"nonpayable","type":"function"},{"inputs":[{"components":[{"internalType":"address","name":"owner","type":"address"},{"internalType":"bytes32","name":"operationsHash","type":"bytes32"},{"internalType":"uint256","name":"deadline","type":"uint256"},{"internalType":"bytes32","name":"batchId","type":"bytes32"},{"internalType":"uint256","name":"nonce","type":"uint256"}],"internalType":"struct Q402BatchExecutor.BatchWitness","name":"witness","type":"tuple"},{"components":[{"internalType":"uint8","name":"opType","type":"uint8"},{"internalType":"address","name":"tokenIn","type":"address"},{"internalType":"uint256","name":"amountIn","type":"uint256"},{"internalType":"address","name":"tokenOut","type":"address"},{"internalType":"uint256","name":"minAmountOut","type":"uint256"},{"internalType":"address","name":"target","type":"address"},{"internalType":"bytes","name":"data","type":"bytes"}],"internalType":"struct Q402BatchExecutor.Operation[]","name":"operations","type":"tuple[]"},{"internalType":"bytes","name":"signature","type":"bytes"}],"name":"executeBatch","outputs":[],"stateMutability":"nonpayable","type":"function"},{"inputs":[{"internalType":"address","name":"","type":"address"}],"name":"facilitators","outputs":[{"internalType":"bool","name":"","type":"bool"}],"stateMutability":"view","type":"function"},{"inputs":[{"internalType":"address","name":"owner","type":"address"}],"name":"getNonce","outputs":[{"internalType":"uint256","name":"","type":"uint256"}],"stateMutability":"view","type":"function"},{"inputs":[{"internalType":"bytes32","name":"batchId","type":"bytes32"}],"name":"isBatchIdUsed","outputs":[{"internalType":"bool","name":"","type":"bool"}],"stateMutability":"view","type":"function"},{"inputs":[{"internalType":"address","name":"addr","type":"address"}],"name":"isFacilitator","outputs":[{"internalType":"bool","name":"","type":"bool"}],"stateMutability":"view","type":"function"},{"inputs":[{"internalType":"address","name":"router","type":"address"}],"name":"isRouterWhitelisted","outputs":[{"internalType":"bool","name":"","type":"bool"}],"stateMutability":"view","type":"function"},{"inputs":[{"internalType":"address","name":"target","type":"address"}],"name":"isTargetWhitelisted","outputs":[{"internalType":"bool","name":"","type":"bool"}],"stateMutability":"view","type":"function"},{"inputs":[],"name":"maxOperationsPerBatch","outputs":[{"internalType":"uint256","name":"","type":"uint256"}],"stateMutability":"view","type":"function"},{"inputs":[{"internalType":"address","name":"","type":"address"}],"name":"nonces","outputs":[{"internalType":"uint256","name":"","type":"uint256"}],"stateMutability":"view","type":"function"},{"inputs":[],"name":"owner","outputs":[{"internalType":"address","name":"","type":"address"}],"stateMutability":"view","type":"function"},{"inputs":[],"name":"paused","outputs":[{"internalType":"bool","name":"","type":"bool"}],"stateMutability":"view","type":"function"},{"inputs":[],"name":"renounceOwnership","outputs":[],"stateMutability":"nonpayable","type":"function"},{"inputs":[{"internalType":"address","name":"facilitator","type":"address"},{"internalType":"bool","name":"authorized","type":"bool"}],"name":"setFacilitator","outputs":[],"stateMutability":"nonpayable","type":"function"},{"inputs":[{"internalType":"uint256","name":"_max","type":"uint256"}],"name":"setMaxOperationsPerBatch","outputs":[],"stateMutability":"nonpayable","type":"function"},{"inputs":[{"internalType":"bool","name":"_paused","type":"bool"}],"name":"setPaused","outputs":[],"stateMutability":"nonpayable","type":"function"},{"inputs":[{"internalType":"address","name":"router","type":"address"},{"internalType":"bool","name":"whitelisted","type":"bool"}],"name":"setRouterWhitelist","outputs":[],"stateMutability":"nonpayable","type":"function"},{"inputs":[{"internalType":"address","name":"target","type":"address"},{"internalType":"bool","name":"whitelisted","type":"bool"}],"name":"setTargetWhitelist","outputs":[],"stateMutability":"nonpayable","type":"function"},{"inputs":[{"internalType":"address","name":"newOwner","type":"address"}],"name":"transferOwnership","outputs":[],"stateMutability":"nonpayable","type":"function"},{"inputs":[{"internalType":"bytes32","name":"","type":"bytes32"}],"name":"usedBatchIds","outputs":[{"internalType":"bool","name":"","type":"bool"}],"stateMutability":"view","type":"function"},{"inputs":[{"internalType":"address","name":"","type":"address"}],"name":"whitelistedRouters","outputs":[{"internalType":"bool","name":"","type":"bool"}],"stateMutability":"view","type":"function"},{"inputs":[{"internalType":"address","name":"","type":"address"}],"name":"whitelistedTargets","outputs":[{"internalType":"bool","name":"","type":"bool"}],"stateMutability":"view","type":"function"},{"stateMutability":"payable","type":"receive"}],"evm":{"bytecode":{"linkReferences":{},"object":"61016034620002ab576001600160401b0390620024c490601f38839003908101601f191682019084821183831017620002955780839160409586948552833981010312620002ab576200005281620002cc565b91620000626020809301620002cc565b8151926200007084620002b0565b600a845280840194690e26860645ac4c2e8c6d60b31b86528351966200009688620002b0565b600191828952838901603160f81b8152620000b188620002e1565b98610120998a52620000c38b620004b4565b98610140998a52519020998a60e0525190209161010099838b524660a052875193868501917f8b73c3c69bb8fe3d512ecc4cf759cc79239f7b179b0ffacaa9a75d522b39400f83528986015260608501524660808501523060a085015260a0845260c0840191848310908311176200029557818852835190206080523060c0526001600160a01b039182169283156200027e5750509085939291600254958260018060a01b03198816176002558551928083600099167f8be0079c531659141344cd1fd0a4f28419497f9722a3daafe3b4186f6b6457e08a80a384600355600a8055808852600686527f23b563b53629727de17c5cec4b391a63440584fdaf0d888a95bbc671da2c62e186888a209560ff19968888825416179055878152a216948562000239575b5050505050505191611e62938462000662853960805184611c3d015260a05184611d08015260c05184611c07015260e05184611c8c01525183611cb2015251826110bb015251816110e40152f35b7fcf2b36bf2aa8353623d06f58eab9577176d9214e588362c013a7eeb0586463f19481878593526007865220918254161790558451908152a2388181808080620001eb565b631e4fbdf760e01b8252600060c490910152602490fd5b634e487b7160e01b600052604160045260246000fd5b600080fd5b604081019081106001600160401b038211176200029557604052565b51906001600160a01b0382168203620002ab57565b8051602091908281101562000380575090601f8251116200031f57808251920151908083106200031057501790565b82600019910360031b1b161790565b90604051809263305a27a960e01b82528060048301528251908160248401526000935b82851062000366575050604492506000838284010152601f80199101168101030190fd5b848101820151868601604401529381019385935062000342565b6001600160401b03811162000295576000928354926001938481811c91168015620004a9575b838210146200049557601f81116200045f575b5081601f8411600114620003f857509282939183928694620003ec575b50501b916000199060031b1c191617905560ff90565b015192503880620003d6565b919083601f1981168780528488209488905b888383106200044457505050106200042a575b505050811b01905560ff90565b015160001960f88460031b161c191690553880806200041d565b8587015188559096019594850194879350908101906200040a565b85805284601f848820920160051c820191601f860160051c015b82811062000489575050620003b9565b87815501859062000479565b634e487b7160e01b86526022600452602486fd5b90607f1690620003a6565b805160209081811015620005425750601f825111620004e157808251920151908083106200031057501790565b90604051809263305a27a960e01b82528060048301528251908160248401526000935b82851062000528575050604492506000838284010152601f80199101168101030190fd5b848101820151868601604401529381019385935062000504565b9192916001600160401b038111620002955760019182548381811c9116801562000656575b828210146200064057601f811162000607575b5080601f8311600114620005ba575081929394600092620005ae575b5050600019600383901b1c191690821b17905560ff90565b01519050388062000596565b90601f198316958460005282600020926000905b888210620005ef57505083859697106200042a57505050811b01905560ff90565b808785968294968601518155019501930190620005ce565b8360005283601f83600020920160051c820191601f850160051c015b828110620006335750506200057a565b6000815501849062000623565b634e487b7160e01b600052602260045260246000fd5b90607f16906200056756fe608080604052600436101561001d575b50361561001b57600080fd5b005b60003560e01c9081630aef023f146114a4575080630f874a1314611465578063108bdc14146113ed57806316c38b3c1461138b5780632d0335ab146111e9578063334605401461134c57806340125e44146112f85780634b719ab61461134c5780635c975abb146113295780636651320f146112f8578063715018a61461129b5780637b224339146112235780637ecebe00146111e9578063828d6e8d146111ae57806384b0196e146110a557806387e02d16146110595780638da5cb5b146110305780638f57e97d14610fb15780638ff9e3f81461017457806393aaa14614610f76578063a4e96bbb14610f3b578063a9adfc2a14610f1f578063e389df1414610390578063e63ea408146102bf578063eac8d18f146102a1578063ec7bbbbf14610285578063f2fde38b146101f7578063f698da25146101d4578063f7994213146101b85763fb9ed25714610174573861000f565b346101b35760203660031901126101b3576001600160a01b036101956114df565b166000526008602052602060ff604060002054166040519015158152f35b600080fd5b346101b35760003660031901126101b357602060405160028152f35b346101b35760003660031901126101b35760206101ef611c04565b604051908152f35b346101b35760203660031901126101b3576102106114df565b610218611574565b6001600160a01b0390811690811561026c57600254826bffffffffffffffffffffffff60a01b821617600255167f8be0079c531659141344cd1fd0a4f28419497f9722a3daafe3b4186f6b6457e0600080a3005b604051631e4fbdf760e01b815260006004820152602490fd5b346101b35760003660031901126101b357602060405160018152f35b346101b35760003660031901126101b3576020600a54604051908152f35b346101b35760603660031901126101b3576102d86114df565b6024356001600160a01b0380821682036101b357604435926102f8611574565b168061034f5750600080809381935af1610310611d2e565b501561031857005b60405162461bcd60e51b815260206004820152600f60248201526e151c985b9cd9995c8819985a5b1959608a1b6044820152606490fd5b60405163a9059cbb60e01b60208201526001600160a01b0392909216602483015260448083019390935291815261001b9161038b6064836115bb565b611db8565b346101b357366003190160e081126101b35760a0136101b35760a4356001600160401b0381116101b3576103c8903690600401611504565b906001600160401b0360c435116101b35736602360c4350112156101b3576001600160401b0360c43560040135116101b35736602460c4356004013560c4350101116101b357600260035414610f0d57600260035560ff60095416610efb5733600052600660205260ff6040600020541615610ee9576044354211610ed7576001600160a01b03610457611807565b16600052600460205260406000205460843503610ec557606435600052600560205260ff60406000205416610eb35781158015610ea8575b610e965761049d82826118ef565b60243503610e84576104ad611807565b604051907f81ab27b097aad1eef8580946a56e7ae570e5c730db01fe4bd50fd90603efcbee602083015260018060a01b031660408201526024356060820152604435608082015260643560a082015260843560c082015260c0815260e08101908082106001600160401b03831117610e6e57604261056f91610578936040526020815191012061053b611c04565b906040519161190160f01b835260028301526022820152206105693660c43560040135602460c435016118b8565b90611ab3565b90929192611b7f565b6001600160a01b03610588611807565b166001600160a01b0390911603610e5c5760643560005260056020526040600020600160ff19825416179055600160843501608435116108fe576001600160a01b036105d2611807565b16600052600460205260016084350160406000205560005b82811061064657826001600160a01b03610602611807565b1660405191825260843560208301523360408301527fc9396e654a57d93ec31014b61b1b5c51de580a5c03da55b901c04e64941a336c606060643593a36001600355005b61064e611807565b9061065a818585611840565b9160ff61066684611878565b166107ea576001600160a01b0361067f60a0850161181d565b16156107d8576040830135156107c657602083016001600160a01b036106a48261181d565b1661078e575050600080808060408601356106c160a0880161181d565b5af16106cb611d2e565b501561077c5780610777925b6040810135905b6106e781611878565b916106f46020830161181d565b9160406107036060830161181d565b9161071060a0820161181d565b825160ff9790971687526001600160a01b0395861660208801529101356040860152908316606085015260808401919091521660a0820152606435907f4de9cebc1daefd6ebb51ef8e43ba7a2c43de9428ba9f51a2d9fc55eec6bcf90b9060c090a3611831565b6105ea565b6040516312171d8360e31b8152600490fd5b926107c18392610777956107a860018060a01b039161181d565b166040840135916107bb60a0860161181d565b91611d5e565b6106d7565b60405163162908e360e11b8152600490fd5b60405163416aebb560e11b8152600490fd5b91600160ff6107f883611878565b1603610bd1576001600160a01b0361081260a0830161181d565b16600052600760205260ff6040600020541615610bbf576040810135156107c6576001600160a01b036108476060830161181d565b16610b39578231925b6001600160a01b036108646020840161181d565b166109b75760008061087860a0850161181d565b61088560c0860186611886565b90816040519283928337810184815203916040870135905af16108a6611d2e565b50156109a5575b6001600160a01b036108c16060840161181d565b166109145731905b81848103116108fe576080810135848303106108ec5761077793839203906106de565b60405163bb2875c360e01b8152600490fd5b634e487b7160e01b600052601160045260246000fd5b60206001600160a01b0361092a6060850161181d565b6040516370a0823160e01b81526001600160a01b03909416600485015283916024918391165afa90811561099957600091610967575b50906108c9565b90506020813d602011610991575b81610982602093836115bb565b810103126101b3575186610960565b3d9150610975565b6040513d6000823e3d90fd5b60405163081ceff360e41b8152600490fd5b6109dd6001600160a01b036109ce6020850161181d565b16604084013590833091611d5e565b60006020610a396001600160a01b036109f786840161181d565b16610a0460a0870161181d565b6040805163095ea7b360e01b81526001600160a01b039092166004830152870135602482015293849283919082906044820190565b03925af1801561099957610b1a575b50600080610a5860a0850161181d565b81610a6660c0870187611886565b9190826040519384928337810182815203925af1610a82611d2e565b50156109a557600060206001600160a01b03610a9f85830161181d565b166044610aae60a0870161181d565b60405163095ea7b360e01b81526001600160a01b039091166004820152602481018590529384928391905af1801561099957610aeb575b506108ad565b610b0c9060203d602011610b13575b610b0481836115bb565b810190611e14565b5086610ae5565b503d610afa565b610b329060203d602011610b1357610b0481836115bb565b5086610a48565b602460206001600160a01b03610b516060850161181d565b6040516370a0823160e01b81526001600160a01b038816600482015293849290918391165afa90811561099957600091610b8d575b5092610850565b90506020813d602011610bb7575b81610ba8602093836115bb565b810103126101b3575186610b86565b3d9150610b9b565b604051635bb5845760e11b8152600490fd5b91600260ff610bdf85611878565b1603610e4a576001600160a01b03610bf960a0850161181d565b16600052600860205260ff6040600020541615610e38576001600160a01b03610c246020850161181d565b16151580610e2b575b610d78575b506001600160a01b03610c476020840161181d565b16610d6f5760008060408401355b610c6160a0860161181d565b90610c6f60c0870187611886565b9190826040519384928337810185815203925af1610c8b611d2e565b5015610d5d576001600160a01b03610ca56020840161181d565b16151580610d50575b610cc3575b80826040610777940135906106de565b60009160206001600160a01b03610cdb82840161181d565b166044610cea60a0850161181d565b60405163095ea7b360e01b81526001600160a01b039091166004820152602481018790529586928391905af190811561099957610777938392610d31575b50925050610cb3565b610d499060203d602011610b1357610b0481836115bb565b5086610d28565b5060408201351515610cae565b604051633204506f60e01b8152600490fd5b60008080610c55565b610dfd90602090610da56001600160a01b03610d9587850161181d565b6040880135938492309216611d5e565b6001600160a01b03610db886840161181d565b16610dc560a0870161181d565b60405163095ea7b360e01b81526001600160a01b03909116600482015260248101929092529092839190829060009082906044820190565b03925af180156109995715610c3257610e249060203d602011610b1357610b0481836115bb565b5084610c32565b5060408301351515610c2d565b6040516301d0c40560e21b8152600490fd5b604051630ead561960e11b8152600490fd5b604051638baa579f60e01b8152600490fd5b634e487b7160e01b600052604160045260246000fd5b60405163f285e41160e01b8152600490fd5b60405163222d757960e01b8152600490fd5b50600a54821161048f565b604051631bf48b3560e31b8152600490fd5b604051633ab3447f60e11b8152600490fd5b60405163f87d927160e01b8152600490fd5b604051630f6fae8760e01b8152600490fd5b60405163ab35696f60e01b8152600490fd5b604051633ee5aeb560e01b8152600490fd5b346101b35760003660031901126101b357602060405160008152f35b346101b35760003660031901126101b35760206040517f81ab27b097aad1eef8580946a56e7ae570e5c730db01fe4bd50fd90603efcbee8152f35b346101b35760003660031901126101b35760206040517fd5bc7dc4fd209ff5394abd09b6da523ccfcb478feb1ae9ce566f4a9a4e8013338152f35b346101b35760403660031901126101b357610fca6114df565b7f23b563b53629727de17c5cec4b391a63440584fdaf0d888a95bbc671da2c62e16020610ff56114f5565b92610ffe611574565b6001600160a01b031660008181526006835260409020805460ff191660ff86151516179055925b6040519015158152a2005b346101b35760003660031901126101b3576002546040516001600160a01b039091168152602090f35b346101b35760203660031901126101b3577f3d2d1920864a5df2185330733a5a35a1cbad9509896209ab89a232e79c2f869a6020600435611098611574565b80600a55604051908152a1005b346101b35760003660031901126101b3576110df7f00000000000000000000000000000000000000000000000000000000000000006115f3565b6111087f0000000000000000000000000000000000000000000000000000000000000000611719565b6040516020808201928284106001600160401b03851117610e6e5791816111618594611153979660405260008452604051978897600f60f81b895260e0858a015260e0890190611534565b908782036040890152611534565b91466060870152306080870152600060a087015285830360c0870152519182815201929160005b82811061119757505050500390f35b835185528695509381019392810192600101611188565b346101b35760203660031901126101b3576004356001600160401b0381116101b3576101ef6111e36020923690600401611504565b906118ef565b346101b35760203660031901126101b3576001600160a01b0361120a6114df565b1660005260046020526020604060002054604051908152f35b346101b35760403660031901126101b35761123c6114df565b7fcf2b36bf2aa8353623d06f58eab9577176d9214e588362c013a7eeb0586463f160206112676114f5565b92611270611574565b6001600160a01b031660008181526007835260409020805460ff191660ff8615151617905592611025565b346101b35760003660031901126101b3576112b4611574565b600280546001600160a01b031981169091556000906001600160a01b03167f8be0079c531659141344cd1fd0a4f28419497f9722a3daafe3b4186f6b6457e08280a3005b346101b35760203660031901126101b3576004356000526005602052602060ff604060002054166040519015158152f35b346101b35760003660031901126101b357602060ff600954166040519015158152f35b346101b35760203660031901126101b3576001600160a01b0361136d6114df565b166000526006602052602060ff604060002054166040519015158152f35b346101b35760203660031901126101b3576004358015158091036101b35760207f9e3a5e37224532dea67b89face185703738a228a6e8a23dee546960180d3be64916113d5611574565b60ff196009541660ff821617600955604051908152a1005b346101b35760403660031901126101b3576114066114df565b7ff6c76eeb7c8ff50ae11742b7c9c659668fd5450291aa2e196914e251b7786abe60206114316114f5565b9261143a611574565b6001600160a01b031660008181526008835260409020805460ff191660ff8615151617905592611025565b346101b35760203660031901126101b3576001600160a01b036114866114df565b166000526007602052602060ff604060002054166040519015158152f35b346101b35760203660031901126101b3576020906001600160a01b036114c86114df565b166000526007825260ff6040600020541615158152f35b600435906001600160a01b03821682036101b357565b6024359081151582036101b357565b9181601f840112156101b3578235916001600160401b0383116101b3576020808501948460051b0101116101b357565b919082519283825260005b848110611560575050826000602080949584010152601f8019910116010190565b60208183018101518483018201520161153f565b6002546001600160a01b0316330361158857565b60405163118cdaa760e01b8152336004820152602490fd5b604081019081106001600160401b03821117610e6e57604052565b90601f801991011681019081106001600160401b03821117610e6e57604052565b6001600160401b038111610e6e5760051b60200190565b60ff81146116315760ff811690601f821161161f5760405191611615836115a0565b8252602082015290565b604051632cd44ac360e21b8152600490fd5b506040516000805490600182811c9080841693841561170f575b60209485841081146116fb57838752869493929181156116db575060011461167f575b505061167c925003826115bb565b90565b60008080527f290decd9548b62a8d60345a988386fc84ba6bc95484008f6362f93160ef3e56395935091905b8183106116c357505061167c9350820101388061166e565b855487840185015294850194869450918301916116ab565b91505061167c94925060ff191682840152151560051b820101388061166e565b634e487b7160e01b85526022600452602485fd5b91607f169161164b565b60ff811461173b5760ff811690601f821161161f5760405191611615836115a0565b50604051600060019081549182811c908084169384156117e2575b60209485841081146116fb57838752869493929181156116db575060011461178657505061167c925003826115bb565b60008181527fb10e2d527612073b26eecdfd717e6a320cf44b4afac2b0732d9fcbe2b7fa0cf695935091905b8183106117ca57505061167c9350820101388061166e565b855487840185015294850194869450918301916117b2565b91607f1691611756565b6001600160401b038111610e6e57601f01601f191660200190565b6004356001600160a01b03811681036101b35790565b356001600160a01b03811681036101b35790565b60001981146108fe5760010190565b91908110156118625760051b8101359060de19813603018212156101b3570190565b634e487b7160e01b600052603260045260246000fd5b3560ff811681036101b35790565b903590601e19813603018212156101b357018035906001600160401b0382116101b3576020019181360383136101b357565b9291926118c4826117ec565b916118d260405193846115bb565b8294818452818301116101b3578281602093846000960137010152565b906118f9816115dc565b916040611908815194856115bb565b828452611914836115dc565b60209385850193601f199392840136863760005b8281106119795750505051838194820180965190949160005b828110611962575050505061195c92039081018352826115bb565b51902090565b835187529581019587945092810192600101611941565b7fd5bc7dc4fd209ff5394abd09b6da523ccfcb478feb1ae9ce566f4a9a4e801333876119b16119ac8487879b9a9b611840565b611878565b6119c6826119c0868989611840565b0161181d565b85886119d3878a84611840565b013589896060946119e9866119c08c8589611840565b608094856119f88d868a611840565b013595611a188d86611a128b6119c08460a09b8c93611840565b9a611840565b9560ff611a34611a2d60c0998a810190611886565b36916118b8565b8d81519101209b82519d8e019e8f5216908c015260018060a01b039889809516908c01528a015216908701528501521660e08301526101009081830152815261012081018181106001600160401b03821117610e6e57865251902090885181101561186257611aab91888260051b8b010152611831565b949394611928565b8151919060418303611ae457611add92506020820151906060604084015193015160001a90611aef565b9192909190565b505060009160029190565b91907f7fffffffffffffffffffffffffffffff5d576e7357a4501ddfe92f46681b20a08411611b7357926020929160ff608095604051948552168484015260408301526060820152600092839182805260015afa15611b675780516001600160a01b03811615611b5e57918190565b50809160019190565b604051903d90823e3d90fd5b50505060009160039190565b6004811015611bee5780611b91575050565b60018103611bab5760405163f645eedf60e01b8152600490fd5b60028103611bcc5760405163fce698f760e01b815260048101839052602490fd5b600314611bd65750565b602490604051906335e2f38360e21b82526004820152fd5b634e487b7160e01b600052602160045260246000fd5b307f00000000000000000000000000000000000000000000000000000000000000006001600160a01b03161480611d05575b15611c5f577f000000000000000000000000000000000000000000000000000000000000000090565b60405160208101907f8b73c3c69bb8fe3d512ecc4cf759cc79239f7b179b0ffacaa9a75d522b39400f82527f000000000000000000000000000000000000000000000000000000000000000060408201527f000000000000000000000000000000000000000000000000000000000000000060608201524660808201523060a082015260a0815260c081018181106001600160401b03821117610e6e5760405251902090565b507f00000000000000000000000000000000000000000000000000000000000000004614611c36565b3d15611d59573d90611d3f826117ec565b91611d4d60405193846115bb565b82523d6000602084013e565b606090565b6040516323b872dd60e01b60208201526001600160a01b03928316602482015292909116604483015260648083019390935291815260a08101918183106001600160401b03841117610e6e57611db692604052611db8565b565b906000602091828151910182855af115610999576000513d611e0b57506001600160a01b0381163b155b611de95750565b604051635274afe760e01b81526001600160a01b039091166004820152602490fd5b60011415611de2565b908160209103126101b3575180151581036101b3579056fea26469706673582212207ce3754606351e32be838114785c1c9f64458f1c0f964221041e756262b58cd364736f6c63430008140033","opcodes":"PUSH2 0x160 CALLVALUE PUSH3 0x2AB JUMPI PUSH1 0x1 PUSH1 0x1 PUSH1 0x40 SHL SUB SWAP1 PUSH3 0x24C4 SWAP1 PUSH1 0x1F CODESIZE DUP4 SWAP1 SUB SWAP1 DUP2 ADD PUSH1 0x1F NOT AND DUP3 ADD SWAP1 DUP5 DUP3 GT DUP4 DUP4 LT OR PUSH3 0x295 JUMPI DUP1 DUP4 SWAP2 PUSH1 0x40 SWAP6 DUP7 SWAP5 DUP6 MSTORE DUP4 CODECOPY DUP2 ADD SUB SLT PUSH3 0x2AB JUMPI PUSH3 0x52 DUP2 PUSH3 0x2CC JUMP JUMPDEST SWAP2 PUSH3 0x62 PUSH1 0x20 DUP1 SWAP4 ADD PUSH3 0x2CC JUMP JUMPDEST DUP2 MLOAD SWAP3 PUSH3 0x70 DUP5 PUSH3 0x2B0 JUMP JUMPDEST PUSH1 0xA DUP5 MSTORE DUP1 DUP5 ADD SWAP5 PUSH10 0xE26860645AC4C2E8C6D PUSH1 0xB3 SHL DUP7 MSTORE DUP4 MLOAD SWAP7 PUSH3 0x96 DUP9 PUSH3 0x2B0 JUMP JUMPDEST PUSH1 0x1 SWAP2 DUP3 DUP10 MSTORE DUP4 DUP10 ADD PUSH1 0x31 PUSH1 0xF8 SHL DUP2 MSTORE PUSH3 0xB1 DUP9 PUSH3 0x2E1 JUMP JUMPDEST SWAP9 PUSH2 0x120 SWAP10 DUP11 MSTORE PUSH3 0xC3 DUP12 PUSH3 0x4B4 JUMP JUMPDEST SWAP9 PUSH2 0x140 SWAP10 DUP11 MSTORE MLOAD SWAP1 KECCAK256 SWAP10 DUP11 PUSH1 0xE0 MSTORE MLOAD SWAP1 KECCAK256 SWAP2 PUSH2 0x100 SWAP10 DUP4 DUP12 MSTORE CHAINID PUSH1 0xA0 MSTORE DUP8 MLOAD SWAP4 DUP7 DUP6 ADD SWAP2 PUSH32 0x8B73C3C69BB8FE3D512ECC4CF759CC79239F7B179B0FFACAA9A75D522B39400F DUP4 MSTORE DUP10 DUP7 ADD MSTORE PUSH1 0x60 DUP6 ADD MSTORE CHAINID PUSH1 0x80 DUP6 ADD MSTORE ADDRESS PUSH1 0xA0 DUP6 ADD MSTORE PUSH1 0xA0 DUP5 MSTORE PUSH1 0xC0 DUP5 ADD SWAP2 DUP5 DUP4 LT SWAP1 DUP4 GT OR PUSH3 0x295 JUMPI DUP2 DUP9 MSTORE DUP4 MLOAD SWAP1 KECCAK256 PUSH1 0x80 MSTORE ADDRESS PUSH1 0xC0 MSTORE PUSH1 0x1 PUSH1 0x1 PUSH1 0xA0 SHL SUB SWAP2 DUP3 AND SWAP3 DUP4 ISZERO PUSH3 0x27E JUMPI POP POP SWAP1 DUP6 SWAP4 SWAP3 SWAP2 PUSH1 0x2 SLOAD SWAP6 DUP3 PUSH1 0x1 DUP1 PUSH1 0xA0 SHL SUB NOT DUP9 AND OR PUSH1 0x2 SSTORE DUP6 MLOAD SWAP3 DUP1 DUP4 PUSH1 0x0 SWAP10 AND PUSH32 0x8BE0079C531659141344CD1FD0A4F28419497F9722A3DAAFE3B4186F6B6457E0 DUP11 DUP1 LOG3 DUP5 PUSH1 0x3 SSTORE PUSH1 0xA DUP1 SSTORE DUP1 DUP9 MSTORE PUSH1 0x6 DUP7 MSTORE PUSH32 0x23B563B53629727DE17C5CEC4B391A63440584FDAF0D888A95BBC671DA2C62E1 DUP7 DUP9 DUP11 KECCAK256 SWAP6 PUSH1 0xFF NOT SWAP7 DUP9 DUP9 DUP3 SLOAD AND OR SWAP1 SSTORE DUP8 DUP2 MSTORE LOG2 AND SWAP5 DUP6 PUSH3 0x239 JUMPI JUMPDEST POP POP POP POP POP POP MLOAD SWAP2 PUSH2 0x1E62 SWAP4 DUP5 PUSH3 0x662 DUP6 CODECOPY PUSH1 0x80 MLOAD DUP5 PUSH2 0x1C3D ADD MSTORE PUSH1 0xA0 MLOAD DUP5 PUSH2 0x1D08 ADD MSTORE PUSH1 0xC0 MLOAD DUP5 PUSH2 0x1C07 ADD MSTORE PUSH1 0xE0 MLOAD DUP5 PUSH2 0x1C8C ADD MSTORE MLOAD DUP4 PUSH2 0x1CB2 ADD MSTORE MLOAD DUP3 PUSH2 0x10BB ADD MSTORE MLOAD DUP2 PUSH2 0x10E4 ADD MSTORE RETURN JUMPDEST PUSH32 0xCF2B36BF2AA8353623D06F58EAB9577176D9214E588362C013A7EEB0586463F1 SWAP5 DUP2 DUP8 DUP6 SWAP4 MSTORE PUSH1 0x7 DUP7 MSTORE KECCAK256 SWAP2 DUP3 SLOAD AND OR SWAP1 SSTORE DUP5 MLOAD SWAP1 DUP2 MSTORE LOG2 CODESIZE DUP2 DUP2 DUP1 DUP1 DUP1 PUSH3 0x1EB JUMP JUMPDEST PUSH4 0x1E4FBDF7 PUSH1 0xE0 SHL DUP3 MSTORE PUSH1 0x0 PUSH1 0xC4 SWAP1 SWAP2 ADD MSTORE PUSH1 0x24 SWAP1 REVERT JUMPDEST PUSH4 0x4E487B71 PUSH1 0xE0 SHL PUSH1 0x0 MSTORE PUSH1 0x41 PUSH1 0x4 MSTORE PUSH1 0x24 PUSH1 0x0 REVERT JUMPDEST PUSH1 0x0 DUP1 REVERT JUMPDEST PUSH1 0x40 DUP2 ADD SWAP1 DUP2 LT PUSH1 0x1 PUSH1 0x1 PUSH1 0x40 SHL SUB DUP3 GT OR PUSH3 0x295 JUMPI PUSH1 0x40 MSTORE JUMP JUMPDEST MLOAD SWAP1 PUSH1 0x1 PUSH1 0x1 PUSH1 0xA0 SHL SUB DUP3 AND DUP3 SUB PUSH3 0x2AB JUMPI JUMP JUMPDEST DUP1 MLOAD PUSH1 0x20 SWAP2 SWAP1 DUP3 DUP2 LT ISZERO PUSH3 0x380 JUMPI POP SWAP1 PUSH1 0x1F DUP3 MLOAD GT PUSH3 0x31F JUMPI DUP1 DUP3 MLOAD SWAP3 ADD MLOAD SWAP1 DUP1 DUP4 LT PUSH3 0x310 JUMPI POP OR SWAP1 JUMP JUMPDEST DUP3 PUSH1 0x0 NOT SWAP2 SUB PUSH1 0x3 SHL SHL AND OR SWAP1 JUMP JUMPDEST SWAP1 PUSH1 0x40 MLOAD DUP1 SWAP3 PUSH4 0x305A27A9 PUSH1 0xE0 SHL DUP3 MSTORE DUP1 PUSH1 0x4 DUP4 ADD MSTORE DUP3 MLOAD SWAP1 DUP2 PUSH1 0x24 DUP5 ADD MSTORE PUSH1 0x0 SWAP4 JUMPDEST DUP3 DUP6 LT PUSH3 0x366 JUMPI POP POP PUSH1 0x44 SWAP3 POP PUSH1 0x0 DUP4 DUP3 DUP5 ADD ADD MSTORE PUSH1 0x1F DUP1 NOT SWAP2 ADD AND DUP2 ADD SUB ADD SWAP1 REVERT JUMPDEST DUP5 DUP2 ADD DUP3 ADD MLOAD DUP7 DUP7 ADD PUSH1 0x44 ADD MSTORE SWAP4 DUP2 ADD SWAP4 DUP6 SWAP4 POP PUSH3 0x342 JUMP JUMPDEST PUSH1 0x1 PUSH1 0x1 PUSH1 0x40 SHL SUB DUP2 GT PUSH3 0x295 JUMPI PUSH1 0x0 SWAP3 DUP4 SLOAD SWAP3 PUSH1 0x1 SWAP4 DUP5 DUP2 DUP2 SHR SWAP2 AND DUP1 ISZERO PUSH3 0x4A9 JUMPI JUMPDEST DUP4 DUP3 LT EQ PUSH3 0x495 JUMPI PUSH1 0x1F DUP2 GT PUSH3 0x45F JUMPI JUMPDEST POP DUP2 PUSH1 0x1F DUP5 GT PUSH1 0x1 EQ PUSH3 0x3F8 JUMPI POP SWAP3 DUP3 SWAP4 SWAP2 DUP4 SWAP3 DUP7 SWAP5 PUSH3 0x3EC JUMPI JUMPDEST POP POP SHL SWAP2 PUSH1 0x0 NOT SWAP1 PUSH1 0x3 SHL SHR NOT AND OR SWAP1 SSTORE PUSH1 0xFF SWAP1 JUMP JUMPDEST ADD MLOAD SWAP3 POP CODESIZE DUP1 PUSH3 0x3D6 JUMP JUMPDEST SWAP2 SWAP1 DUP4 PUSH1 0x1F NOT DUP2 AND DUP8 DUP1 MSTORE DUP5 DUP9 KECCAK256 SWAP5 DUP9 SWAP1 JUMPDEST DUP9 DUP4 DUP4 LT PUSH3 0x444 JUMPI POP POP POP LT PUSH3 0x42A JUMPI JUMPDEST POP POP POP DUP2 SHL ADD SWAP1 SSTORE PUSH1 0xFF SWAP1 JUMP JUMPDEST ADD MLOAD PUSH1 0x0 NOT PUSH1 0xF8 DUP5 PUSH1 0x3 SHL AND SHR NOT AND SWAP1 SSTORE CODESIZE DUP1 DUP1 PUSH3 0x41D JUMP JUMPDEST DUP6 DUP8 ADD MLOAD DUP9 SSTORE SWAP1 SWAP7 ADD SWAP6 SWAP5 DUP6 ADD SWAP5 DUP8 SWAP4 POP SWAP1 DUP2 ADD SWAP1 PUSH3 0x40A JUMP JUMPDEST DUP6 DUP1 MSTORE DUP5 PUSH1 0x1F DUP5 DUP9 KECCAK256 SWAP3 ADD PUSH1 0x5 SHR DUP3 ADD SWAP2 PUSH1 0x1F DUP7 ADD PUSH1 0x5 SHR ADD JUMPDEST DUP3 DUP2 LT PUSH3 0x489 JUMPI POP POP PUSH3 0x3B9 JUMP JUMPDEST DUP8 DUP2 SSTORE ADD DUP6 SWAP1 PUSH3 0x479 JUMP JUMPDEST PUSH4 0x4E487B71 PUSH1 0xE0 SHL DUP7 MSTORE PUSH1 0x22 PUSH1 0x4 MSTORE PUSH1 0x24 DUP7 REVERT JUMPDEST SWAP1 PUSH1 0x7F AND SWAP1 PUSH3 0x3A6 JUMP JUMPDEST DUP1 MLOAD PUSH1 0x20 SWAP1 DUP2 DUP2 LT ISZERO PUSH3 0x542 JUMPI POP PUSH1 0x1F DUP3 MLOAD GT PUSH3 0x4E1 JUMPI DUP1 DUP3 MLOAD SWAP3 ADD MLOAD SWAP1 DUP1 DUP4 LT PUSH3 0x310 JUMPI POP OR SWAP1 JUMP JUMPDEST SWAP1 PUSH1 0x40 MLOAD DUP1 SWAP3 PUSH4 0x305A27A9 PUSH1 0xE0 SHL DUP3 MSTORE DUP1 PUSH1 0x4 DUP4 ADD MSTORE DUP3 MLOAD SWAP1 DUP2 PUSH1 0x24 DUP5 ADD MSTORE PUSH1 0x0 SWAP4 JUMPDEST DUP3 DUP6 LT PUSH3 0x528 JUMPI POP POP PUSH1 0x44 SWAP3 POP PUSH1 0x0 DUP4 DUP3 DUP5 ADD ADD MSTORE PUSH1 0x1F DUP1 NOT SWAP2 ADD AND DUP2 ADD SUB ADD SWAP1 REVERT JUMPDEST DUP5 DUP2 ADD DUP3 ADD MLOAD DUP7 DUP7 ADD PUSH1 0x44 ADD MSTORE SWAP4 DUP2 ADD SWAP4 DUP6 SWAP4 POP PUSH3 0x504 JUMP JUMPDEST SWAP2 SWAP3 SWAP2 PUSH1 0x1 PUSH1 0x1 PUSH1 0x40 SHL SUB DUP2 GT PUSH3 0x295 JUMPI PUSH1 0x1 SWAP2 DUP3 SLOAD DUP4 DUP2 DUP2 SHR SWAP2 AND DUP1 ISZERO PUSH3 0x656 JUMPI JUMPDEST DUP3 DUP3 LT EQ PUSH3 0x640 JUMPI PUSH1 0x1F DUP2 GT PUSH3 0x607 JUMPI JUMPDEST POP DUP1 PUSH1 0x1F DUP4 GT PUSH1 0x1 EQ PUSH3 0x5BA JUMPI POP DUP2 SWAP3 SWAP4 SWAP5 PUSH1 0x0 SWAP3 PUSH3 0x5AE JUMPI JUMPDEST POP POP PUSH1 0x0 NOT PUSH1 0x3 DUP4 SWAP1 SHL SHR NOT AND SWAP1 DUP3 SHL OR SWAP1 SSTORE PUSH1 0xFF SWAP1 JUMP JUMPDEST ADD MLOAD SWAP1 POP CODESIZE DUP1 PUSH3 0x596 JUMP JUMPDEST SWAP1 PUSH1 0x1F NOT DUP4 AND SWAP6 DUP5 PUSH1 0x0 MSTORE DUP3 PUSH1 0x0 KECCAK256 SWAP3 PUSH1 0x0 SWAP1 JUMPDEST DUP9 DUP3 LT PUSH3 0x5EF JUMPI POP POP DUP4 DUP6 SWAP7 SWAP8 LT PUSH3 0x42A JUMPI POP POP POP DUP2 SHL ADD SWAP1 SSTORE PUSH1 0xFF SWAP1 JUMP JUMPDEST DUP1 DUP8 DUP6 SWAP7 DUP3 SWAP5 SWAP7 DUP7 ADD MLOAD DUP2 SSTORE ADD SWAP6 ADD SWAP4 ADD SWAP1 PUSH3 0x5CE JUMP JUMPDEST DUP4 PUSH1 0x0 MSTORE DUP4 PUSH1 0x1F DUP4 PUSH1 0x0 KECCAK256 SWAP3 ADD PUSH1 0x5 SHR DUP3 ADD SWAP2 PUSH1 0x1F DUP6 ADD PUSH1 0x5 SHR ADD JUMPDEST DUP3 DUP2 LT PUSH3 0x633 JUMPI POP POP PUSH3 0x57A JUMP JUMPDEST PUSH1 0x0 DUP2 SSTORE ADD DUP5 SWAP1 PUSH3 0x623 JUMP JUMPDEST PUSH4 0x4E487B71 PUSH1 0xE0 SHL PUSH1 0x0 MSTORE PUSH1 0x22 PUSH1 0x4 MSTORE PUSH1 0x24 PUSH1 0x0 REVERT JUMPDEST SWAP1 PUSH1 0x7F AND SWAP1 PUSH3 0x567 JUMP INVALID PUSH1 0x80 DUP1 PUSH1 0x40 MSTORE PUSH1 0x4 CALLDATASIZE LT ISZERO PUSH2 0x1D JUMPI JUMPDEST POP CALLDATASIZE ISZERO PUSH2 0x1B JUMPI PUSH1 0x0 DUP1 REVERT JUMPDEST STOP JUMPDEST PUSH1 0x0 CALLDATALOAD PUSH1 0xE0 SHR SWAP1 DUP2 PUSH4 0xAEF023F EQ PUSH2 0x14A4 JUMPI POP DUP1 PUSH4 0xF874A13 EQ PUSH2 0x1465 JUMPI DUP1 PUSH4 0x108BDC14 EQ PUSH2 0x13ED JUMPI DUP1 PUSH4 0x16C38B3C EQ PUSH2 0x138B JUMPI DUP1 PUSH4 0x2D0335AB EQ PUSH2 0x11E9 JUMPI DUP1 PUSH4 0x33460540 EQ PUSH2 0x134C JUMPI DUP1 PUSH4 0x40125E44 EQ PUSH2 0x12F8 JUMPI DUP1 PUSH4 0x4B719AB6 EQ PUSH2 0x134C JUMPI DUP1 PUSH4 0x5C975ABB EQ PUSH2 0x1329 JUMPI DUP1 PUSH4 0x6651320F EQ PUSH2 0x12F8 JUMPI DUP1 PUSH4 0x715018A6 EQ PUSH2 0x129B JUMPI DUP1 PUSH4 0x7B224339 EQ PUSH2 0x1223 JUMPI DUP1 PUSH4 0x7ECEBE00 EQ PUSH2 0x11E9 JUMPI DUP1 PUSH4 0x828D6E8D EQ PUSH2 0x11AE JUMPI DUP1 PUSH4 0x84B0196E EQ PUSH2 0x10A5 JUMPI DUP1 PUSH4 0x87E02D16 EQ PUSH2 0x1059 JUMPI DUP1 PUSH4 0x8DA5CB5B EQ PUSH2 0x1030 JUMPI DUP1 PUSH4 0x8F57E97D EQ PUSH2 0xFB1 JUMPI DUP1 PUSH4 0x8FF9E3F8 EQ PUSH2 0x174 JUMPI DUP1 PUSH4 0x93AAA146 EQ PUSH2 0xF76 JUMPI DUP1 PUSH4 0xA4E96BBB EQ PUSH2 0xF3B JUMPI DUP1 PUSH4 0xA9ADFC2A EQ PUSH2 0xF1F JUMPI DUP1 PUSH4 0xE389DF14 EQ PUSH2 0x390 JUMPI DUP1 PUSH4 0xE63EA408 EQ PUSH2 0x2BF JUMPI DUP1 PUSH4 0xEAC8D18F EQ PUSH2 0x2A1 JUMPI DUP1 PUSH4 0xEC7BBBBF EQ PUSH2 0x285 JUMPI DUP1 PUSH4 0xF2FDE38B EQ PUSH2 0x1F7 JUMPI DUP1 PUSH4 0xF698DA25 EQ PUSH2 0x1D4 JUMPI DUP1 PUSH4 0xF7994213 EQ PUSH2 0x1B8 JUMPI PUSH4 0xFB9ED257 EQ PUSH2 0x174 JUMPI CODESIZE PUSH2 0xF JUMP JUMPDEST CALLVALUE PUSH2 0x1B3 JUMPI PUSH1 0x20 CALLDATASIZE PUSH1 0x3 NOT ADD SLT PUSH2 0x1B3 JUMPI PUSH1 0x1 PUSH1 0x1 PUSH1 0xA0 SHL SUB PUSH2 0x195 PUSH2 0x14DF JUMP JUMPDEST AND PUSH1 0x0 MSTORE PUSH1 0x8 PUSH1 0x20 MSTORE PUSH1 0x20 PUSH1 0xFF PUSH1 0x40 PUSH1 0x0 KECCAK256 SLOAD AND PUSH1 0x40 MLOAD SWAP1 ISZERO ISZERO DUP2 MSTORE RETURN JUMPDEST PUSH1 0x0 DUP1 REVERT JUMPDEST CALLVALUE PUSH2 0x1B3 JUMPI PUSH1 0x0 CALLDATASIZE PUSH1 0x3 NOT ADD SLT PUSH2 0x1B3 JUMPI PUSH1 0x20 PUSH1 0x40 MLOAD PUSH1 0x2 DUP2 MSTORE RETURN JUMPDEST CALLVALUE PUSH2 0x1B3 JUMPI PUSH1 0x0 CALLDATASIZE PUSH1 0x3 NOT ADD SLT PUSH2 0x1B3 JUMPI PUSH1 0x20 PUSH2 0x1EF PUSH2 0x1C04 JUMP JUMPDEST PUSH1 0x40 MLOAD SWAP1 DUP2 MSTORE RETURN JUMPDEST CALLVALUE PUSH2 0x1B3 JUMPI PUSH1 0x20 CALLDATASIZE PUSH1 0x3 NOT ADD SLT PUSH2 0x1B3 JUMPI PUSH2 0x210 PUSH2 0x14DF JUMP JUMPDEST PUSH2 0x218 PUSH2 0x1574 JUMP JUMPDEST PUSH1 0x1 PUSH1 0x1 PUSH1 0xA0 SHL SUB SWAP1 DUP2 AND SWAP1 DUP2 ISZERO PUSH2 0x26C JUMPI PUSH1 0x2 SLOAD DUP3 PUSH12 0xFFFFFFFFFFFFFFFFFFFFFFFF PUSH1 0xA0 SHL DUP3 AND OR PUSH1 0x2 SSTORE AND PUSH32 0x8BE0079C531659141344CD1FD0A4F28419497F9722A3DAAFE3B4186F6B6457E0 PUSH1 0x0 DUP1 LOG3 STOP JUMPDEST PUSH1 0x40 MLOAD PUSH4 0x1E4FBDF7 PUSH1 0xE0 SHL DUP2 MSTORE PUSH1 0x0 PUSH1 0x4 DUP3 ADD MSTORE PUSH1 0x24 SWAP1 REVERT JUMPDEST CALLVALUE PUSH2 0x1B3 JUMPI PUSH1 0x0 CALLDATASIZE PUSH1 0x3 NOT ADD SLT PUSH2 0x1B3 JUMPI PUSH1 0x20 PUSH1 0x40 MLOAD PUSH1 0x1 DUP2 MSTORE RETURN JUMPDEST CALLVALUE PUSH2 0x1B3 JUMPI PUSH1 0x0 CALLDATASIZE PUSH1 0x3 NOT ADD SLT PUSH2 0x1B3 JUMPI PUSH1 0x20 PUSH1 0xA SLOAD PUSH1 0x40 MLOAD SWAP1 DUP2 MSTORE RETURN JUMPDEST CALLVALUE PUSH2 0x1B3 JUMPI PUSH1 0x60 CALLDATASIZE PUSH1 0x3 NOT ADD SLT PUSH2 0x1B3 JUMPI PUSH2 0x2D8 PUSH2 0x14DF JUMP JUMPDEST PUSH1 0x24 CALLDATALOAD PUSH1 0x1 PUSH1 0x1 PUSH1 0xA0 SHL SUB DUP1 DUP3 AND DUP3 SUB PUSH2 0x1B3 JUMPI PUSH1 0x44 CALLDATALOAD SWAP3 PUSH2 0x2F8 PUSH2 0x1574 JUMP JUMPDEST AND DUP1 PUSH2 0x34F JUMPI POP PUSH1 0x0 DUP1 DUP1 SWAP4 DUP2 SWAP4 GAS CALL PUSH2 0x310 PUSH2 0x1D2E JUMP JUMPDEST POP ISZERO PUSH2 0x318 JUMPI STOP JUMPDEST PUSH1 0x40 MLOAD PUSH3 0x461BCD PUSH1 0xE5 SHL DUP2 MSTORE PUSH1 0x20 PUSH1 0x4 DUP3 ADD MSTORE PUSH1 0xF PUSH1 0x24 DUP3 ADD MSTORE PUSH15 0x151C985B9CD9995C8819985A5B1959 PUSH1 0x8A SHL PUSH1 0x44 DUP3 ADD MSTORE PUSH1 0x64 SWAP1 REVERT JUMPDEST PUSH1 0x40 MLOAD PUSH4 0xA9059CBB PUSH1 0xE0 SHL PUSH1 0x20 DUP3 ADD MSTORE PUSH1 0x1 PUSH1 0x1 PUSH1 0xA0 SHL SUB SWAP3 SWAP1 SWAP3 AND PUSH1 0x24 DUP4 ADD MSTORE PUSH1 0x44 DUP1 DUP4 ADD SWAP4 SWAP1 SWAP4 MSTORE SWAP2 DUP2 MSTORE PUSH2 0x1B SWAP2 PUSH2 0x38B PUSH1 0x64 DUP4 PUSH2 0x15BB JUMP JUMPDEST PUSH2 0x1DB8 JUMP JUMPDEST CALLVALUE PUSH2 0x1B3 JUMPI CALLDATASIZE PUSH1 0x3 NOT ADD PUSH1 0xE0 DUP2 SLT PUSH2 0x1B3 JUMPI PUSH1 0xA0 SGT PUSH2 0x1B3 JUMPI PUSH1 0xA4 CALLDATALOAD PUSH1 0x1 PUSH1 0x1 PUSH1 0x40 SHL SUB DUP2 GT PUSH2 0x1B3 JUMPI PUSH2 0x3C8 SWAP1 CALLDATASIZE SWAP1 PUSH1 0x4 ADD PUSH2 0x1504 JUMP JUMPDEST SWAP1 PUSH1 0x1 PUSH1 0x1 PUSH1 0x40 SHL SUB PUSH1 0xC4 CALLDATALOAD GT PUSH2 0x1B3 JUMPI CALLDATASIZE PUSH1 0x23 PUSH1 0xC4 CALLDATALOAD ADD SLT ISZERO PUSH2 0x1B3 JUMPI PUSH1 0x1 PUSH1 0x1 PUSH1 0x40 SHL SUB PUSH1 0xC4 CALLDATALOAD PUSH1 0x4 ADD CALLDATALOAD GT PUSH2 0x1B3 JUMPI CALLDATASIZE PUSH1 0x24 PUSH1 0xC4 CALLDATALOAD PUSH1 0x4 ADD CALLDATALOAD PUSH1 0xC4 CALLDATALOAD ADD ADD GT PUSH2 0x1B3 JUMPI PUSH1 0x2 PUSH1 0x3 SLOAD EQ PUSH2 0xF0D JUMPI PUSH1 0x2 PUSH1 0x3 SSTORE PUSH1 0xFF PUSH1 0x9 SLOAD AND PUSH2 0xEFB JUMPI CALLER PUSH1 0x0 MSTORE PUSH1 0x6 PUSH1 0x20 MSTORE PUSH1 0xFF PUSH1 0x40 PUSH1 0x0 KECCAK256 SLOAD AND ISZERO PUSH2 0xEE9 JUMPI PUSH1 0x44 CALLDATALOAD TIMESTAMP GT PUSH2 0xED7 JUMPI PUSH1 0x1 PUSH1 0x1 PUSH1 0xA0 SHL SUB PUSH2 0x457 PUSH2 0x1807 JUMP JUMPDEST AND PUSH1 0x0 MSTORE PUSH1 0x4 PUSH1 0x20 MSTORE PUSH1 0x40 PUSH1 0x0 KECCAK256 SLOAD PUSH1 0x84 CALLDATALOAD SUB PUSH2 0xEC5 JUMPI PUSH1 0x64 CALLDATALOAD PUSH1 0x0 MSTORE PUSH1 0x5 PUSH1 0x20 MSTORE PUSH1 0xFF PUSH1 0x40 PUSH1 0x0 KECCAK256 SLOAD AND PUSH2 0xEB3 JUMPI DUP2 ISZERO DUP1 ISZERO PUSH2 0xEA8 JUMPI JUMPDEST PUSH2 0xE96 JUMPI PUSH2 0x49D DUP3 DUP3 PUSH2 0x18EF JUMP JUMPDEST PUSH1 0x24 CALLDATALOAD SUB PUSH2 0xE84 JUMPI PUSH2 0x4AD PUSH2 0x1807 JUMP JUMPDEST PUSH1 0x40 MLOAD SWAP1 PUSH32 0x81AB27B097AAD1EEF8580946A56E7AE570E5C730DB01FE4BD50FD90603EFCBEE PUSH1 0x20 DUP4 ADD MSTORE PUSH1 0x1 DUP1 PUSH1 0xA0 SHL SUB AND PUSH1 0x40 DUP3 ADD MSTORE PUSH1 0x24 CALLDATALOAD PUSH1 0x60 DUP3 ADD MSTORE PUSH1 0x44 CALLDATALOAD PUSH1 0x80 DUP3 ADD MSTORE PUSH1 0x64 CALLDATALOAD PUSH1 0xA0 DUP3 ADD MSTORE PUSH1 0x84 CALLDATALOAD PUSH1 0xC0 DUP3 ADD MSTORE PUSH1 0xC0 DUP2 MSTORE PUSH1 0xE0 DUP2 ADD SWAP1 DUP1 DUP3 LT PUSH1 0x1 PUSH1 0x1 PUSH1 0x40 SHL SUB DUP4 GT OR PUSH2 0xE6E JUMPI PUSH1 0x42 PUSH2 0x56F SWAP2 PUSH2 0x578 SWAP4 PUSH1 0x40 MSTORE PUSH1 0x20 DUP2 MLOAD SWAP2 ADD KECCAK256 PUSH2 0x53B PUSH2 0x1C04 JUMP JUMPDEST SWAP1 PUSH1 0x40 MLOAD SWAP2 PUSH2 0x1901 PUSH1 0xF0 SHL DUP4 MSTORE PUSH1 0x2 DUP4 ADD MSTORE PUSH1 0x22 DUP3 ADD MSTORE KECCAK256 PUSH2 0x569 CALLDATASIZE PUSH1 0xC4 CALLDATALOAD PUSH1 0x4 ADD CALLDATALOAD PUSH1 0x24 PUSH1 0xC4 CALLDATALOAD ADD PUSH2 0x18B8 JUMP JUMPDEST SWAP1 PUSH2 0x1AB3 JUMP JUMPDEST SWAP1 SWAP3 SWAP2 SWAP3 PUSH2 0x1B7F JUMP JUMPDEST PUSH1 0x1 PUSH1 0x1 PUSH1 0xA0 SHL SUB PUSH2 0x588 PUSH2 0x1807 JUMP JUMPDEST AND PUSH1 0x1 PUSH1 0x1 PUSH1 0xA0 SHL SUB SWAP1 SWAP2 AND SUB PUSH2 0xE5C JUMPI PUSH1 0x64 CALLDATALOAD PUSH1 0x0 MSTORE PUSH1 0x5 PUSH1 0x20 MSTORE PUSH1 0x40 PUSH1 0x0 KECCAK256 PUSH1 0x1 PUSH1 0xFF NOT DUP3 SLOAD AND OR SWAP1 SSTORE PUSH1 0x1 PUSH1 0x84 CALLDATALOAD ADD PUSH1 0x84 CALLDATALOAD GT PUSH2 0x8FE JUMPI PUSH1 0x1 PUSH1 0x1 PUSH1 0xA0 SHL SUB PUSH2 0x5D2 PUSH2 0x1807 JUMP JUMPDEST AND PUSH1 0x0 MSTORE PUSH1 0x4 PUSH1 0x20 MSTORE PUSH1 0x1 PUSH1 0x84 CALLDATALOAD ADD PUSH1 0x40 PUSH1 0x0 KECCAK256 SSTORE PUSH1 0x0 JUMPDEST DUP3 DUP2 LT PUSH2 0x646 JUMPI DUP3 PUSH1 0x1 PUSH1 0x1 PUSH1 0xA0 SHL SUB PUSH2 0x602 PUSH2 0x1807 JUMP JUMPDEST AND PUSH1 0x40 MLOAD SWAP2 DUP3 MSTORE PUSH1 0x84 CALLDATALOAD PUSH1 0x20 DUP4 ADD MSTORE CALLER PUSH1 0x40 DUP4 ADD MSTORE PUSH32 0xC9396E654A57D93EC31014B61B1B5C51DE580A5C03DA55B901C04E64941A336C PUSH1 0x60 PUSH1 0x64 CALLDATALOAD SWAP4 LOG3 PUSH1 0x1 PUSH1 0x3 SSTORE STOP JUMPDEST PUSH2 0x64E PUSH2 0x1807 JUMP JUMPDEST SWAP1 PUSH2 0x65A DUP2 DUP6 DUP6 PUSH2 0x1840 JUMP JUMPDEST SWAP2 PUSH1 0xFF PUSH2 0x666 DUP5 PUSH2 0x1878 JUMP JUMPDEST AND PUSH2 0x7EA JUMPI PUSH1 0x1 PUSH1 0x1 PUSH1 0xA0 SHL SUB PUSH2 0x67F PUSH1 0xA0 DUP6 ADD PUSH2 0x181D JUMP JUMPDEST AND ISZERO PUSH2 0x7D8 JUMPI PUSH1 0x40 DUP4 ADD CALLDATALOAD ISZERO PUSH2 0x7C6 JUMPI PUSH1 0x20 DUP4 ADD PUSH1 0x1 PUSH1 0x1 PUSH1 0xA0 SHL SUB PUSH2 0x6A4 DUP3 PUSH2 0x181D JUMP JUMPDEST AND PUSH2 0x78E JUMPI POP POP PUSH1 0x0 DUP1 DUP1 DUP1 PUSH1 0x40 DUP7 ADD CALLDATALOAD PUSH2 0x6C1 PUSH1 0xA0 DUP9 ADD PUSH2 0x181D JUMP JUMPDEST GAS CALL PUSH2 0x6CB PUSH2 0x1D2E JUMP JUMPDEST POP ISZERO PUSH2 0x77C JUMPI DUP1 PUSH2 0x777 SWAP3 JUMPDEST PUSH1 0x40 DUP2 ADD CALLDATALOAD SWAP1 JUMPDEST PUSH2 0x6E7 DUP2 PUSH2 0x1878 JUMP JUMPDEST SWAP2 PUSH2 0x6F4 PUSH1 0x20 DUP4 ADD PUSH2 0x181D JUMP JUMPDEST SWAP2 PUSH1 0x40 PUSH2 0x703 PUSH1 0x60 DUP4 ADD PUSH2 0x181D JUMP JUMPDEST SWAP2 PUSH2 0x710 PUSH1 0xA0 DUP3 ADD PUSH2 0x181D JUMP JUMPDEST DUP3 MLOAD PUSH1 0xFF SWAP8 SWAP1 SWAP8 AND DUP8 MSTORE PUSH1 0x1 PUSH1 0x1 PUSH1 0xA0 SHL SUB SWAP6 DUP7 AND PUSH1 0x20 DUP9 ADD MSTORE SWAP2 ADD CALLDATALOAD PUSH1 0x40 DUP7 ADD MSTORE SWAP1 DUP4 AND PUSH1 0x60 DUP6 ADD MSTORE PUSH1 0x80 DUP5 ADD SWAP2 SWAP1 SWAP2 MSTORE AND PUSH1 0xA0 DUP3 ADD MSTORE PUSH1 0x64 CALLDATALOAD SWAP1 PUSH32 0x4DE9CEBC1DAEFD6EBB51EF8E43BA7A2C43DE9428BA9F51A2D9FC55EEC6BCF90B SWAP1 PUSH1 0xC0 SWAP1 LOG3 PUSH2 0x1831 JUMP JUMPDEST PUSH2 0x5EA JUMP JUMPDEST PUSH1 0x40 MLOAD PUSH4 0x12171D83 PUSH1 0xE3 SHL DUP2 MSTORE PUSH1 0x4 SWAP1 REVERT JUMPDEST SWAP3 PUSH2 0x7C1 DUP4 SWAP3 PUSH2 0x777 SWAP6 PUSH2 0x7A8 PUSH1 0x1 DUP1 PUSH1 0xA0 SHL SUB SWAP2 PUSH2 0x181D JUMP JUMPDEST AND PUSH1 0x40 DUP5 ADD CALLDATALOAD SWAP2 PUSH2 0x7BB PUSH1 0xA0 DUP7 ADD PUSH2 0x181D JUMP JUMPDEST SWAP2 PUSH2 0x1D5E JUMP JUMPDEST PUSH2 0x6D7 JUMP JUMPDEST PUSH1 0x40 MLOAD PUSH4 0x162908E3 PUSH1 0xE1 SHL DUP2 MSTORE PUSH1 0x4 SWAP1 REVERT JUMPDEST PUSH1 0x40 MLOAD PUSH4 0x416AEBB5 PUSH1 0xE1 SHL DUP2 MSTORE PUSH1 0x4 SWAP1 REVERT JUMPDEST SWAP2 PUSH1 0x1 PUSH1 0xFF PUSH2 0x7F8 DUP4 PUSH2 0x1878 JUMP JUMPDEST AND SUB PUSH2 0xBD1 JUMPI PUSH1 0x1 PUSH1 0x1 PUSH1 0xA0 SHL SUB PUSH2 0x812 PUSH1 0xA0 DUP4 ADD PUSH2 0x181D JUMP JUMPDEST AND PUSH1 0x0 MSTORE PUSH1 0x7 PUSH1 0x20 MSTORE PUSH1 0xFF PUSH1 0x40 PUSH1 0x0 KECCAK256 SLOAD AND ISZERO PUSH2 0xBBF JUMPI PUSH1 0x40 DUP2 ADD CALLDATALOAD ISZERO PUSH2 0x7C6 JUMPI PUSH1 0x1 PUSH1 0x1 PUSH1 0xA0 SHL SUB PUSH2 0x847 PUSH1 0x60 DUP4 ADD PUSH2 0x181D JUMP JUMPDEST AND PUSH2 0xB39 JUMPI DUP3 BALANCE SWAP3 JUMPDEST PUSH1 0x1 PUSH1 0x1 PUSH1 0xA0 SHL SUB PUSH2 0x864 PUSH1 0x20 DUP5 ADD PUSH2 0x181D JUMP JUMPDEST AND PUSH2 0x9B7 JUMPI PUSH1 0x0 DUP1 PUSH2 0x878 PUSH1 0xA0 DUP6 ADD PUSH2 0x181D JUMP JUMPDEST PUSH2 0x885 PUSH1 0xC0 DUP7 ADD DUP7 PUSH2 0x1886 JUMP JUMPDEST SWAP1 DUP2 PUSH1 0x40 MLOAD SWAP3 DUP4 SWAP3 DUP4 CALLDATACOPY DUP2 ADD DUP5 DUP2 MSTORE SUB SWAP2 PUSH1 0x40 DUP8 ADD CALLDATALOAD SWAP1 GAS CALL PUSH2 0x8A6 PUSH2 0x1D2E JUMP JUMPDEST POP ISZERO PUSH2 0x9A5 JUMPI JUMPDEST PUSH1 0x1 PUSH1 0x1 PUSH1 0xA0 SHL SUB PUSH2 0x8C1 PUSH1 0x60 DUP5 ADD PUSH2 0x181D JUMP JUMPDEST AND PUSH2 0x914 JUMPI BALANCE SWAP1 JUMPDEST DUP2 DUP5 DUP2 SUB GT PUSH2 0x8FE JUMPI PUSH1 0x80 DUP2 ADD CALLDATALOAD DUP5 DUP4 SUB LT PUSH2 0x8EC JUMPI PUSH2 0x777 SWAP4 DUP4 SWAP3 SUB SWAP1 PUSH2 0x6DE JUMP JUMPDEST PUSH1 0x40 MLOAD PUSH4 0xBB2875C3 PUSH1 0xE0 SHL DUP2 MSTORE PUSH1 0x4 SWAP1 REVERT JUMPDEST PUSH4 0x4E487B71 PUSH1 0xE0 SHL PUSH1 0x0 MSTORE PUSH1 0x11 PUSH1 0x4 MSTORE PUSH1 0x24 PUSH1 0x0 REVERT JUMPDEST PUSH1 0x20 PUSH1 0x1 PUSH1 0x1 PUSH1 0xA0 SHL SUB PUSH2 0x92A PUSH1 0x60 DUP6 ADD PUSH2 0x181D JUMP JUMPDEST PUSH1 0x40 MLOAD PUSH4 0x70A08231 PUSH1 0xE0 SHL DUP2 MSTORE PUSH1 0x1 PUSH1 0x1 PUSH1 0xA0 SHL SUB SWAP1 SWAP5 AND PUSH1 0x4 DUP6 ADD MSTORE DUP4 SWAP2 PUSH1 0x24 SWAP2 DUP4 SWAP2 AND GAS STATICCALL SWAP1 DUP2 ISZERO PUSH2 0x999 JUMPI PUSH1 0x0 SWAP2 PUSH2 0x967 JUMPI JUMPDEST POP SWAP1 PUSH2 0x8C9 JUMP JUMPDEST SWAP1 POP PUSH1 0x20 DUP2 RETURNDATASIZE PUSH1 0x20 GT PUSH2 0x991 JUMPI JUMPDEST DUP2 PUSH2 0x982 PUSH1 0x20 SWAP4 DUP4 PUSH2 0x15BB JUMP JUMPDEST DUP2 ADD SUB SLT PUSH2 0x1B3 JUMPI MLOAD DUP7 PUSH2 0x960 JUMP JUMPDEST RETURNDATASIZE SWAP2 POP PUSH2 0x975 JUMP JUMPDEST PUSH1 0x40 MLOAD RETURNDATASIZE PUSH1 0x0 DUP3 RETURNDATACOPY RETURNDATASIZE SWAP1 REVERT JUMPDEST PUSH1 0x40 MLOAD PUSH4 0x81CEFF3 PUSH1 0xE4 SHL DUP2 MSTORE PUSH1 0x4 SWAP1 REVERT JUMPDEST PUSH2 0x9DD PUSH1 0x1 PUSH1 0x1 PUSH1 0xA0 SHL SUB PUSH2 0x9CE PUSH1 0x20 DUP6 ADD PUSH2 0x181D JUMP JUMPDEST AND PUSH1 0x40 DUP5 ADD CALLDATALOAD SWAP1 DUP4 ADDRESS SWAP2 PUSH2 0x1D5E JUMP JUMPDEST PUSH1 0x0 PUSH1 0x20 PUSH2 0xA39 PUSH1 0x1 PUSH1 0x1 PUSH1 0xA0 SHL SUB PUSH2 0x9F7 DUP7 DUP5 ADD PUSH2 0x181D JUMP JUMPDEST AND PUSH2 0xA04 PUSH1 0xA0 DUP8 ADD PUSH2 0x181D JUMP JUMPDEST PUSH1 0x40 DUP1 MLOAD PUSH4 0x95EA7B3 PUSH1 0xE0 SHL DUP2 MSTORE PUSH1 0x1 PUSH1 0x1 PUSH1 0xA0 SHL SUB SWAP1 SWAP3 AND PUSH1 0x4 DUP4 ADD MSTORE DUP8 ADD CALLDATALOAD PUSH1 0x24 DUP3 ADD MSTORE SWAP4 DUP5 SWAP3 DUP4 SWAP2 SWAP1 DUP3 SWAP1 PUSH1 0x44 DUP3 ADD SWAP1 JUMP JUMPDEST SUB SWAP3 GAS CALL DUP1 ISZERO PUSH2 0x999 JUMPI PUSH2 0xB1A JUMPI JUMPDEST POP PUSH1 0x0 DUP1 PUSH2 0xA58 PUSH1 0xA0 DUP6 ADD PUSH2 0x181D JUMP JUMPDEST DUP2 PUSH2 0xA66 PUSH1 0xC0 DUP8 ADD DUP8 PUSH2 0x1886 JUMP JUMPDEST SWAP2 SWAP1 DUP3 PUSH1 0x40 MLOAD SWAP4 DUP5 SWAP3 DUP4 CALLDATACOPY DUP2 ADD DUP3 DUP2 MSTORE SUB SWAP3 GAS CALL PUSH2 0xA82 PUSH2 0x1D2E JUMP JUMPDEST POP ISZERO PUSH2 0x9A5 JUMPI PUSH1 0x0 PUSH1 0x20 PUSH1 0x1 PUSH1 0x1 PUSH1 0xA0 SHL SUB PUSH2 0xA9F DUP6 DUP4 ADD PUSH2 0x181D JUMP JUMPDEST AND PUSH1 0x44 PUSH2 0xAAE PUSH1 0xA0 DUP8 ADD PUSH2 0x181D JUMP JUMPDEST PUSH1 0x40 MLOAD PUSH4 0x95EA7B3 PUSH1 0xE0 SHL DUP2 MSTORE PUSH1 0x1 PUSH1 0x1 PUSH1 0xA0 SHL SUB SWAP1 SWAP2 AND PUSH1 0x4 DUP3 ADD MSTORE PUSH1 0x24 DUP2 ADD DUP6 SWAP1 MSTORE SWAP4 DUP5 SWAP3 DUP4 SWAP2 SWAP1 GAS CALL DUP1 ISZERO PUSH2 0x999 JUMPI PUSH2 0xAEB JUMPI JUMPDEST POP PUSH2 0x8AD JUMP JUMPDEST PUSH2 0xB0C SWAP1 PUSH1 0x20 RETURNDATASIZE PUSH1 0x20 GT PUSH2 0xB13 JUMPI JUMPDEST PUSH2 0xB04 DUP2 DUP4 PUSH2 0x15BB JUMP JUMPDEST DUP2 ADD SWAP1 PUSH2 0x1E14 JUMP JUMPDEST POP DUP7 PUSH2 0xAE5 JUMP JUMPDEST POP RETURNDATASIZE PUSH2 0xAFA JUMP JUMPDEST PUSH2 0xB32 SWAP1 PUSH1 0x20 RETURNDATASIZE PUSH1 0x20 GT PUSH2 0xB13 JUMPI PUSH2 0xB04 DUP2 DUP4 PUSH2 0x15BB JUMP JUMPDEST POP DUP7 PUSH2 0xA48 JUMP JUMPDEST PUSH1 0x24 PUSH1 0x20 PUSH1 0x1 PUSH1 0x1 PUSH1 0xA0 SHL SUB PUSH2 0xB51 PUSH1 0x60 DUP6 ADD PUSH2 0x181D JUMP JUMPDEST PUSH1 0x40 MLOAD PUSH4 0x70A08231 PUSH1 0xE0 SHL DUP2 MSTORE PUSH1 0x1 PUSH1 0x1 PUSH1 0xA0 SHL SUB DUP9 AND PUSH1 0x4 DUP3 ADD MSTORE SWAP4 DUP5 SWAP3 SWAP1 SWAP2 DUP4 SWAP2 AND GAS STATICCALL SWAP1 DUP2 ISZERO PUSH2 0x999 JUMPI PUSH1 0x0 SWAP2 PUSH2 0xB8D JUMPI JUMPDEST POP SWAP3 PUSH2 0x850 JUMP JUMPDEST SWAP1 POP PUSH1 0x20 DUP2 RETURNDATASIZE PUSH1 0x20 GT PUSH2 0xBB7 JUMPI JUMPDEST DUP2 PUSH2 0xBA8 PUSH1 0x20 SWAP4 DUP4 PUSH2 0x15BB JUMP JUMPDEST DUP2 ADD SUB SLT PUSH2 0x1B3 JUMPI MLOAD DUP7 PUSH2 0xB86 JUMP JUMPDEST RETURNDATASIZE SWAP2 POP PUSH2 0xB9B JUMP JUMPDEST PUSH1 0x40 MLOAD PUSH4 0x5BB58457 PUSH1 0xE1 SHL DUP2 MSTORE PUSH1 0x4 SWAP1 REVERT JUMPDEST SWAP2 PUSH1 0x2 PUSH1 0xFF PUSH2 0xBDF DUP6 PUSH2 0x1878 JUMP JUMPDEST AND SUB PUSH2 0xE4A JUMPI PUSH1 0x1 PUSH1 0x1 PUSH1 0xA0 SHL SUB PUSH2 0xBF9 PUSH1 0xA0 DUP6 ADD PUSH2 0x181D JUMP JUMPDEST AND PUSH1 0x0 MSTORE PUSH1 0x8 PUSH1 0x20 MSTORE PUSH1 0xFF PUSH1 0x40 PUSH1 0x0 KECCAK256 SLOAD AND ISZERO PUSH2 0xE38 JUMPI PUSH1 0x1 PUSH1 0x1 PUSH1 0xA0 SHL SUB PUSH2 0xC24 PUSH1 0x20 DUP6 ADD PUSH2 0x181D JUMP JUMPDEST AND ISZERO ISZERO DUP1 PUSH2 0xE2B JUMPI JUMPDEST PUSH2 0xD78 JUMPI JUMPDEST POP PUSH1 0x1 PUSH1 0x1 PUSH1 0xA0 SHL SUB PUSH2 0xC47 PUSH1 0x20 DUP5 ADD PUSH2 0x181D JUMP JUMPDEST AND PUSH2 0xD6F JUMPI PUSH1 0x0 DUP1 PUSH1 0x40 DUP5 ADD CALLDATALOAD JUMPDEST PUSH2 0xC61 PUSH1 0xA0 DUP7 ADD PUSH2 0x181D JUMP JUMPDEST SWAP1 PUSH2 0xC6F PUSH1 0xC0 DUP8 ADD DUP8 PUSH2 0x1886 JUMP JUMPDEST SWAP2 SWAP1 DUP3 PUSH1 0x40 MLOAD SWAP4 DUP5 SWAP3 DUP4 CALLDATACOPY DUP2 ADD DUP6 DUP2 MSTORE SUB SWAP3 GAS CALL PUSH2 0xC8B PUSH2 0x1D2E JUMP JUMPDEST POP ISZERO PUSH2 0xD5D JUMPI PUSH1 0x1 PUSH1 0x1 PUSH1 0xA0 SHL SUB PUSH2 0xCA5 PUSH1 0x20 DUP5 ADD PUSH2 0x181D JUMP JUMPDEST AND ISZERO ISZERO DUP1 PUSH2 0xD50 JUMPI JUMPDEST PUSH2 0xCC3 JUMPI JUMPDEST DUP1 DUP3 PUSH1 0x40 PUSH2 0x777 SWAP5 ADD CALLDATALOAD SWAP1 PUSH2 0x6DE JUMP JUMPDEST PUSH1 0x0 SWAP2 PUSH1 0x20 PUSH1 0x1 PUSH1 0x1 PUSH1 0xA0 SHL SUB PUSH2 0xCDB DUP3 DUP5 ADD PUSH2 0x181D JUMP JUMPDEST AND PUSH1 0x44 PUSH2 0xCEA PUSH1 0xA0 DUP6 ADD PUSH2 0x181D JUMP JUMPDEST PUSH1 0x40 MLOAD PUSH4 0x95EA7B3 PUSH1 0xE0 SHL DUP2 MSTORE PUSH1 0x1 PUSH1 0x1 PUSH1 0xA0 SHL SUB SWAP1 SWAP2 AND PUSH1 0x4 DUP3 ADD MSTORE PUSH1 0x24 DUP2 ADD DUP8 SWAP1 MSTORE SWAP6 DUP7 SWAP3 DUP4 SWAP2 SWAP1 GAS CALL SWAP1 DUP2 ISZERO PUSH2 0x999 JUMPI PUSH2 0x777 SWAP4 DUP4 SWAP3 PUSH2 0xD31 JUMPI JUMPDEST POP SWAP3 POP POP PUSH2 0xCB3 JUMP JUMPDEST PUSH2 0xD49 SWAP1 PUSH1 0x20 RETURNDATASIZE PUSH1 0x20 GT PUSH2 0xB13 JUMPI PUSH2 0xB04 DUP2 DUP4 PUSH2 0x15BB JUMP JUMPDEST POP DUP7 PUSH2 0xD28 JUMP JUMPDEST POP PUSH1 0x40 DUP3 ADD CALLDATALOAD ISZERO ISZERO PUSH2 0xCAE JUMP JUMPDEST PUSH1 0x40 MLOAD PUSH4 0x3204506F PUSH1 0xE0 SHL DUP2 MSTORE PUSH1 0x4 SWAP1 REVERT JUMPDEST PUSH1 0x0 DUP1 DUP1 PUSH2 0xC55 JUMP JUMPDEST PUSH2 0xDFD SWAP1 PUSH1 0x20 SWAP1 PUSH2 0xDA5 PUSH1 0x1 PUSH1 0x1 PUSH1 0xA0 SHL SUB PUSH2 0xD95 DUP8 DUP6 ADD PUSH2 0x181D JUMP JUMPDEST PUSH1 0x40 DUP9 ADD CALLDATALOAD SWAP4 DUP5 SWAP3 ADDRESS SWAP3 AND PUSH2 0x1D5E JUMP JUMPDEST PUSH1 0x1 PUSH1 0x1 PUSH1 0xA0 SHL SUB PUSH2 0xDB8 DUP7 DUP5 ADD PUSH2 0x181D JUMP JUMPDEST AND PUSH2 0xDC5 PUSH1 0xA0 DUP8 ADD PUSH2 0x181D JUMP JUMPDEST PUSH1 0x40 MLOAD PUSH4 0x95EA7B3 PUSH1 0xE0 SHL DUP2 MSTORE PUSH1 0x1 PUSH1 0x1 PUSH1 0xA0 SHL SUB SWAP1 SWAP2 AND PUSH1 0x4 DUP3 ADD MSTORE PUSH1 0x24 DUP2 ADD SWAP3 SWAP1 SWAP3 MSTORE SWAP1 SWAP3 DUP4 SWAP2 SWAP1 DUP3 SWAP1 PUSH1 0x0 SWAP1 DUP3 SWAP1 PUSH1 0x44 DUP3 ADD SWAP1 JUMP JUMPDEST SUB SWAP3 GAS CALL DUP1 ISZERO PUSH2 0x999 JUMPI ISZERO PUSH2 0xC32 JUMPI PUSH2 0xE24 SWAP1 PUSH1 0x20 RETURNDATASIZE PUSH1 0x20 GT PUSH2 0xB13 JUMPI PUSH2 0xB04 DUP2 DUP4 PUSH2 0x15BB JUMP JUMPDEST POP DUP5 PUSH2 0xC32 JUMP JUMPDEST POP PUSH1 0x40 DUP4 ADD CALLDATALOAD ISZERO ISZERO PUSH2 0xC2D JUMP JUMPDEST PUSH1 0x40 MLOAD PUSH4 0x1D0C405 PUSH1 0xE2 SHL DUP2 MSTORE PUSH1 0x4 SWAP1 REVERT JUMPDEST PUSH1 0x40 MLOAD PUSH4 0xEAD5619 PUSH1 0xE1 SHL DUP2 MSTORE PUSH1 0x4 SWAP1 REVERT JUMPDEST PUSH1 0x40 MLOAD PUSH4 0x8BAA579F PUSH1 0xE0 SHL DUP2 MSTORE PUSH1 0x4 SWAP1 REVERT JUMPDEST PUSH4 0x4E487B71 PUSH1 0xE0 SHL PUSH1 0x0 MSTORE PUSH1 0x41 PUSH1 0x4 MSTORE PUSH1 0x24 PUSH1 0x0 REVERT JUMPDEST PUSH1 0x40 MLOAD PUSH4 0xF285E411 PUSH1 0xE0 SHL DUP2 MSTORE PUSH1 0x4 SWAP1 REVERT JUMPDEST PUSH1 0x40 MLOAD PUSH4 0x222D7579 PUSH1 0xE0 SHL DUP2 MSTORE PUSH1 0x4 SWAP1 REVERT JUMPDEST POP PUSH1 0xA SLOAD DUP3 GT PUSH2 0x48F JUMP JUMPDEST PUSH1 0x40 MLOAD PUSH4 0x1BF48B35 PUSH1 0xE3 SHL DUP2 MSTORE PUSH1 0x4 SWAP1 REVERT JUMPDEST PUSH1 0x40 MLOAD PUSH4 0x3AB3447F PUSH1 0xE1 SHL DUP2 MSTORE PUSH1 0x4 SWAP1 REVERT JUMPDEST PUSH1 0x40 MLOAD PUSH4 0xF87D9271 PUSH1 0xE0 SHL DUP2 MSTORE PUSH1 0x4 SWAP1 REVERT JUMPDEST PUSH1 0x40 MLOAD PUSH4 0xF6FAE87 PUSH1 0xE0 SHL DUP2 MSTORE PUSH1 0x4 SWAP1 REVERT JUMPDEST PUSH1 0x40 MLOAD PUSH4 0xAB35696F PUSH1 0xE0 SHL DUP2 MSTORE PUSH1 0x4 SWAP1 REVERT JUMPDEST PUSH1 0x40 MLOAD PUSH4 0x3EE5AEB5 PUSH1 0xE0 SHL DUP2 MSTORE PUSH1 0x4 SWAP1 REVERT JUMPDEST CALLVALUE PUSH2 0x1B3 JUMPI PUSH1 0x0 CALLDATASIZE PUSH1 0x3 NOT ADD SLT PUSH2 0x1B3 JUMPI PUSH1 0x20 PUSH1 0x40 MLOAD PUSH1 0x0 DUP2 MSTORE RETURN JUMPDEST CALLVALUE PUSH2 0x1B3 JUMPI PUSH1 0x0 CALLDATASIZE PUSH1 0x3 NOT ADD SLT PUSH2 0x1B3 JUMPI PUSH1 0x20 PUSH1 0x40 MLOAD PUSH32 0x81AB27B097AAD1EEF8580946A56E7AE570E5C730DB01FE4BD50FD90603EFCBEE DUP2 MSTORE RETURN JUMPDEST CALLVALUE PUSH2 0x1B3 JUMPI PUSH1 0x0 CALLDATASIZE PUSH1 0x3 NOT ADD SLT PUSH2 0x1B3 JUMPI PUSH1 0x20 PUSH1 0x40 MLOAD PUSH32 0xD5BC7DC4FD209FF5394ABD09B6DA523CCFCB478FEB1AE9CE566F4A9A4E801333 DUP2 MSTORE RETURN JUMPDEST CALLVALUE PUSH2 0x1B3 JUMPI PUSH1 0x40 CALLDATASIZE PUSH1 0x3 NOT ADD SLT PUSH2 0x1B3 JUMPI PUSH2 0xFCA PUSH2 0x14DF JUMP JUMPDEST PUSH32 0x23B563B53629727DE17C5CEC4B391A63440584FDAF0D888A95BBC671DA2C62E1 PUSH1 0x20 PUSH2 0xFF5 PUSH2 0x14F5 JUMP JUMPDEST SWAP3 PUSH2 0xFFE PUSH2 0x1574 JUMP JUMPDEST PUSH1 0x1 PUSH1 0x1 PUSH1 0xA0 SHL SUB AND PUSH1 0x0 DUP2 DUP2 MSTORE PUSH1 0x6 DUP4 MSTORE PUSH1 0x40 SWAP1 KECCAK256 DUP1 SLOAD PUSH1 0xFF NOT AND PUSH1 0xFF DUP7 ISZERO ISZERO AND OR SWAP1 SSTORE SWAP3 JUMPDEST PUSH1 0x40 MLOAD SWAP1 ISZERO ISZERO DUP2 MSTORE LOG2 STOP JUMPDEST CALLVALUE PUSH2 0x1B3 JUMPI PUSH1 0x0 CALLDATASIZE PUSH1 0x3 NOT ADD SLT PUSH2 0x1B3 JUMPI PUSH1 0x2 SLOAD PUSH1 0x40 MLOAD PUSH1 0x1 PUSH1 0x1 PUSH1 0xA0 SHL SUB SWAP1 SWAP2 AND DUP2 MSTORE PUSH1 0x20 SWAP1 RETURN JUMPDEST CALLVALUE PUSH2 0x1B3 JUMPI PUSH1 0x20 CALLDATASIZE PUSH1 0x3 NOT ADD SLT PUSH2 0x1B3 JUMPI PUSH32 0x3D2D1920864A5DF2185330733A5A35A1CBAD9509896209AB89A232E79C2F869A PUSH1 0x20 PUSH1 0x4 CALLDATALOAD PUSH2 0x1098 PUSH2 0x1574 JUMP JUMPDEST DUP1 PUSH1 0xA SSTORE PUSH1 0x40 MLOAD SWAP1 DUP2 MSTORE LOG1 STOP JUMPDEST CALLVALUE PUSH2 0x1B3 JUMPI PUSH1 0x0 CALLDATASIZE PUSH1 0x3 NOT ADD SLT PUSH2 0x1B3 JUMPI PUSH2 0x10DF PUSH32 0x0 PUSH2 0x15F3 JUMP JUMPDEST PUSH2 0x1108 PUSH32 0x0 PUSH2 0x1719 JUMP JUMPDEST PUSH1 0x40 MLOAD PUSH1 0x20 DUP1 DUP3 ADD SWAP3 DUP3 DUP5 LT PUSH1 0x1 PUSH1 0x1 PUSH1 0x40 SHL SUB DUP6 GT OR PUSH2 0xE6E JUMPI SWAP2 DUP2 PUSH2 0x1161 DUP6 SWAP5 PUSH2 0x1153 SWAP8 SWAP7 PUSH1 0x40 MSTORE PUSH1 0x0 DUP5 MSTORE PUSH1 0x40 MLOAD SWAP8 DUP9 SWAP8 PUSH1 0xF PUSH1 0xF8 SHL DUP10 MSTORE PUSH1 0xE0 DUP6 DUP11 ADD MSTORE PUSH1 0xE0 DUP10 ADD SWAP1 PUSH2 0x1534 JUMP JUMPDEST SWAP1 DUP8 DUP3 SUB PUSH1 0x40 DUP10 ADD MSTORE PUSH2 0x1534 JUMP JUMPDEST SWAP2 CHAINID PUSH1 0x60 DUP8 ADD MSTORE ADDRESS PUSH1 0x80 DUP8 ADD MSTORE PUSH1 0x0 PUSH1 0xA0 DUP8 ADD MSTORE DUP6 DUP4 SUB PUSH1 0xC0 DUP8 ADD MSTORE MLOAD SWAP2 DUP3 DUP2 MSTORE ADD SWAP3 SWAP2 PUSH1 0x0 JUMPDEST DUP3 DUP2 LT PUSH2 0x1197 JUMPI POP POP POP POP SUB SWAP1 RETURN JUMPDEST DUP4 MLOAD DUP6 MSTORE DUP7 SWAP6 POP SWAP4 DUP2 ADD SWAP4 SWAP3 DUP2 ADD SWAP3 PUSH1 0x1 ADD PUSH2 0x1188 JUMP JUMPDEST CALLVALUE PUSH2 0x1B3 JUMPI PUSH1 0x20 CALLDATASIZE PUSH1 0x3 NOT ADD SLT PUSH2 0x1B3 JUMPI PUSH1 0x4 CALLDATALOAD PUSH1 0x1 PUSH1 0x1 PUSH1 0x40 SHL SUB DUP2 GT PUSH2 0x1B3 JUMPI PUSH2 0x1EF PUSH2 0x11E3 PUSH1 0x20 SWAP3 CALLDATASIZE SWAP1 PUSH1 0x4 ADD PUSH2 0x1504 JUMP JUMPDEST SWAP1 PUSH2 0x18EF JUMP JUMPDEST CALLVALUE PUSH2 0x1B3 JUMPI PUSH1 0x20 CALLDATASIZE PUSH1 0x3 NOT ADD SLT PUSH2 0x1B3 JUMPI PUSH1 0x1 PUSH1 0x1 PUSH1 0xA0 SHL SUB PUSH2 0x120A PUSH2 0x14DF JUMP JUMPDEST AND PUSH1 0x0 MSTORE PUSH1 0x4 PUSH1 0x20 MSTORE PUSH1 0x20 PUSH1 0x40 PUSH1 0x0 KECCAK256 SLOAD PUSH1 0x40 MLOAD SWAP1 DUP2 MSTORE RETURN JUMPDEST CALLVALUE PUSH2 0x1B3 JUMPI PUSH1 0x40 CALLDATASIZE PUSH1 0x3 NOT ADD SLT PUSH2 0x1B3 JUMPI PUSH2 0x123C PUSH2 0x14DF JUMP JUMPDEST PUSH32 0xCF2B36BF2AA8353623D06F58EAB9577176D9214E588362C013A7EEB0586463F1 PUSH1 0x20 PUSH2 0x1267 PUSH2 0x14F5 JUMP JUMPDEST SWAP3 PUSH2 0x1270 PUSH2 0x1574 JUMP JUMPDEST PUSH1 0x1 PUSH1 0x1 PUSH1 0xA0 SHL SUB AND PUSH1 0x0 DUP2 DUP2 MSTORE PUSH1 0x7 DUP4 MSTORE PUSH1 0x40 SWAP1 KECCAK256 DUP1 SLOAD PUSH1 0xFF NOT AND PUSH1 0xFF DUP7 ISZERO ISZERO AND OR SWAP1 SSTORE SWAP3 PUSH2 0x1025 JUMP JUMPDEST CALLVALUE PUSH2 0x1B3 JUMPI PUSH1 0x0 CALLDATASIZE PUSH1 0x3 NOT ADD SLT PUSH2 0x1B3 JUMPI PUSH2 0x12B4 PUSH2 0x1574 JUMP JUMPDEST PUSH1 0x2 DUP1 SLOAD PUSH1 0x1 PUSH1 0x1 PUSH1 0xA0 SHL SUB NOT DUP2 AND SWAP1 SWAP2 SSTORE PUSH1 0x0 SWAP1 PUSH1 0x1 PUSH1 0x1 PUSH1 0xA0 SHL SUB AND PUSH32 0x8BE0079C531659141344CD1FD0A4F28419497F9722A3DAAFE3B4186F6B6457E0 DUP3 DUP1 LOG3 STOP JUMPDEST CALLVALUE PUSH2 0x1B3 JUMPI PUSH1 0x20 CALLDATASIZE PUSH1 0x3 NOT ADD SLT PUSH2 0x1B3 JUMPI PUSH1 0x4 CALLDATALOAD PUSH1 0x0 MSTORE PUSH1 0x5 PUSH1 0x20 MSTORE PUSH1 0x20 PUSH1 0xFF PUSH1 0x40 PUSH1 0x0 KECCAK256 SLOAD AND PUSH1 0x40 MLOAD SWAP1 ISZERO ISZERO DUP2 MSTORE RETURN JUMPDEST CALLVALUE PUSH2 0x1B3 JUMPI PUSH1 0x0 CALLDATASIZE PUSH1 0x3 NOT ADD SLT PUSH2 0x1B3 JUMPI PUSH1 0x20 PUSH1 0xFF PUSH1 0x9 SLOAD AND PUSH1 0x40 MLOAD SWAP1 ISZERO ISZERO DUP2 MSTORE RETURN JUMPDEST CALLVALUE PUSH2 0x1B3 JUMPI PUSH1 0x20 CALLDATASIZE PUSH1 0x3 NOT ADD SLT PUSH2 0x1B3 JUMPI PUSH1 0x1 PUSH1 0x1 PUSH1 0xA0 SHL SUB PUSH2 0x136D PUSH2 0x14DF JUMP JUMPDEST AND PUSH1 0x0 MSTORE PUSH1 0x6 PUSH1 0x20 MSTORE PUSH1 0x20 PUSH1 0xFF PUSH1 0x40 PUSH1 0x0 KECCAK256 SLOAD AND PUSH1 0x40 MLOAD SWAP1 ISZERO ISZERO DUP2 MSTORE RETURN JUMPDEST CALLVALUE PUSH2 0x1B3 JUMPI PUSH1 0x20 CALLDATASIZE PUSH1 0x3 NOT ADD SLT PUSH2 0x1B3 JUMPI PUSH1 0x4 CALLDATALOAD DUP1 ISZERO ISZERO DUP1 SWAP2 SUB PUSH2 0x1B3 JUMPI PUSH1 0x20 PUSH32 0x9E3A5E37224532DEA67B89FACE185703738A228A6E8A23DEE546960180D3BE64 SWAP2 PUSH2 0x13D5 PUSH2 0x1574 JUMP JUMPDEST PUSH1 0xFF NOT PUSH1 0x9 SLOAD AND PUSH1 0xFF DUP3 AND OR PUSH1 0x9 SSTORE PUSH1 0x40 MLOAD SWAP1 DUP2 MSTORE LOG1 STOP JUMPDEST CALLVALUE PUSH2 0x1B3 JUMPI PUSH1 0x40 CALLDATASIZE PUSH1 0x3 NOT ADD SLT PUSH2 0x1B3 JUMPI PUSH2 0x1406 PUSH2 0x14DF JUMP JUMPDEST PUSH32 0xF6C76EEB7C8FF50AE11742B7C9C659668FD5450291AA2E196914E251B7786ABE PUSH1 0x20 PUSH2 0x1431 PUSH2 0x14F5 JUMP JUMPDEST SWAP3 PUSH2 0x143A PUSH2 0x1574 JUMP JUMPDEST PUSH1 0x1 PUSH1 0x1 PUSH1 0xA0 SHL SUB AND PUSH1 0x0 DUP2 DUP2 MSTORE PUSH1 0x8 DUP4 MSTORE PUSH1 0x40 SWAP1 KECCAK256 DUP1 SLOAD PUSH1 0xFF NOT AND PUSH1 0xFF DUP7 ISZERO ISZERO AND OR SWAP1 SSTORE SWAP3 PUSH2 0x1025 JUMP JUMPDEST CALLVALUE PUSH2 0x1B3 JUMPI PUSH1 0x20 CALLDATASIZE PUSH1 0x3 NOT ADD SLT PUSH2 0x1B3 JUMPI PUSH1 0x1 PUSH1 0x1 PUSH1 0xA0 SHL SUB PUSH2 0x1486 PUSH2 0x14DF JUMP JUMPDEST AND PUSH1 0x0 MSTORE PUSH1 0x7 PUSH1 0x20 MSTORE PUSH1 0x20 PUSH1 0xFF PUSH1 0x40 PUSH1 0x0 KECCAK256 SLOAD AND PUSH1 0x40 MLOAD SWAP1 ISZERO ISZERO DUP2 MSTORE RETURN JUMPDEST CALLVALUE PUSH2 0x1B3 JUMPI PUSH1 0x20 CALLDATASIZE PUSH1 0x3 NOT ADD SLT PUSH2 0x1B3 JUMPI PUSH1 0x20 SWAP1 PUSH1 0x1 PUSH1 0x1 PUSH1 0xA0 SHL SUB PUSH2 0x14C8 PUSH2 0x14DF JUMP JUMPDEST AND PUSH1 0x0 MSTORE PUSH1 0x7 DUP3 MSTORE PUSH1 0xFF PUSH1 0x40 PUSH1 0x0 KECCAK256 SLOAD AND ISZERO ISZERO DUP2 MSTORE RETURN JUMPDEST PUSH1 0x4 CALLDATALOAD SWAP1 PUSH1 0x1 PUSH1 0x1 PUSH1 0xA0 SHL SUB DUP3 AND DUP3 SUB PUSH2 0x1B3 JUMPI JUMP JUMPDEST PUSH1 0x24 CALLDATALOAD SWAP1 DUP2 ISZERO ISZERO DUP3 SUB PUSH2 0x1B3 JUMPI JUMP JUMPDEST SWAP2 DUP2 PUSH1 0x1F DUP5 ADD SLT ISZERO PUSH2 0x1B3 JUMPI DUP3 CALLDATALOAD SWAP2 PUSH1 0x1 PUSH1 0x1 PUSH1 0x40 SHL SUB DUP4 GT PUSH2 0x1B3 JUMPI PUSH1 0x20 DUP1 DUP6 ADD SWAP5 DUP5 PUSH1 0x5 SHL ADD ADD GT PUSH2 0x1B3 JUMPI JUMP JUMPDEST SWAP2 SWAP1 DUP3 MLOAD SWAP3 DUP4 DUP3 MSTORE PUSH1 0x0 JUMPDEST DUP5 DUP2 LT PUSH2 0x1560 JUMPI POP POP DUP3 PUSH1 0x0 PUSH1 0x20 DUP1 SWAP5 SWAP6 DUP5 ADD ADD MSTORE PUSH1 0x1F DUP1 NOT SWAP2 ADD AND ADD ADD SWAP1 JUMP JUMPDEST PUSH1 0x20 DUP2 DUP4 ADD DUP2 ADD MLOAD DUP5 DUP4 ADD DUP3 ADD MSTORE ADD PUSH2 0x153F JUMP JUMPDEST PUSH1 0x2 SLOAD PUSH1 0x1 PUSH1 0x1 PUSH1 0xA0 SHL SUB AND CALLER SUB PUSH2 0x1588 JUMPI JUMP JUMPDEST PUSH1 0x40 MLOAD PUSH4 0x118CDAA7 PUSH1 0xE0 SHL DUP2 MSTORE CALLER PUSH1 0x4 DUP3 ADD MSTORE PUSH1 0x24 SWAP1 REVERT JUMPDEST PUSH1 0x40 DUP2 ADD SWAP1 DUP2 LT PUSH1 0x1 PUSH1 0x1 PUSH1 0x40 SHL SUB DUP3 GT OR PUSH2 0xE6E JUMPI PUSH1 0x40 MSTORE JUMP JUMPDEST SWAP1 PUSH1 0x1F DUP1 NOT SWAP2 ADD AND DUP2 ADD SWAP1 DUP2 LT PUSH1 0x1 PUSH1 0x1 PUSH1 0x40 SHL SUB DUP3 GT OR PUSH2 0xE6E JUMPI PUSH1 0x40 MSTORE JUMP JUMPDEST PUSH1 0x1 PUSH1 0x1 PUSH1 0x40 SHL SUB DUP2 GT PUSH2 0xE6E JUMPI PUSH1 0x5 SHL PUSH1 0x20 ADD SWAP1 JUMP JUMPDEST PUSH1 0xFF DUP2 EQ PUSH2 0x1631 JUMPI PUSH1 0xFF DUP2 AND SWAP1 PUSH1 0x1F DUP3 GT PUSH2 0x161F JUMPI PUSH1 0x40 MLOAD SWAP2 PUSH2 0x1615 DUP4 PUSH2 0x15A0 JUMP JUMPDEST DUP3 MSTORE PUSH1 0x20 DUP3 ADD MSTORE SWAP1 JUMP JUMPDEST PUSH1 0x40 MLOAD PUSH4 0x2CD44AC3 PUSH1 0xE2 SHL DUP2 MSTORE PUSH1 0x4 SWAP1 REVERT JUMPDEST POP PUSH1 0x40 MLOAD PUSH1 0x0 DUP1 SLOAD SWAP1 PUSH1 0x1 DUP3 DUP2 SHR SWAP1 DUP1 DUP5 AND SWAP4 DUP5 ISZERO PUSH2 0x170F JUMPI JUMPDEST PUSH1 0x20 SWAP5 DUP6 DUP5 LT DUP2 EQ PUSH2 0x16FB JUMPI DUP4 DUP8 MSTORE DUP7 SWAP5 SWAP4 SWAP3 SWAP2 DUP2 ISZERO PUSH2 0x16DB JUMPI POP PUSH1 0x1 EQ PUSH2 0x167F JUMPI JUMPDEST POP POP PUSH2 0x167C SWAP3 POP SUB DUP3 PUSH2 0x15BB JUMP JUMPDEST SWAP1 JUMP JUMPDEST PUSH1 0x0 DUP1 DUP1 MSTORE PUSH32 0x290DECD9548B62A8D60345A988386FC84BA6BC95484008F6362F93160EF3E563 SWAP6 SWAP4 POP SWAP2 SWAP1 JUMPDEST DUP2 DUP4 LT PUSH2 0x16C3 JUMPI POP POP PUSH2 0x167C SWAP4 POP DUP3 ADD ADD CODESIZE DUP1 PUSH2 0x166E JUMP JUMPDEST DUP6 SLOAD DUP8 DUP5 ADD DUP6 ADD MSTORE SWAP5 DUP6 ADD SWAP5 DUP7 SWAP5 POP SWAP2 DUP4 ADD SWAP2 PUSH2 0x16AB JUMP JUMPDEST SWAP2 POP POP PUSH2 0x167C SWAP5 SWAP3 POP PUSH1 0xFF NOT AND DUP3 DUP5 ADD MSTORE ISZERO ISZERO PUSH1 0x5 SHL DUP3 ADD ADD CODESIZE DUP1 PUSH2 0x166E JUMP JUMPDEST PUSH4 0x4E487B71 PUSH1 0xE0 SHL DUP6 MSTORE PUSH1 0x22 PUSH1 0x4 MSTORE PUSH1 0x24 DUP6 REVERT JUMPDEST SWAP2 PUSH1 0x7F AND SWAP2 PUSH2 0x164B JUMP JUMPDEST PUSH1 0xFF DUP2 EQ PUSH2 0x173B JUMPI PUSH1 0xFF DUP2 AND SWAP1 PUSH1 0x1F DUP3 GT PUSH2 0x161F JUMPI PUSH1 0x40 MLOAD SWAP2 PUSH2 0x1615 DUP4 PUSH2 0x15A0 JUMP JUMPDEST POP PUSH1 0x40 MLOAD PUSH1 0x0 PUSH1 0x1 SWAP1 DUP2 SLOAD SWAP2 DUP3 DUP2 SHR SWAP1 DUP1 DUP5 AND SWAP4 DUP5 ISZERO PUSH2 0x17E2 JUMPI JUMPDEST PUSH1 0x20 SWAP5 DUP6 DUP5 LT DUP2 EQ PUSH2 0x16FB JUMPI DUP4 DUP8 MSTORE DUP7 SWAP5 SWAP4 SWAP3 SWAP2 DUP2 ISZERO PUSH2 0x16DB JUMPI POP PUSH1 0x1 EQ PUSH2 0x1786 JUMPI POP POP PUSH2 0x167C SWAP3 POP SUB DUP3 PUSH2 0x15BB JUMP JUMPDEST PUSH1 0x0 DUP2 DUP2 MSTORE PUSH32 0xB10E2D527612073B26EECDFD717E6A320CF44B4AFAC2B0732D9FCBE2B7FA0CF6 SWAP6 SWAP4 POP SWAP2 SWAP1 JUMPDEST DUP2 DUP4 LT PUSH2 0x17CA JUMPI POP POP PUSH2 0x167C SWAP4 POP DUP3 ADD ADD CODESIZE DUP1 PUSH2 0x166E JUMP JUMPDEST DUP6 SLOAD DUP8 DUP5 ADD DUP6 ADD MSTORE SWAP5 DUP6 ADD SWAP5 DUP7 SWAP5 POP SWAP2 DUP4 ADD SWAP2 PUSH2 0x17B2 JUMP JUMPDEST SWAP2 PUSH1 0x7F AND SWAP2 PUSH2 0x1756 JUMP JUMPDEST PUSH1 0x1 PUSH1 0x1 PUSH1 0x40 SHL SUB DUP2 GT PUSH2 0xE6E JUMPI PUSH1 0x1F ADD PUSH1 0x1F NOT AND PUSH1 0x20 ADD SWAP1 JUMP JUMPDEST PUSH1 0x4 CALLDATALOAD PUSH1 0x1 PUSH1 0x1 PUSH1 0xA0 SHL SUB DUP2 AND DUP2 SUB PUSH2 0x1B3 JUMPI SWAP1 JUMP JUMPDEST CALLDATALOAD PUSH1 0x1 PUSH1 0x1 PUSH1 0xA0 SHL SUB DUP2 AND DUP2 SUB PUSH2 0x1B3 JUMPI SWAP1 JUMP JUMPDEST PUSH1 0x0 NOT DUP2 EQ PUSH2 0x8FE JUMPI PUSH1 0x1 ADD SWAP1 JUMP JUMPDEST SWAP2 SWAP1 DUP2 LT ISZERO PUSH2 0x1862 JUMPI PUSH1 0x5 SHL DUP2 ADD CALLDATALOAD SWAP1 PUSH1 0xDE NOT DUP2 CALLDATASIZE SUB ADD DUP3 SLT ISZERO PUSH2 0x1B3 JUMPI ADD SWAP1 JUMP JUMPDEST PUSH4 0x4E487B71 PUSH1 0xE0 SHL PUSH1 0x0 MSTORE PUSH1 0x32 PUSH1 0x4 MSTORE PUSH1 0x24 PUSH1 0x0 REVERT JUMPDEST CALLDATALOAD PUSH1 0xFF DUP2 AND DUP2 SUB PUSH2 0x1B3 JUMPI SWAP1 JUMP JUMPDEST SWAP1 CALLDATALOAD SWAP1 PUSH1 0x1E NOT DUP2 CALLDATASIZE SUB ADD DUP3 SLT ISZERO PUSH2 0x1B3 JUMPI ADD DUP1 CALLDATALOAD SWAP1 PUSH1 0x1 PUSH1 0x1 PUSH1 0x40 SHL SUB DUP3 GT PUSH2 0x1B3 JUMPI PUSH1 0x20 ADD SWAP2 DUP2 CALLDATASIZE SUB DUP4 SGT PUSH2 0x1B3 JUMPI JUMP JUMPDEST SWAP3 SWAP2 SWAP3 PUSH2 0x18C4 DUP3 PUSH2 0x17EC JUMP JUMPDEST SWAP2 PUSH2 0x18D2 PUSH1 0x40 MLOAD SWAP4 DUP5 PUSH2 0x15BB JUMP JUMPDEST DUP3 SWAP5 DUP2 DUP5 MSTORE DUP2 DUP4 ADD GT PUSH2 0x1B3 JUMPI DUP3 DUP2 PUSH1 0x20 SWAP4 DUP5 PUSH1 0x0 SWAP7 ADD CALLDATACOPY ADD ADD MSTORE JUMP JUMPDEST SWAP1 PUSH2 0x18F9 DUP2 PUSH2 0x15DC JUMP JUMPDEST SWAP2 PUSH1 0x40 PUSH2 0x1908 DUP2 MLOAD SWAP5 DUP6 PUSH2 0x15BB JUMP JUMPDEST DUP3 DUP5 MSTORE PUSH2 0x1914 DUP4 PUSH2 0x15DC JUMP JUMPDEST PUSH1 0x20 SWAP4 DUP6 DUP6 ADD SWAP4 PUSH1 0x1F NOT SWAP4 SWAP3 DUP5 ADD CALLDATASIZE DUP7 CALLDATACOPY PUSH1 0x0 JUMPDEST DUP3 DUP2 LT PUSH2 0x1979 JUMPI POP POP POP MLOAD DUP4 DUP2 SWAP5 DUP3 ADD DUP1 SWAP7 MLOAD SWAP1 SWAP5 SWAP2 PUSH1 0x0 JUMPDEST DUP3 DUP2 LT PUSH2 0x1962 JUMPI POP POP POP POP PUSH2 0x195C SWAP3 SUB SWAP1 DUP2 ADD DUP4 MSTORE DUP3 PUSH2 0x15BB JUMP JUMPDEST MLOAD SWAP1 KECCAK256 SWAP1 JUMP JUMPDEST DUP4 MLOAD DUP8 MSTORE SWAP6 DUP2 ADD SWAP6 DUP8 SWAP5 POP SWAP3 DUP2 ADD SWAP3 PUSH1 0x1 ADD PUSH2 0x1941 JUMP JUMPDEST PUSH32 0xD5BC7DC4FD209FF5394ABD09B6DA523CCFCB478FEB1AE9CE566F4A9A4E801333 DUP8 PUSH2 0x19B1 PUSH2 0x19AC DUP5 DUP8 DUP8 SWAP12 SWAP11 SWAP12 PUSH2 0x1840 JUMP JUMPDEST PUSH2 0x1878 JUMP JUMPDEST PUSH2 0x19C6 DUP3 PUSH2 0x19C0 DUP7 DUP10 DUP10 PUSH2 0x1840 JUMP JUMPDEST ADD PUSH2 0x181D JUMP JUMPDEST DUP6 DUP9 PUSH2 0x19D3 DUP8 DUP11 DUP5 PUSH2 0x1840 JUMP JUMPDEST ADD CALLDATALOAD DUP10 DUP10 PUSH1 0x60 SWAP5 PUSH2 0x19E9 DUP7 PUSH2 0x19C0 DUP13 DUP6 DUP10 PUSH2 0x1840 JUMP JUMPDEST PUSH1 0x80 SWAP5 DUP6 PUSH2 0x19F8 DUP14 DUP7 DUP11 PUSH2 0x1840 JUMP JUMPDEST ADD CALLDATALOAD SWAP6 PUSH2 0x1A18 DUP14 DUP7 PUSH2 0x1A12 DUP12 PUSH2 0x19C0 DUP5 PUSH1 0xA0 SWAP12 DUP13 SWAP4 PUSH2 0x1840 JUMP JUMPDEST SWAP11 PUSH2 0x1840 JUMP JUMPDEST SWAP6 PUSH1 0xFF PUSH2 0x1A34 PUSH2 0x1A2D PUSH1 0xC0 SWAP10 DUP11 DUP2 ADD SWAP1 PUSH2 0x1886 JUMP JUMPDEST CALLDATASIZE SWAP2 PUSH2 0x18B8 JUMP JUMPDEST DUP14 DUP2 MLOAD SWAP2 ADD KECCAK256 SWAP12 DUP3 MLOAD SWAP14 DUP15 ADD SWAP15 DUP16 MSTORE AND SWAP1 DUP13 ADD MSTORE PUSH1 0x1 DUP1 PUSH1 0xA0 SHL SUB SWAP9 DUP10 DUP1 SWAP6 AND SWAP1 DUP13 ADD MSTORE DUP11 ADD MSTORE AND SWAP1 DUP8 ADD MSTORE DUP6 ADD MSTORE AND PUSH1 0xE0 DUP4 ADD MSTORE PUSH2 0x100 SWAP1 DUP2 DUP4 ADD MSTORE DUP2 MSTORE PUSH2 0x120 DUP2 ADD DUP2 DUP2 LT PUSH1 0x1 PUSH1 0x1 PUSH1 0x40 SHL SUB DUP3 GT OR PUSH2 0xE6E JUMPI DUP7 MSTORE MLOAD SWAP1 KECCAK256 SWAP1 DUP9 MLOAD DUP2 LT ISZERO PUSH2 0x1862 JUMPI PUSH2 0x1AAB SWAP2 DUP9 DUP3 PUSH1 0x5 SHL DUP12 ADD ADD MSTORE PUSH2 0x1831 JUMP JUMPDEST SWAP5 SWAP4 SWAP5 PUSH2 0x1928 JUMP JUMPDEST DUP2 MLOAD SWAP2 SWAP1 PUSH1 0x41 DUP4 SUB PUSH2 0x1AE4 JUMPI PUSH2 0x1ADD SWAP3 POP PUSH1 0x20 DUP3 ADD MLOAD SWAP1 PUSH1 0x60 PUSH1 0x40 DUP5 ADD MLOAD SWAP4 ADD MLOAD PUSH1 0x0 BYTE SWAP1 PUSH2 0x1AEF JUMP JUMPDEST SWAP2 SWAP3 SWAP1 SWAP2 SWAP1 JUMP JUMPDEST POP POP PUSH1 0x0 SWAP2 PUSH1 0x2 SWAP2 SWAP1 JUMP JUMPDEST SWAP2 SWAP1 PUSH32 0x7FFFFFFFFFFFFFFFFFFFFFFFFFFFFFFF5D576E7357A4501DDFE92F46681B20A0 DUP5 GT PUSH2 0x1B73 JUMPI SWAP3 PUSH1 0x20 SWAP3 SWAP2 PUSH1 0xFF PUSH1 0x80 SWAP6 PUSH1 0x40 MLOAD SWAP5 DUP6 MSTORE AND DUP5 DUP5 ADD MSTORE PUSH1 0x40 DUP4 ADD MSTORE PUSH1 0x60 DUP3 ADD MSTORE PUSH1 0x0 SWAP3 DUP4 SWAP2 DUP3 DUP1 MSTORE PUSH1 0x1 GAS STATICCALL ISZERO PUSH2 0x1B67 JUMPI DUP1 MLOAD PUSH1 0x1 PUSH1 0x1 PUSH1 0xA0 SHL SUB DUP2 AND ISZERO PUSH2 0x1B5E JUMPI SWAP2 DUP2 SWAP1 JUMP JUMPDEST POP DUP1 SWAP2 PUSH1 0x1 SWAP2 SWAP1 JUMP JUMPDEST PUSH1 0x40 MLOAD SWAP1 RETURNDATASIZE SWAP1 DUP3 RETURNDATACOPY RETURNDATASIZE SWAP1 REVERT JUMPDEST POP POP POP PUSH1 0x0 SWAP2 PUSH1 0x3 SWAP2 SWAP1 JUMP JUMPDEST PUSH1 0x4 DUP2 LT ISZERO PUSH2 0x1BEE JUMPI DUP1 PUSH2 0x1B91 JUMPI POP POP JUMP JUMPDEST PUSH1 0x1 DUP2 SUB PUSH2 0x1BAB JUMPI PUSH1 0x40 MLOAD PUSH4 0xF645EEDF PUSH1 0xE0 SHL DUP2 MSTORE PUSH1 0x4 SWAP1 REVERT JUMPDEST PUSH1 0x2 DUP2 SUB PUSH2 0x1BCC JUMPI PUSH1 0x40 MLOAD PUSH4 0xFCE698F7 PUSH1 0xE0 SHL DUP2 MSTORE PUSH1 0x4 DUP2 ADD DUP4 SWAP1 MSTORE PUSH1 0x24 SWAP1 REVERT JUMPDEST PUSH1 0x3 EQ PUSH2 0x1BD6 JUMPI POP JUMP JUMPDEST PUSH1 0x24 SWAP1 PUSH1 0x40 MLOAD SWAP1 PUSH4 0x35E2F383 PUSH1 0xE2 SHL DUP3 MSTORE PUSH1 0x4 DUP3 ADD MSTORE REVERT JUMPDEST PUSH4 0x4E487B71 PUSH1 0xE0 SHL PUSH1 0x0 MSTORE PUSH1 0x21 PUSH1 0x4 MSTORE PUSH1 0x24 PUSH1 0x0 REVERT JUMPDEST ADDRESS PUSH32 0x0 PUSH1 0x1 PUSH1 0x1 PUSH1 0xA0 SHL SUB AND EQ DUP1 PUSH2 0x1D05 JUMPI JUMPDEST ISZERO PUSH2 0x1C5F JUMPI PUSH32 0x0 SWAP1 JUMP JUMPDEST PUSH1 0x40 MLOAD PUSH1 0x20 DUP2 ADD SWAP1 PUSH32 0x8B73C3C69BB8FE3D512ECC4CF759CC79239F7B179B0FFACAA9A75D522B39400F DUP3 MSTORE PUSH32 0x0 PUSH1 0x40 DUP3 ADD MSTORE PUSH32 0x0 PUSH1 0x60 DUP3 ADD MSTORE CHAINID PUSH1 0x80 DUP3 ADD MSTORE ADDRESS PUSH1 0xA0 DUP3 ADD MSTORE PUSH1 0xA0 DUP2 MSTORE PUSH1 0xC0 DUP2 ADD DUP2 DUP2 LT PUSH1 0x1 PUSH1 0x1 PUSH1 0x40 SHL SUB DUP3 GT OR PUSH2 0xE6E JUMPI PUSH1 0x40 MSTORE MLOAD SWAP1 KECCAK256 SWAP1 JUMP JUMPDEST POP PUSH32 0x0 CHAINID EQ PUSH2 0x1C36 JUMP JUMPDEST RETURNDATASIZE ISZERO PUSH2 0x1D59 JUMPI RETURNDATASIZE SWAP1 PUSH2 0x1D3F DUP3 PUSH2 0x17EC JUMP JUMPDEST SWAP2 PUSH2 0x1D4D PUSH1 0x40 MLOAD SWAP4 DUP5 PUSH2 0x15BB JUMP JUMPDEST DUP3 MSTORE RETURNDATASIZE PUSH1 0x0 PUSH1 0x20 DUP5 ADD RETURNDATACOPY JUMP JUMPDEST PUSH1 0x60 SWAP1 JUMP JUMPDEST PUSH1 0x40 MLOAD PUSH4 0x23B872DD PUSH1 0xE0 SHL PUSH1 0x20 DUP3 ADD MSTORE PUSH1 0x1 PUSH1 0x1 PUSH1 0xA0 SHL SUB SWAP3 DUP4 AND PUSH1 0x24 DUP3 ADD MSTORE SWAP3 SWAP1 SWAP2 AND PUSH1 0x44 DUP4 ADD MSTORE PUSH1 0x64 DUP1 DUP4 ADD SWAP4 SWAP1 SWAP4 MSTORE SWAP2 DUP2 MSTORE PUSH1 0xA0 DUP2 ADD SWAP2 DUP2 DUP4 LT PUSH1 0x1 PUSH1 0x1 PUSH1 0x40 SHL SUB DUP5 GT OR PUSH2 0xE6E JUMPI PUSH2 0x1DB6 SWAP3 PUSH1 0x40 MSTORE PUSH2 0x1DB8 JUMP JUMPDEST JUMP JUMPDEST SWAP1 PUSH1 0x0 PUSH1 0x20 SWAP2 DUP3 DUP2 MLOAD SWAP2 ADD DUP3 DUP6 GAS CALL ISZERO PUSH2 0x999 JUMPI PUSH1 0x0 MLOAD RETURNDATASIZE PUSH2 0x1E0B JUMPI POP PUSH1 0x1 PUSH1 0x1 PUSH1 0xA0 SHL SUB DUP2 AND EXTCODESIZE ISZERO JUMPDEST PUSH2 0x1DE9 JUMPI POP JUMP JUMPDEST PUSH1 0x40 MLOAD PUSH4 0x5274AFE7 PUSH1 0xE0 SHL DUP2 MSTORE PUSH1 0x1 PUSH1 0x1 PUSH1 0xA0 SHL SUB SWAP1 SWAP2 AND PUSH1 0x4 DUP3 ADD MSTORE PUSH1 0x24 SWAP1 REVERT JUMPDEST PUSH1 0x1 EQ ISZERO PUSH2 0x1DE2 JUMP JUMPDEST SWAP1 DUP2 PUSH1 0x20 SWAP2 SUB SLT PUSH2 0x1B3 JUMPI MLOAD DUP1 ISZERO ISZERO DUP2 SUB PUSH2 0x1B3 JUMPI SWAP1 JUMP INVALID LOG2 PUSH5 0x6970667358 0x22 SLT KECCAK256 PUSH29 0xE3754606351E32BE838114785C1C9F64458F1C0F964221041E756262B5 DUP13 0xD3 PUSH5 0x736F6C6343 STOP ADDMOD EQ STOP CALLER "},"methodIdentifiers":{"BATCH_WITNESS_TYPEHASH()":"a4e96bbb","OPERATION_TYPEHASH()":"93aaa146","OP_CALL()":"f7994213","OP_SWAP()":"ec7bbbbf","OP_TRANSFER()":"a9adfc2a","computeOperationsHash((uint8,address,uint256,address,uint256,address,bytes)[])":"828d6e8d","domainSeparator()":"f698da25","eip712Domain()":"84b0196e","emergencyWithdraw(address,address,uint256)":"e63ea408","executeBatch((address,bytes32,uint256,bytes32,uint256),(uint8,address,uint256,address,uint256,address,bytes)[],bytes)":"e389df14","facilitators(address)":"4b719ab6","getNonce(address)":"2d0335ab","isBatchIdUsed(bytes32)":"6651320f","isFacilitator(address)":"33460540","isRouterWhitelisted(address)":"0aef023f","isTargetWhitelisted(address)":"8ff9e3f8","maxOperationsPerBatch()":"eac8d18f","nonces(address)":"7ecebe00","owner()":"8da5cb5b","paused()":"5c975abb","renounceOwnership()":"715018a6","setFacilitator(address,bool)":"8f57e97d","setMaxOperationsPerBatch(uint256)":"87e02d16","setPaused(bool)":"16c38b3c","setRouterWhitelist(address,bool)":"7b224339","setTargetWhitelist(address,bool)":"108bdc14","transferOwnership(address)":"f2fde38b","usedBatchIds(bytes32)":"40125e44","whitelistedRouters(address)":"0f874a13","whitelistedTargets(address)":"fb9ed257"}}}}}