{"contracts/Q402Vault.sol":{"Q402Vault":{"abi":[{"inputs":[{"internalType":"address","name":"_owner","type":"address"}],"stateMutability":"nonpayable","type":"constructor"},{"inputs":[],"name":"ContractPaused","type":"error"},{"inputs":[],"name":"ECDSAInvalidSignature","type":"error"},{"inputs":[{"internalType":"uint256","name":"length","type":"uint256"}],"name":"ECDSAInvalidSignatureLength","type":"error"},{"inputs":[{"internalType":"bytes32","name":"s","type":"bytes32"}],"name":"ECDSAInvalidSignatureS","type":"error"},{"inputs":[],"name":"ExpiredDeadline","type":"error"},{"inputs":[],"name":"InsufficientBalance","type":"error"},{"inputs":[],"name":"InvalidAmount","type":"error"},{"inputs":[],"name":"InvalidNonce","type":"error"},{"inputs":[],"name":"InvalidRecipient","type":"error"},{"inputs":[],"name":"InvalidShortString","type":"error"},{"inputs":[],"name":"InvalidSignature","type":"error"},{"inputs":[{"internalType":"address","name":"owner","type":"address"}],"name":"OwnableInvalidOwner","type":"error"},{"inputs":[{"internalType":"address","name":"account","type":"address"}],"name":"OwnableUnauthorizedAccount","type":"error"},{"inputs":[],"name":"ReentrancyGuardReentrantCall","type":"error"},{"inputs":[{"internalType":"string","name":"str","type":"string"}],"name":"StringTooLong","type":"error"},{"inputs":[],"name":"TransferFailed","type":"error"},{"inputs":[],"name":"TransferIdAlreadyUsed","type":"error"},{"inputs":[],"name":"UnauthorizedFacilitator","type":"error"},{"inputs":[],"name":"ZeroDeposit","type":"error"},{"anonymous":false,"inputs":[{"indexed":true,"internalType":"address","name":"user","type":"address"},{"indexed":false,"internalType":"uint256","name":"amount","type":"uint256"},{"indexed":false,"internalType":"uint256","name":"newBalance","type":"uint256"}],"name":"Deposited","type":"event"},{"anonymous":false,"inputs":[],"name":"EIP712DomainChanged","type":"event"},{"anonymous":false,"inputs":[{"indexed":true,"internalType":"address","name":"facilitator","type":"address"},{"indexed":false,"internalType":"bool","name":"authorized","type":"bool"}],"name":"FacilitatorUpdated","type":"event"},{"anonymous":false,"inputs":[{"indexed":true,"internalType":"address","name":"previousOwner","type":"address"},{"indexed":true,"internalType":"address","name":"newOwner","type":"address"}],"name":"OwnershipTransferred","type":"event"},{"anonymous":false,"inputs":[{"indexed":false,"internalType":"bool","name":"paused","type":"bool"}],"name":"PausedStateChanged","type":"event"},{"anonymous":false,"inputs":[{"indexed":true,"internalType":"address","name":"owner","type":"address"},{"indexed":true,"internalType":"address","name":"recipient","type":"address"},{"indexed":false,"internalType":"uint256","name":"amount","type":"uint256"},{"indexed":false,"internalType":"bytes32","name":"transferId","type":"bytes32"},{"indexed":false,"internalType":"uint256","name":"nonce","type":"uint256"},{"indexed":false,"internalType":"address","name":"facilitator","type":"address"}],"name":"TransferExecuted","type":"event"},{"anonymous":false,"inputs":[{"indexed":true,"internalType":"address","name":"user","type":"address"},{"indexed":false,"internalType":"uint256","name":"amount","type":"uint256"},{"indexed":false,"internalType":"uint256","name":"newBalance","type":"uint256"}],"name":"Withdrawn","type":"event"},{"inputs":[],"name":"TRANSFER_TYPEHASH","outputs":[{"internalType":"bytes32","name":"","type":"bytes32"}],"stateMutability":"view","type":"function"},{"inputs":[{"internalType":"address","name":"","type":"address"}],"name":"balances","outputs":[{"internalType":"uint256","name":"","type":"uint256"}],"stateMutability":"view","type":"function"},{"inputs":[],"name":"deposit","outputs":[],"stateMutability":"payable","type":"function"},{"inputs":[],"name":"domainSeparator","outputs":[{"internalType":"bytes32","name":"","type":"bytes32"}],"stateMutability":"view","type":"function"},{"inputs":[],"name":"eip712Domain","outputs":[{"internalType":"bytes1","name":"fields","type":"bytes1"},{"internalType":"string","name":"name","type":"string"},{"internalType":"string","name":"version","type":"string"},{"internalType":"uint256","name":"chainId","type":"uint256"},{"internalType":"address","name":"verifyingContract","type":"address"},{"internalType":"bytes32","name":"salt","type":"bytes32"},{"internalType":"uint256[]","name":"extensions","type":"uint256[]"}],"stateMutability":"view","type":"function"},{"inputs":[{"internalType":"address","name":"to","type":"address"},{"internalType":"uint256","name":"amount","type":"uint256"}],"name":"emergencyWithdraw","outputs":[],"stateMutability":"nonpayable","type":"function"},{"inputs":[{"internalType":"address","name":"owner","type":"address"},{"internalType":"address","name":"recipient","type":"address"},{"internalType":"uint256","name":"amount","type":"uint256"},{"internalType":"uint256","name":"deadline","type":"uint256"},{"internalType":"bytes32","name":"transferId","type":"bytes32"},{"internalType":"bytes","name":"signature","type":"bytes"}],"name":"executeTransfer","outputs":[],"stateMutability":"nonpayable","type":"function"},{"inputs":[{"internalType":"address","name":"","type":"address"}],"name":"facilitators","outputs":[{"internalType":"bool","name":"","type":"bool"}],"stateMutability":"view","type":"function"},{"inputs":[{"internalType":"address","name":"user","type":"address"}],"name":"getBalance","outputs":[{"internalType":"uint256","name":"","type":"uint256"}],"stateMutability":"view","type":"function"},{"inputs":[],"name":"getChainId","outputs":[{"internalType":"uint256","name":"","type":"uint256"}],"stateMutability":"view","type":"function"},{"inputs":[{"internalType":"address","name":"user","type":"address"}],"name":"getNonce","outputs":[{"internalType":"uint256","name":"","type":"uint256"}],"stateMutability":"view","type":"function"},{"inputs":[{"internalType":"address","name":"addr","type":"address"}],"name":"isFacilitator","outputs":[{"internalType":"bool","name":"","type":"bool"}],"stateMutability":"view","type":"function"},{"inputs":[{"internalType":"bytes32","name":"transferId","type":"bytes32"}],"name":"isTransferIdUsed","outputs":[{"internalType":"bool","name":"","type":"bool"}],"stateMutability":"view","type":"function"},{"inputs":[{"internalType":"address","name":"","type":"address"}],"name":"nonces","outputs":[{"internalType":"uint256","name":"","type":"uint256"}],"stateMutability":"view","type":"function"},{"inputs":[],"name":"owner","outputs":[{"internalType":"address","name":"","type":"address"}],"stateMutability":"view","type":"function"},{"inputs":[],"name":"paused","outputs":[{"internalType":"bool","name":"","type":"bool"}],"stateMutability":"view","type":"function"},{"inputs":[],"name":"renounceOwnership","outputs":[],"stateMutability":"nonpayable","type":"function"},{"inputs":[{"internalType":"address","name":"facilitator","type":"address"},{"internalType":"bool","name":"authorized","type":"bool"}],"name":"setFacilitator","outputs":[],"stateMutability":"nonpayable","type":"function"},{"inputs":[{"internalType":"bool","name":"_paused","type":"bool"}],"name":"setPaused","outputs":[],"stateMutability":"nonpayable","type":"function"},{"inputs":[],"name":"totalDeposited","outputs":[{"internalType":"uint256","name":"","type":"uint256"}],"stateMutability":"view","type":"function"},{"inputs":[{"internalType":"address","name":"newOwner","type":"address"}],"name":"transferOwnership","outputs":[],"stateMutability":"nonpayable","type":"function"},{"inputs":[{"internalType":"bytes32","name":"","type":"bytes32"}],"name":"usedTransferIds","outputs":[{"internalType":"bool","name":"","type":"bool"}],"stateMutability":"view","type":"function"},{"inputs":[{"internalType":"uint256","name":"amount","type":"uint256"}],"name":"withdraw","outputs":[],"stateMutability":"nonpayable","type":"function"},{"inputs":[],"name":"withdrawAll","outputs":[],"stateMutability":"nonpayable","type":"function"},{"stateMutability":"payable","type":"receive"}],"evm":{"bytecode":{"linkReferences":{},"object":"6101603462000240576001600160401b0390601f620017f238819003918201601f191683019291848411838510176200022a57808392604095865283396020928391810103126200024057516001600160a01b0392908381169081900362000240578151926200006f8462000245565b600984528084019468144d0c0c95985d5b1d60ba1b8652835196620000948862000245565b60018852828801603160f81b8152620000ad8762000261565b97610120988952620000bf8a62000434565b97610140988952519020988960e05251902061010098818a524660a052865191858301917f8b73c3c69bb8fe3d512ecc4cf759cc79239f7b179b0ffacaa9a75d522b39400f83528884015260608301524660808301523060a083015260a0825260c0820192828410908411176200022a57828752815190206080523060c052841562000213575050600280546001600160a01b03198116851790915584517f23b563b53629727de17c5cec4b391a63440584fdaf0d888a95bbc671da2c62e1939290918591167f8be0079c531659141344cd1fd0a4f28419497f9722a3daafe3b4186f6b6457e0600080a36001600355836000526007825284600020600160ff1982541617905560018152a251916112109384620005e28539608051846110e8015260a051846111b4015260c051846110b2015260e051846111370152518361115d0152518261054e015251816105780152f35b631e4fbdf760e01b8252600060c490910152602490fd5b634e487b7160e01b600052604160045260246000fd5b600080fd5b604081019081106001600160401b038211176200022a57604052565b8051602091908281101562000300575090601f8251116200029f57808251920151908083106200029057501790565b82600019910360031b1b161790565b90604051809263305a27a960e01b82528060048301528251908160248401526000935b828510620002e6575050604492506000838284010152601f80199101168101030190fd5b8481018201518686016044015293810193859350620002c2565b6001600160401b0381116200022a576000928354926001938481811c9116801562000429575b838210146200041557601f8111620003df575b5081601f841160011462000378575092829391839286946200036c575b50501b916000199060031b1c191617905560ff90565b01519250388062000356565b919083601f1981168780528488209488905b88838310620003c45750505010620003aa575b505050811b01905560ff90565b015160001960f88460031b161c191690553880806200039d565b8587015188559096019594850194879350908101906200038a565b85805284601f848820920160051c820191601f860160051c015b8281106200040957505062000339565b878155018590620003f9565b634e487b7160e01b86526022600452602486fd5b90607f169062000326565b805160209081811015620004c25750601f8251116200046157808251920151908083106200029057501790565b90604051809263305a27a960e01b82528060048301528251908160248401526000935b828510620004a8575050604492506000838284010152601f80199101168101030190fd5b848101820151868601604401529381019385935062000484565b9192916001600160401b0381116200022a5760019182548381811c91168015620005d6575b82821014620005c057601f811162000587575b5080601f83116001146200053a5750819293946000926200052e575b5050600019600383901b1c191690821b17905560ff90565b01519050388062000516565b90601f198316958460005282600020926000905b8882106200056f5750508385969710620003aa57505050811b01905560ff90565b8087859682949686015181550195019301906200054e565b8360005283601f83600020920160051c820191601f850160051c015b828110620005b3575050620004fa565b60008155018490620005a3565b634e487b7160e01b600052602260045260246000fd5b90607f1690620004e756fe608060409080825260049081361015610085575b50361561001f57600080fd5b336000528060205281600020610036348254610edb565b905561004434600954610edb565b600955336000526020527f73a19dd210f1a7f902193214c0ee91dd35ee5b4d920cba8d519eca65a7b488ca81600020549180519234845260208401523392a2005b600090813560e01c908162bf26f414610bb15750806316c38b3c14610b4d5780631d464bd91461045757806327e235e3146101b75780632d0335ab146106545780632e1a7d4d14610a8c57806333460540146107105780633408e47014610a715780633c6801b71461074e5780634b719ab6146107105780635c975abb146106ec578063715018a61461068c5780637ecebe001461065457806384b0196e14610537578063853828b61461048557806389f3b3a4146104575780638da5cb5b1461042e5780638f57e97d146103ac57806395ccea6714610339578063d0e30db0146102a7578063f2fde38b14610216578063f698da25146101f2578063f8b2cb4f146101b75763ff50abdc036100135782346101b357816003193601126101b3576020906009549051908152f35b5080fd5b509190346101ee5760203660031901126101ee5760209282916001600160a01b036101e0610beb565b168252845220549051908152f35b8280fd5b5082346101b357816003193601126101b35760209061020f6110af565b9051908152f35b509190346101ee5760203660031901126101ee57610232610beb565b9061023b610c46565b6001600160a01b03918216928315610291575050600254826bffffffffffffffffffffffff60a01b821617600255167f8be0079c531659141344cd1fd0a4f28419497f9722a3daafe3b4186f6b6457e08380a380f35b51631e4fbdf760e01b8152908101849052602490fd5b509190826003193601126101ee576102bd610efe565b341561032b57338352806020528183206102d8348254610edb565b90556102e634600954610edb565b6009553383526020527f73a19dd210f1a7f902193214c0ee91dd35ee5b4d920cba8d519eca65a7b488ca818320549180519234845260208401523392a2600160035580f35b90516356316e8760e01b8152fd5b5091346101ee57806003193601126101ee5782808080610357610beb565b61035f610c46565b602435905af161036d610f2e565b5015610377578280f35b906020606492519162461bcd60e51b8352820152600f60248201526e151c985b9cd9995c8819985a5b1959608a1b6044820152fd5b5082346101b357806003193601126101b3576103c6610beb565b6024359081151580920361042a577f23b563b53629727de17c5cec4b391a63440584fdaf0d888a95bbc671da2c62e191602091610401610c46565b6001600160a01b031680865260078352848620805460ff191660ff84161790559351908152a280f35b8380fd5b5082346101b357816003193601126101b35760025490516001600160a01b039091168152602090f35b509190346101ee5760203660031901126101ee578160209360ff923581526006855220541690519015158152f35b5091346101ee57826003193601126101ee5761049f610efe565b3383528160205280832054918215610529573384528060205283828120556104c983600954610f21565b6009558380808086335af16104dc610f2e565b501561051b5750807f92ccf450a286a957af52509bc1c9939d1a6a481783e142e41e2499f0bb66ebc691519283528360208401523392a2600160035580f35b90516312171d8360e31b8152fd5b9051631e9acf1760e31b8152fd5b5091346101ee57826003193601126101ee576105727f0000000000000000000000000000000000000000000000000000000000000000610cc6565b9261059c7f0000000000000000000000000000000000000000000000000000000000000000610dec565b908251926020928385019585871067ffffffffffffffff881117610641575092806105f78388966105ea998b9996528686528151998a99600f60f81b8b5260e0868c015260e08b0190610c06565b91898303908a0152610c06565b924660608801523060808801528460a088015286840360c088015251928381520193925b82811061062a57505050500390f35b83518552869550938101939281019260010161061b565b634e487b7160e01b845260419052602483fd5b5082346101b35760203660031901126101b35760209181906001600160a01b0361067c610beb565b1681526005845220549051908152f35b50346106e957806003193601126106e9576106a5610c46565b600280546001600160a01b0319811690915581906001600160a01b03167f8be0079c531659141344cd1fd0a4f28419497f9722a3daafe3b4186f6b6457e08280a380f35b80fd5b5082346101b357816003193601126101b35760209060ff6008541690519015158152f35b5082346101b35760203660031901126101b35760209160ff9082906001600160a01b0361073b610beb565b1681526007855220541690519015158152f35b5082346101b35760c03660031901126101b357610769610beb565b926024356001600160a01b038181169390848303610a6d5760443593606435936084359260a43567ffffffffffffffff808211610a695736602383011215610a69578185013590808211610a65573660248385010111610a65576107cb610efe565b60ff60085416610a5557908b959493929133875260ff8960209860078a5220541615610a4557894211610a35578b15610a25578a15610a15578a898e9f9d9e9d86169d8e8152888a52205410610a055760ff898f8a815260068a522054166109f5578c8c918f80848d925260058b5220549b8b51928a8401947f5359604f811603e69f529aa57c2bb750f0050f2898bf83c1d44a95abe5fb91dd86528d85015260608401528d608084015260a08301528960c08301528b60e083015260e08252610100820190828210908211176109e157938f898f9796958060248f966108fe986042916109079b8a525190206108c06110af565b9089519161190160f01b83526002830152602282015220956108ed6108e484610ebf565b98519889610ca4565b828852018387013784010152610f5e565b9092919261102a565b16036109d257838a5260068352848a20600160ff19825416179055600186018087116109bf578a8089819482948d8452600589528a842055868852898320610950838254610f21565b905561095e82600954610f21565b6009555af161096b610f2e565b50156109b1575082519485528401528201523360608201527f9dc18f9e082b8355e5faf012a74378bbfe2d5904c585ad9d4ae583e37bc5190d90608090a3600160035580f35b83516312171d8360e31b8152fd5b634e487b7160e01b8b526011835260248bfd5b508351638baa579f60e01b8152fd5b50634e487b7160e01b8f526041875260248ffd5b88516307527b7760e41b81528690fd5b8851631e9acf1760e31b81528690fd5b885163162908e360e11b81528690fd5b8851634e46966960e11b81528690fd5b885163f87d927160e01b81528690fd5b8851630f6fae8760e01b81528690fd5b875163ab35696f60e01b81528690fd5b8b80fd5b8a80fd5b8580fd5b5082346101b357816003193601126101b35760209051468152f35b5091346101ee5760203660031901126101ee57813591610aaa610efe565b8215610b3f57338452806020528282852054106105295733845280602052818420610ad6848254610f21565b9055610ae483600954610f21565b6009558380808086335af1610af7610f2e565b501561051b57907f92ccf450a286a957af52509bc1c9939d1a6a481783e142e41e2499f0bb66ebc69133855260205280842054815193845260208401523392a2600160035580f35b905163162908e360e11b8152fd5b509190346101ee5760203660031901126101ee5735908115158092036101ee577f9e3a5e37224532dea67b89face185703738a228a6e8a23dee546960180d3be6491602091610b9a610c46565b60ff196008541660ff83161760085551908152a180f35b9050346101b357816003193601126101b357807f5359604f811603e69f529aa57c2bb750f0050f2898bf83c1d44a95abe5fb91dd60209252f35b600435906001600160a01b0382168203610c0157565b600080fd5b919082519283825260005b848110610c32575050826000602080949584010152601f8019910116010190565b602081830181015184830182015201610c11565b6002546001600160a01b03163303610c5a57565b60405163118cdaa760e01b8152336004820152602490fd5b6040810190811067ffffffffffffffff821117610c8e57604052565b634e487b7160e01b600052604160045260246000fd5b90601f8019910116810190811067ffffffffffffffff821117610c8e57604052565b60ff8114610d045760ff811690601f8211610cf25760405191610ce883610c72565b8252602082015290565b604051632cd44ac360e21b8152600490fd5b506040516000805490600182811c90808416938415610de2575b6020948584108114610dce5783875286949392918115610dae5750600114610d52575b5050610d4f92500382610ca4565b90565b60008080527f290decd9548b62a8d60345a988386fc84ba6bc95484008f6362f93160ef3e56395935091905b818310610d96575050610d4f93508201013880610d41565b85548784018501529485019486945091830191610d7e565b915050610d4f94925060ff191682840152151560051b8201013880610d41565b634e487b7160e01b85526022600452602485fd5b91607f1691610d1e565b60ff8114610e0e5760ff811690601f8211610cf25760405191610ce883610c72565b50604051600060019081549182811c90808416938415610eb5575b6020948584108114610dce5783875286949392918115610dae5750600114610e59575050610d4f92500382610ca4565b60008181527fb10e2d527612073b26eecdfd717e6a320cf44b4afac2b0732d9fcbe2b7fa0cf695935091905b818310610e9d575050610d4f93508201013880610d41565b85548784018501529485019486945091830191610e85565b91607f1691610e29565b67ffffffffffffffff8111610c8e57601f01601f191660200190565b91908201809211610ee857565b634e487b7160e01b600052601160045260246000fd5b600260035414610f0f576002600355565b604051633ee5aeb560e01b8152600490fd5b91908203918211610ee857565b3d15610f59573d90610f3f82610ebf565b91610f4d6040519384610ca4565b82523d6000602084013e565b606090565b8151919060418303610f8f57610f8892506020820151906060604084015193015160001a90610f9a565b9192909190565b505060009160029190565b91907f7fffffffffffffffffffffffffffffff5d576e7357a4501ddfe92f46681b20a0841161101e57926020929160ff608095604051948552168484015260408301526060820152600092839182805260015afa156110125780516001600160a01b0381161561100957918190565b50809160019190565b604051903d90823e3d90fd5b50505060009160039190565b6004811015611099578061103c575050565b600181036110565760405163f645eedf60e01b8152600490fd5b600281036110775760405163fce698f760e01b815260048101839052602490fd5b6003146110815750565b602490604051906335e2f38360e21b82526004820152fd5b634e487b7160e01b600052602160045260246000fd5b307f00000000000000000000000000000000000000000000000000000000000000006001600160a01b031614806111b1575b1561110a577f000000000000000000000000000000000000000000000000000000000000000090565b60405160208101907f8b73c3c69bb8fe3d512ecc4cf759cc79239f7b179b0ffacaa9a75d522b39400f82527f000000000000000000000000000000000000000000000000000000000000000060408201527f000000000000000000000000000000000000000000000000000000000000000060608201524660808201523060a082015260a0815260c0810181811067ffffffffffffffff821117610c8e5760405251902090565b507f000000000000000000000000000000000000000000000000000000000000000046146110e156fea2646970667358221220b84d0642b1e0dfa4a52872853c9551343b7bb57a25c6584b84eead6e24913ce764736f6c63430008140033","opcodes":"PUSH2 0x160 CALLVALUE PUSH3 0x240 JUMPI PUSH1 0x1 PUSH1 0x1 PUSH1 0x40 SHL SUB SWAP1 PUSH1 0x1F PUSH3 0x17F2 CODESIZE DUP2 SWAP1 SUB SWAP2 DUP3 ADD PUSH1 0x1F NOT AND DUP4 ADD SWAP3 SWAP2 DUP5 DUP5 GT DUP4 DUP6 LT OR PUSH3 0x22A JUMPI DUP1 DUP4 SWAP3 PUSH1 0x40 SWAP6 DUP7 MSTORE DUP4 CODECOPY PUSH1 0x20 SWAP3 DUP4 SWAP2 DUP2 ADD SUB SLT PUSH3 0x240 JUMPI MLOAD PUSH1 0x1 PUSH1 0x1 PUSH1 0xA0 SHL SUB SWAP3 SWAP1 DUP4 DUP2 AND SWAP1 DUP2 SWAP1 SUB PUSH3 0x240 JUMPI DUP2 MLOAD SWAP3 PUSH3 0x6F DUP5 PUSH3 0x245 JUMP JUMPDEST PUSH1 0x9 DUP5 MSTORE DUP1 DUP5 ADD SWAP5 PUSH9 0x144D0C0C95985D5B1D PUSH1 0xBA SHL DUP7 MSTORE DUP4 MLOAD SWAP7 PUSH3 0x94 DUP9 PUSH3 0x245 JUMP JUMPDEST PUSH1 0x1 DUP9 MSTORE DUP3 DUP9 ADD PUSH1 0x31 PUSH1 0xF8 SHL DUP2 MSTORE PUSH3 0xAD DUP8 PUSH3 0x261 JUMP JUMPDEST SWAP8 PUSH2 0x120 SWAP9 DUP10 MSTORE PUSH3 0xBF DUP11 PUSH3 0x434 JUMP JUMPDEST SWAP8 PUSH2 0x140 SWAP9 DUP10 MSTORE MLOAD SWAP1 KECCAK256 SWAP9 DUP10 PUSH1 0xE0 MSTORE MLOAD SWAP1 KECCAK256 PUSH2 0x100 SWAP9 DUP2 DUP11 MSTORE CHAINID PUSH1 0xA0 MSTORE DUP7 MLOAD SWAP2 DUP6 DUP4 ADD SWAP2 PUSH32 0x8B73C3C69BB8FE3D512ECC4CF759CC79239F7B179B0FFACAA9A75D522B39400F DUP4 MSTORE DUP9 DUP5 ADD MSTORE PUSH1 0x60 DUP4 ADD MSTORE CHAINID PUSH1 0x80 DUP4 ADD MSTORE ADDRESS PUSH1 0xA0 DUP4 ADD MSTORE PUSH1 0xA0 DUP3 MSTORE PUSH1 0xC0 DUP3 ADD SWAP3 DUP3 DUP5 LT SWAP1 DUP5 GT OR PUSH3 0x22A JUMPI DUP3 DUP8 MSTORE DUP2 MLOAD SWAP1 KECCAK256 PUSH1 0x80 MSTORE ADDRESS PUSH1 0xC0 MSTORE DUP5 ISZERO PUSH3 0x213 JUMPI POP POP PUSH1 0x2 DUP1 SLOAD PUSH1 0x1 PUSH1 0x1 PUSH1 0xA0 SHL SUB NOT DUP2 AND DUP6 OR SWAP1 SWAP2 SSTORE DUP5 MLOAD PUSH32 0x23B563B53629727DE17C5CEC4B391A63440584FDAF0D888A95BBC671DA2C62E1 SWAP4 SWAP3 SWAP1 SWAP2 DUP6 SWAP2 AND PUSH32 0x8BE0079C531659141344CD1FD0A4F28419497F9722A3DAAFE3B4186F6B6457E0 PUSH1 0x0 DUP1 LOG3 PUSH1 0x1 PUSH1 0x3 SSTORE DUP4 PUSH1 0x0 MSTORE PUSH1 0x7 DUP3 MSTORE DUP5 PUSH1 0x0 KECCAK256 PUSH1 0x1 PUSH1 0xFF NOT DUP3 SLOAD AND OR SWAP1 SSTORE PUSH1 0x1 DUP2 MSTORE LOG2 MLOAD SWAP2 PUSH2 0x1210 SWAP4 DUP5 PUSH3 0x5E2 DUP6 CODECOPY PUSH1 0x80 MLOAD DUP5 PUSH2 0x10E8 ADD MSTORE PUSH1 0xA0 MLOAD DUP5 PUSH2 0x11B4 ADD MSTORE PUSH1 0xC0 MLOAD DUP5 PUSH2 0x10B2 ADD MSTORE PUSH1 0xE0 MLOAD DUP5 PUSH2 0x1137 ADD MSTORE MLOAD DUP4 PUSH2 0x115D ADD MSTORE MLOAD DUP3 PUSH2 0x54E ADD MSTORE MLOAD DUP2 PUSH2 0x578 ADD MSTORE RETURN JUMPDEST PUSH4 0x1E4FBDF7 PUSH1 0xE0 SHL DUP3 MSTORE PUSH1 0x0 PUSH1 0xC4 SWAP1 SWAP2 ADD MSTORE PUSH1 0x24 SWAP1 REVERT JUMPDEST PUSH4 0x4E487B71 PUSH1 0xE0 SHL PUSH1 0x0 MSTORE PUSH1 0x41 PUSH1 0x4 MSTORE PUSH1 0x24 PUSH1 0x0 REVERT JUMPDEST PUSH1 0x0 DUP1 REVERT JUMPDEST PUSH1 0x40 DUP2 ADD SWAP1 DUP2 LT PUSH1 0x1 PUSH1 0x1 PUSH1 0x40 SHL SUB DUP3 GT OR PUSH3 0x22A JUMPI PUSH1 0x40 MSTORE JUMP JUMPDEST DUP1 MLOAD PUSH1 0x20 SWAP2 SWAP1 DUP3 DUP2 LT ISZERO PUSH3 0x300 JUMPI POP SWAP1 PUSH1 0x1F DUP3 MLOAD GT PUSH3 0x29F JUMPI DUP1 DUP3 MLOAD SWAP3 ADD MLOAD SWAP1 DUP1 DUP4 LT PUSH3 0x290 JUMPI POP OR SWAP1 JUMP JUMPDEST DUP3 PUSH1 0x0 NOT SWAP2 SUB PUSH1 0x3 SHL SHL AND OR SWAP1 JUMP JUMPDEST SWAP1 PUSH1 0x40 MLOAD DUP1 SWAP3 PUSH4 0x305A27A9 PUSH1 0xE0 SHL DUP3 MSTORE DUP1 PUSH1 0x4 DUP4 ADD MSTORE DUP3 MLOAD SWAP1 DUP2 PUSH1 0x24 DUP5 ADD MSTORE PUSH1 0x0 SWAP4 JUMPDEST DUP3 DUP6 LT PUSH3 0x2E6 JUMPI POP POP PUSH1 0x44 SWAP3 POP PUSH1 0x0 DUP4 DUP3 DUP5 ADD ADD MSTORE PUSH1 0x1F DUP1 NOT SWAP2 ADD AND DUP2 ADD SUB ADD SWAP1 REVERT JUMPDEST DUP5 DUP2 ADD DUP3 ADD MLOAD DUP7 DUP7 ADD PUSH1 0x44 ADD MSTORE SWAP4 DUP2 ADD SWAP4 DUP6 SWAP4 POP PUSH3 0x2C2 JUMP JUMPDEST PUSH1 0x1 PUSH1 0x1 PUSH1 0x40 SHL SUB DUP2 GT PUSH3 0x22A JUMPI PUSH1 0x0 SWAP3 DUP4 SLOAD SWAP3 PUSH1 0x1 SWAP4 DUP5 DUP2 DUP2 SHR SWAP2 AND DUP1 ISZERO PUSH3 0x429 JUMPI JUMPDEST DUP4 DUP3 LT EQ PUSH3 0x415 JUMPI PUSH1 0x1F DUP2 GT PUSH3 0x3DF JUMPI JUMPDEST POP DUP2 PUSH1 0x1F DUP5 GT PUSH1 0x1 EQ PUSH3 0x378 JUMPI POP SWAP3 DUP3 SWAP4 SWAP2 DUP4 SWAP3 DUP7 SWAP5 PUSH3 0x36C JUMPI JUMPDEST POP POP SHL SWAP2 PUSH1 0x0 NOT SWAP1 PUSH1 0x3 SHL SHR NOT AND OR SWAP1 SSTORE PUSH1 0xFF SWAP1 JUMP JUMPDEST ADD MLOAD SWAP3 POP CODESIZE DUP1 PUSH3 0x356 JUMP JUMPDEST SWAP2 SWAP1 DUP4 PUSH1 0x1F NOT DUP2 AND DUP8 DUP1 MSTORE DUP5 DUP9 KECCAK256 SWAP5 DUP9 SWAP1 JUMPDEST DUP9 DUP4 DUP4 LT PUSH3 0x3C4 JUMPI POP POP POP LT PUSH3 0x3AA JUMPI JUMPDEST POP POP POP DUP2 SHL ADD SWAP1 SSTORE PUSH1 0xFF SWAP1 JUMP JUMPDEST ADD MLOAD PUSH1 0x0 NOT PUSH1 0xF8 DUP5 PUSH1 0x3 SHL AND SHR NOT AND SWAP1 SSTORE CODESIZE DUP1 DUP1 PUSH3 0x39D JUMP JUMPDEST DUP6 DUP8 ADD MLOAD DUP9 SSTORE SWAP1 SWAP7 ADD SWAP6 SWAP5 DUP6 ADD SWAP5 DUP8 SWAP4 POP SWAP1 DUP2 ADD SWAP1 PUSH3 0x38A JUMP JUMPDEST DUP6 DUP1 MSTORE DUP5 PUSH1 0x1F DUP5 DUP9 KECCAK256 SWAP3 ADD PUSH1 0x5 SHR DUP3 ADD SWAP2 PUSH1 0x1F DUP7 ADD PUSH1 0x5 SHR ADD JUMPDEST DUP3 DUP2 LT PUSH3 0x409 JUMPI POP POP PUSH3 0x339 JUMP JUMPDEST DUP8 DUP2 SSTORE ADD DUP6 SWAP1 PUSH3 0x3F9 JUMP JUMPDEST PUSH4 0x4E487B71 PUSH1 0xE0 SHL DUP7 MSTORE PUSH1 0x22 PUSH1 0x4 MSTORE PUSH1 0x24 DUP7 REVERT JUMPDEST SWAP1 PUSH1 0x7F AND SWAP1 PUSH3 0x326 JUMP JUMPDEST DUP1 MLOAD PUSH1 0x20 SWAP1 DUP2 DUP2 LT ISZERO PUSH3 0x4C2 JUMPI POP PUSH1 0x1F DUP3 MLOAD GT PUSH3 0x461 JUMPI DUP1 DUP3 MLOAD SWAP3 ADD MLOAD SWAP1 DUP1 DUP4 LT PUSH3 0x290 JUMPI POP OR SWAP1 JUMP JUMPDEST SWAP1 PUSH1 0x40 MLOAD DUP1 SWAP3 PUSH4 0x305A27A9 PUSH1 0xE0 SHL DUP3 MSTORE DUP1 PUSH1 0x4 DUP4 ADD MSTORE DUP3 MLOAD SWAP1 DUP2 PUSH1 0x24 DUP5 ADD MSTORE PUSH1 0x0 SWAP4 JUMPDEST DUP3 DUP6 LT PUSH3 0x4A8 JUMPI POP POP PUSH1 0x44 SWAP3 POP PUSH1 0x0 DUP4 DUP3 DUP5 ADD ADD MSTORE PUSH1 0x1F DUP1 NOT SWAP2 ADD AND DUP2 ADD SUB ADD SWAP1 REVERT JUMPDEST DUP5 DUP2 ADD DUP3 ADD MLOAD DUP7 DUP7 ADD PUSH1 0x44 ADD MSTORE SWAP4 DUP2 ADD SWAP4 DUP6 SWAP4 POP PUSH3 0x484 JUMP JUMPDEST SWAP2 SWAP3 SWAP2 PUSH1 0x1 PUSH1 0x1 PUSH1 0x40 SHL SUB DUP2 GT PUSH3 0x22A JUMPI PUSH1 0x1 SWAP2 DUP3 SLOAD DUP4 DUP2 DUP2 SHR SWAP2 AND DUP1 ISZERO PUSH3 0x5D6 JUMPI JUMPDEST DUP3 DUP3 LT EQ PUSH3 0x5C0 JUMPI PUSH1 0x1F DUP2 GT PUSH3 0x587 JUMPI JUMPDEST POP DUP1 PUSH1 0x1F DUP4 GT PUSH1 0x1 EQ PUSH3 0x53A JUMPI POP DUP2 SWAP3 SWAP4 SWAP5 PUSH1 0x0 SWAP3 PUSH3 0x52E JUMPI JUMPDEST POP POP PUSH1 0x0 NOT PUSH1 0x3 DUP4 SWAP1 SHL SHR NOT AND SWAP1 DUP3 SHL OR SWAP1 SSTORE PUSH1 0xFF SWAP1 JUMP JUMPDEST ADD MLOAD SWAP1 POP CODESIZE DUP1 PUSH3 0x516 JUMP JUMPDEST SWAP1 PUSH1 0x1F NOT DUP4 AND SWAP6 DUP5 PUSH1 0x0 MSTORE DUP3 PUSH1 0x0 KECCAK256 SWAP3 PUSH1 0x0 SWAP1 JUMPDEST DUP9 DUP3 LT PUSH3 0x56F JUMPI POP POP DUP4 DUP6 SWAP7 SWAP8 LT PUSH3 0x3AA JUMPI POP POP POP DUP2 SHL ADD SWAP1 SSTORE PUSH1 0xFF SWAP1 JUMP JUMPDEST DUP1 DUP8 DUP6 SWAP7 DUP3 SWAP5 SWAP7 DUP7 ADD MLOAD DUP2 SSTORE ADD SWAP6 ADD SWAP4 ADD SWAP1 PUSH3 0x54E JUMP JUMPDEST DUP4 PUSH1 0x0 MSTORE DUP4 PUSH1 0x1F DUP4 PUSH1 0x0 KECCAK256 SWAP3 ADD PUSH1 0x5 SHR DUP3 ADD SWAP2 PUSH1 0x1F DUP6 ADD PUSH1 0x5 SHR ADD JUMPDEST DUP3 DUP2 LT PUSH3 0x5B3 JUMPI POP POP PUSH3 0x4FA JUMP JUMPDEST PUSH1 0x0 DUP2 SSTORE ADD DUP5 SWAP1 PUSH3 0x5A3 JUMP JUMPDEST PUSH4 0x4E487B71 PUSH1 0xE0 SHL PUSH1 0x0 MSTORE PUSH1 0x22 PUSH1 0x4 MSTORE PUSH1 0x24 PUSH1 0x0 REVERT JUMPDEST SWAP1 PUSH1 0x7F AND SWAP1 PUSH3 0x4E7 JUMP INVALID PUSH1 0x80 PUSH1 0x40 SWAP1 DUP1 DUP3 MSTORE PUSH1 0x4 SWAP1 DUP2 CALLDATASIZE LT ISZERO PUSH2 0x85 JUMPI JUMPDEST POP CALLDATASIZE ISZERO PUSH2 0x1F JUMPI PUSH1 0x0 DUP1 REVERT JUMPDEST CALLER PUSH1 0x0 MSTORE DUP1 PUSH1 0x20 MSTORE DUP2 PUSH1 0x0 KECCAK256 PUSH2 0x36 CALLVALUE DUP3 SLOAD PUSH2 0xEDB JUMP JUMPDEST SWAP1 SSTORE PUSH2 0x44 CALLVALUE PUSH1 0x9 SLOAD PUSH2 0xEDB JUMP JUMPDEST PUSH1 0x9 SSTORE CALLER PUSH1 0x0 MSTORE PUSH1 0x20 MSTORE PUSH32 0x73A19DD210F1A7F902193214C0EE91DD35EE5B4D920CBA8D519ECA65A7B488CA DUP2 PUSH1 0x0 KECCAK256 SLOAD SWAP2 DUP1 MLOAD SWAP3 CALLVALUE DUP5 MSTORE PUSH1 0x20 DUP5 ADD MSTORE CALLER SWAP3 LOG2 STOP JUMPDEST PUSH1 0x0 SWAP1 DUP2 CALLDATALOAD PUSH1 0xE0 SHR SWAP1 DUP2 PUSH3 0xBF26F4 EQ PUSH2 0xBB1 JUMPI POP DUP1 PUSH4 0x16C38B3C EQ PUSH2 0xB4D JUMPI DUP1 PUSH4 0x1D464BD9 EQ PUSH2 0x457 JUMPI DUP1 PUSH4 0x27E235E3 EQ PUSH2 0x1B7 JUMPI DUP1 PUSH4 0x2D0335AB EQ PUSH2 0x654 JUMPI DUP1 PUSH4 0x2E1A7D4D EQ PUSH2 0xA8C JUMPI DUP1 PUSH4 0x33460540 EQ PUSH2 0x710 JUMPI DUP1 PUSH4 0x3408E470 EQ PUSH2 0xA71 JUMPI DUP1 PUSH4 0x3C6801B7 EQ PUSH2 0x74E JUMPI DUP1 PUSH4 0x4B719AB6 EQ PUSH2 0x710 JUMPI DUP1 PUSH4 0x5C975ABB EQ PUSH2 0x6EC JUMPI DUP1 PUSH4 0x715018A6 EQ PUSH2 0x68C JUMPI DUP1 PUSH4 0x7ECEBE00 EQ PUSH2 0x654 JUMPI DUP1 PUSH4 0x84B0196E EQ PUSH2 0x537 JUMPI DUP1 PUSH4 0x853828B6 EQ PUSH2 0x485 JUMPI DUP1 PUSH4 0x89F3B3A4 EQ PUSH2 0x457 JUMPI DUP1 PUSH4 0x8DA5CB5B EQ PUSH2 0x42E JUMPI DUP1 PUSH4 0x8F57E97D EQ PUSH2 0x3AC JUMPI DUP1 PUSH4 0x95CCEA67 EQ PUSH2 0x339 JUMPI DUP1 PUSH4 0xD0E30DB0 EQ PUSH2 0x2A7 JUMPI DUP1 PUSH4 0xF2FDE38B EQ PUSH2 0x216 JUMPI DUP1 PUSH4 0xF698DA25 EQ PUSH2 0x1F2 JUMPI DUP1 PUSH4 0xF8B2CB4F EQ PUSH2 0x1B7 JUMPI PUSH4 0xFF50ABDC SUB PUSH2 0x13 JUMPI DUP3 CALLVALUE PUSH2 0x1B3 JUMPI DUP2 PUSH1 0x3 NOT CALLDATASIZE ADD SLT PUSH2 0x1B3 JUMPI PUSH1 0x20 SWAP1 PUSH1 0x9 SLOAD SWAP1 MLOAD SWAP1 DUP2 MSTORE RETURN JUMPDEST POP DUP1 REVERT JUMPDEST POP SWAP2 SWAP1 CALLVALUE PUSH2 0x1EE JUMPI PUSH1 0x20 CALLDATASIZE PUSH1 0x3 NOT ADD SLT PUSH2 0x1EE JUMPI PUSH1 0x20 SWAP3 DUP3 SWAP2 PUSH1 0x1 PUSH1 0x1 PUSH1 0xA0 SHL SUB PUSH2 0x1E0 PUSH2 0xBEB JUMP JUMPDEST AND DUP3 MSTORE DUP5 MSTORE KECCAK256 SLOAD SWAP1 MLOAD SWAP1 DUP2 MSTORE RETURN JUMPDEST DUP3 DUP1 REVERT JUMPDEST POP DUP3 CALLVALUE PUSH2 0x1B3 JUMPI DUP2 PUSH1 0x3 NOT CALLDATASIZE ADD SLT PUSH2 0x1B3 JUMPI PUSH1 0x20 SWAP1 PUSH2 0x20F PUSH2 0x10AF JUMP JUMPDEST SWAP1 MLOAD SWAP1 DUP2 MSTORE RETURN JUMPDEST POP SWAP2 SWAP1 CALLVALUE PUSH2 0x1EE JUMPI PUSH1 0x20 CALLDATASIZE PUSH1 0x3 NOT ADD SLT PUSH2 0x1EE JUMPI PUSH2 0x232 PUSH2 0xBEB JUMP JUMPDEST SWAP1 PUSH2 0x23B PUSH2 0xC46 JUMP JUMPDEST PUSH1 0x1 PUSH1 0x1 PUSH1 0xA0 SHL SUB SWAP2 DUP3 AND SWAP3 DUP4 ISZERO PUSH2 0x291 JUMPI POP POP PUSH1 0x2 SLOAD DUP3 PUSH12 0xFFFFFFFFFFFFFFFFFFFFFFFF PUSH1 0xA0 SHL DUP3 AND OR PUSH1 0x2 SSTORE AND PUSH32 0x8BE0079C531659141344CD1FD0A4F28419497F9722A3DAAFE3B4186F6B6457E0 DUP4 DUP1 LOG3 DUP1 RETURN JUMPDEST MLOAD PUSH4 0x1E4FBDF7 PUSH1 0xE0 SHL DUP2 MSTORE SWAP1 DUP2 ADD DUP5 SWAP1 MSTORE PUSH1 0x24 SWAP1 REVERT JUMPDEST POP SWAP2 SWAP1 DUP3 PUSH1 0x3 NOT CALLDATASIZE ADD SLT PUSH2 0x1EE JUMPI PUSH2 0x2BD PUSH2 0xEFE JUMP JUMPDEST CALLVALUE ISZERO PUSH2 0x32B JUMPI CALLER DUP4 MSTORE DUP1 PUSH1 0x20 MSTORE DUP2 DUP4 KECCAK256 PUSH2 0x2D8 CALLVALUE DUP3 SLOAD PUSH2 0xEDB JUMP JUMPDEST SWAP1 SSTORE PUSH2 0x2E6 CALLVALUE PUSH1 0x9 SLOAD PUSH2 0xEDB JUMP JUMPDEST PUSH1 0x9 SSTORE CALLER DUP4 MSTORE PUSH1 0x20 MSTORE PUSH32 0x73A19DD210F1A7F902193214C0EE91DD35EE5B4D920CBA8D519ECA65A7B488CA DUP2 DUP4 KECCAK256 SLOAD SWAP2 DUP1 MLOAD SWAP3 CALLVALUE DUP5 MSTORE PUSH1 0x20 DUP5 ADD MSTORE CALLER SWAP3 LOG2 PUSH1 0x1 PUSH1 0x3 SSTORE DUP1 RETURN JUMPDEST SWAP1 MLOAD PUSH4 0x56316E87 PUSH1 0xE0 SHL DUP2 MSTORE REVERT JUMPDEST POP SWAP2 CALLVALUE PUSH2 0x1EE JUMPI DUP1 PUSH1 0x3 NOT CALLDATASIZE ADD SLT PUSH2 0x1EE JUMPI DUP3 DUP1 DUP1 DUP1 PUSH2 0x357 PUSH2 0xBEB JUMP JUMPDEST PUSH2 0x35F PUSH2 0xC46 JUMP JUMPDEST PUSH1 0x24 CALLDATALOAD SWAP1 GAS CALL PUSH2 0x36D PUSH2 0xF2E JUMP JUMPDEST POP ISZERO PUSH2 0x377 JUMPI DUP3 DUP1 RETURN JUMPDEST SWAP1 PUSH1 0x20 PUSH1 0x64 SWAP3 MLOAD SWAP2 PUSH3 0x461BCD PUSH1 0xE5 SHL DUP4 MSTORE DUP3 ADD MSTORE PUSH1 0xF PUSH1 0x24 DUP3 ADD MSTORE PUSH15 0x151C985B9CD9995C8819985A5B1959 PUSH1 0x8A SHL PUSH1 0x44 DUP3 ADD MSTORE REVERT JUMPDEST POP DUP3 CALLVALUE PUSH2 0x1B3 JUMPI DUP1 PUSH1 0x3 NOT CALLDATASIZE ADD SLT PUSH2 0x1B3 JUMPI PUSH2 0x3C6 PUSH2 0xBEB JUMP JUMPDEST PUSH1 0x24 CALLDATALOAD SWAP1 DUP2 ISZERO ISZERO DUP1 SWAP3 SUB PUSH2 0x42A JUMPI PUSH32 0x23B563B53629727DE17C5CEC4B391A63440584FDAF0D888A95BBC671DA2C62E1 SWAP2 PUSH1 0x20 SWAP2 PUSH2 0x401 PUSH2 0xC46 JUMP JUMPDEST PUSH1 0x1 PUSH1 0x1 PUSH1 0xA0 SHL SUB AND DUP1 DUP7 MSTORE PUSH1 0x7 DUP4 MSTORE DUP5 DUP7 KECCAK256 DUP1 SLOAD PUSH1 0xFF NOT AND PUSH1 0xFF DUP5 AND OR SWAP1 SSTORE SWAP4 MLOAD SWAP1 DUP2 MSTORE LOG2 DUP1 RETURN JUMPDEST DUP4 DUP1 REVERT JUMPDEST POP DUP3 CALLVALUE PUSH2 0x1B3 JUMPI DUP2 PUSH1 0x3 NOT CALLDATASIZE ADD SLT PUSH2 0x1B3 JUMPI PUSH1 0x2 SLOAD SWAP1 MLOAD PUSH1 0x1 PUSH1 0x1 PUSH1 0xA0 SHL SUB SWAP1 SWAP2 AND DUP2 MSTORE PUSH1 0x20 SWAP1 RETURN JUMPDEST POP SWAP2 SWAP1 CALLVALUE PUSH2 0x1EE JUMPI PUSH1 0x20 CALLDATASIZE PUSH1 0x3 NOT ADD SLT PUSH2 0x1EE JUMPI DUP2 PUSH1 0x20 SWAP4 PUSH1 0xFF SWAP3 CALLDATALOAD DUP2 MSTORE PUSH1 0x6 DUP6 MSTORE KECCAK256 SLOAD AND SWAP1 MLOAD SWAP1 ISZERO ISZERO DUP2 MSTORE RETURN JUMPDEST POP SWAP2 CALLVALUE PUSH2 0x1EE JUMPI DUP3 PUSH1 0x3 NOT CALLDATASIZE ADD SLT PUSH2 0x1EE JUMPI PUSH2 0x49F PUSH2 0xEFE JUMP JUMPDEST CALLER DUP4 MSTORE DUP2 PUSH1 0x20 MSTORE DUP1 DUP4 KECCAK256 SLOAD SWAP2 DUP3 ISZERO PUSH2 0x529 JUMPI CALLER DUP5 MSTORE DUP1 PUSH1 0x20 MSTORE DUP4 DUP3 DUP2 KECCAK256 SSTORE PUSH2 0x4C9 DUP4 PUSH1 0x9 SLOAD PUSH2 0xF21 JUMP JUMPDEST PUSH1 0x9 SSTORE DUP4 DUP1 DUP1 DUP1 DUP7 CALLER GAS CALL PUSH2 0x4DC PUSH2 0xF2E JUMP JUMPDEST POP ISZERO PUSH2 0x51B JUMPI POP DUP1 PUSH32 0x92CCF450A286A957AF52509BC1C9939D1A6A481783E142E41E2499F0BB66EBC6 SWAP2 MLOAD SWAP3 DUP4 MSTORE DUP4 PUSH1 0x20 DUP5 ADD MSTORE CALLER SWAP3 LOG2 PUSH1 0x1 PUSH1 0x3 SSTORE DUP1 RETURN JUMPDEST SWAP1 MLOAD PUSH4 0x12171D83 PUSH1 0xE3 SHL DUP2 MSTORE REVERT JUMPDEST SWAP1 MLOAD PUSH4 0x1E9ACF17 PUSH1 0xE3 SHL DUP2 MSTORE REVERT JUMPDEST POP SWAP2 CALLVALUE PUSH2 0x1EE JUMPI DUP3 PUSH1 0x3 NOT CALLDATASIZE ADD SLT PUSH2 0x1EE JUMPI PUSH2 0x572 PUSH32 0x0 PUSH2 0xCC6 JUMP JUMPDEST SWAP3 PUSH2 0x59C PUSH32 0x0 PUSH2 0xDEC JUMP JUMPDEST SWAP1 DUP3 MLOAD SWAP3 PUSH1 0x20 SWAP3 DUP4 DUP6 ADD SWAP6 DUP6 DUP8 LT PUSH8 0xFFFFFFFFFFFFFFFF DUP9 GT OR PUSH2 0x641 JUMPI POP SWAP3 DUP1 PUSH2 0x5F7 DUP4 DUP9 SWAP7 PUSH2 0x5EA SWAP10 DUP12 SWAP10 SWAP7 MSTORE DUP7 DUP7 MSTORE DUP2 MLOAD SWAP10 DUP11 SWAP10 PUSH1 0xF PUSH1 0xF8 SHL DUP12 MSTORE PUSH1 0xE0 DUP7 DUP13 ADD MSTORE PUSH1 0xE0 DUP12 ADD SWAP1 PUSH2 0xC06 JUMP JUMPDEST SWAP2 DUP10 DUP4 SUB SWAP1 DUP11 ADD MSTORE PUSH2 0xC06 JUMP JUMPDEST SWAP3 CHAINID PUSH1 0x60 DUP9 ADD MSTORE ADDRESS PUSH1 0x80 DUP9 ADD MSTORE DUP5 PUSH1 0xA0 DUP9 ADD MSTORE DUP7 DUP5 SUB PUSH1 0xC0 DUP9 ADD MSTORE MLOAD SWAP3 DUP4 DUP2 MSTORE ADD SWAP4 SWAP3 JUMPDEST DUP3 DUP2 LT PUSH2 0x62A JUMPI POP POP POP POP SUB SWAP1 RETURN JUMPDEST DUP4 MLOAD DUP6 MSTORE DUP7 SWAP6 POP SWAP4 DUP2 ADD SWAP4 SWAP3 DUP2 ADD SWAP3 PUSH1 0x1 ADD PUSH2 0x61B JUMP JUMPDEST PUSH4 0x4E487B71 PUSH1 0xE0 SHL DUP5 MSTORE PUSH1 0x41 SWAP1 MSTORE PUSH1 0x24 DUP4 REVERT JUMPDEST POP DUP3 CALLVALUE PUSH2 0x1B3 JUMPI PUSH1 0x20 CALLDATASIZE PUSH1 0x3 NOT ADD SLT PUSH2 0x1B3 JUMPI PUSH1 0x20 SWAP2 DUP2 SWAP1 PUSH1 0x1 PUSH1 0x1 PUSH1 0xA0 SHL SUB PUSH2 0x67C PUSH2 0xBEB JUMP JUMPDEST AND DUP2 MSTORE PUSH1 0x5 DUP5 MSTORE KECCAK256 SLOAD SWAP1 MLOAD SWAP1 DUP2 MSTORE RETURN JUMPDEST POP CALLVALUE PUSH2 0x6E9 JUMPI DUP1 PUSH1 0x3 NOT CALLDATASIZE ADD SLT PUSH2 0x6E9 JUMPI PUSH2 0x6A5 PUSH2 0xC46 JUMP JUMPDEST PUSH1 0x2 DUP1 SLOAD PUSH1 0x1 PUSH1 0x1 PUSH1 0xA0 SHL SUB NOT DUP2 AND SWAP1 SWAP2 SSTORE DUP2 SWAP1 PUSH1 0x1 PUSH1 0x1 PUSH1 0xA0 SHL SUB AND PUSH32 0x8BE0079C531659141344CD1FD0A4F28419497F9722A3DAAFE3B4186F6B6457E0 DUP3 DUP1 LOG3 DUP1 RETURN JUMPDEST DUP1 REVERT JUMPDEST POP DUP3 CALLVALUE PUSH2 0x1B3 JUMPI DUP2 PUSH1 0x3 NOT CALLDATASIZE ADD SLT PUSH2 0x1B3 JUMPI PUSH1 0x20 SWAP1 PUSH1 0xFF PUSH1 0x8 SLOAD AND SWAP1 MLOAD SWAP1 ISZERO ISZERO DUP2 MSTORE RETURN JUMPDEST POP DUP3 CALLVALUE PUSH2 0x1B3 JUMPI PUSH1 0x20 CALLDATASIZE PUSH1 0x3 NOT ADD SLT PUSH2 0x1B3 JUMPI PUSH1 0x20 SWAP2 PUSH1 0xFF SWAP1 DUP3 SWAP1 PUSH1 0x1 PUSH1 0x1 PUSH1 0xA0 SHL SUB PUSH2 0x73B PUSH2 0xBEB JUMP JUMPDEST AND DUP2 MSTORE PUSH1 0x7 DUP6 MSTORE KECCAK256 SLOAD AND SWAP1 MLOAD SWAP1 ISZERO ISZERO DUP2 MSTORE RETURN JUMPDEST POP DUP3 CALLVALUE PUSH2 0x1B3 JUMPI PUSH1 0xC0 CALLDATASIZE PUSH1 0x3 NOT ADD SLT PUSH2 0x1B3 JUMPI PUSH2 0x769 PUSH2 0xBEB JUMP JUMPDEST SWAP3 PUSH1 0x24 CALLDATALOAD PUSH1 0x1 PUSH1 0x1 PUSH1 0xA0 SHL SUB DUP2 DUP2 AND SWAP4 SWAP1 DUP5 DUP4 SUB PUSH2 0xA6D JUMPI PUSH1 0x44 CALLDATALOAD SWAP4 PUSH1 0x64 CALLDATALOAD SWAP4 PUSH1 0x84 CALLDATALOAD SWAP3 PUSH1 0xA4 CALLDATALOAD PUSH8 0xFFFFFFFFFFFFFFFF DUP1 DUP3 GT PUSH2 0xA69 JUMPI CALLDATASIZE PUSH1 0x23 DUP4 ADD SLT ISZERO PUSH2 0xA69 JUMPI DUP2 DUP6 ADD CALLDATALOAD SWAP1 DUP1 DUP3 GT PUSH2 0xA65 JUMPI CALLDATASIZE PUSH1 0x24 DUP4 DUP6 ADD ADD GT PUSH2 0xA65 JUMPI PUSH2 0x7CB PUSH2 0xEFE JUMP JUMPDEST PUSH1 0xFF PUSH1 0x8 SLOAD AND PUSH2 0xA55 JUMPI SWAP1 DUP12 SWAP6 SWAP5 SWAP4 SWAP3 SWAP2 CALLER DUP8 MSTORE PUSH1 0xFF DUP10 PUSH1 0x20 SWAP9 PUSH1 0x7 DUP11 MSTORE KECCAK256 SLOAD AND ISZERO PUSH2 0xA45 JUMPI DUP10 TIMESTAMP GT PUSH2 0xA35 JUMPI DUP12 ISZERO PUSH2 0xA25 JUMPI DUP11 ISZERO PUSH2 0xA15 JUMPI DUP11 DUP10 DUP15 SWAP16 SWAP14 SWAP15 SWAP14 DUP7 AND SWAP14 DUP15 DUP2 MSTORE DUP9 DUP11 MSTORE KECCAK256 SLOAD LT PUSH2 0xA05 JUMPI PUSH1 0xFF DUP10 DUP16 DUP11 DUP2 MSTORE PUSH1 0x6 DUP11 MSTORE KECCAK256 SLOAD AND PUSH2 0x9F5 JUMPI DUP13 DUP13 SWAP2 DUP16 DUP1 DUP5 DUP14 SWAP3 MSTORE PUSH1 0x5 DUP12 MSTORE KECCAK256 SLOAD SWAP12 DUP12 MLOAD SWAP3 DUP11 DUP5 ADD SWAP5 PUSH32 0x5359604F811603E69F529AA57C2BB750F0050F2898BF83C1D44A95ABE5FB91DD DUP7 MSTORE DUP14 DUP6 ADD MSTORE PUSH1 0x60 DUP5 ADD MSTORE DUP14 PUSH1 0x80 DUP5 ADD MSTORE PUSH1 0xA0 DUP4 ADD MSTORE DUP10 PUSH1 0xC0 DUP4 ADD MSTORE DUP12 PUSH1 0xE0 DUP4 ADD MSTORE PUSH1 0xE0 DUP3 MSTORE PUSH2 0x100 DUP3 ADD SWAP1 DUP3 DUP3 LT SWAP1 DUP3 GT OR PUSH2 0x9E1 JUMPI SWAP4 DUP16 DUP10 DUP16 SWAP8 SWAP7 SWAP6 DUP1 PUSH1 0x24 DUP16 SWAP7 PUSH2 0x8FE SWAP9 PUSH1 0x42 SWAP2 PUSH2 0x907 SWAP12 DUP11 MSTORE MLOAD SWAP1 KECCAK256 PUSH2 0x8C0 PUSH2 0x10AF JUMP JUMPDEST SWAP1 DUP10 MLOAD SWAP2 PUSH2 0x1901 PUSH1 0xF0 SHL DUP4 MSTORE PUSH1 0x2 DUP4 ADD MSTORE PUSH1 0x22 DUP3 ADD MSTORE KECCAK256 SWAP6 PUSH2 0x8ED PUSH2 0x8E4 DUP5 PUSH2 0xEBF JUMP JUMPDEST SWAP9 MLOAD SWAP9 DUP10 PUSH2 0xCA4 JUMP JUMPDEST DUP3 DUP9 MSTORE ADD DUP4 DUP8 ADD CALLDATACOPY DUP5 ADD ADD MSTORE PUSH2 0xF5E JUMP JUMPDEST SWAP1 SWAP3 SWAP2 SWAP3 PUSH2 0x102A JUMP JUMPDEST AND SUB PUSH2 0x9D2 JUMPI DUP4 DUP11 MSTORE PUSH1 0x6 DUP4 MSTORE DUP5 DUP11 KECCAK256 PUSH1 0x1 PUSH1 0xFF NOT DUP3 SLOAD AND OR SWAP1 SSTORE PUSH1 0x1 DUP7 ADD DUP1 DUP8 GT PUSH2 0x9BF JUMPI DUP11 DUP1 DUP10 DUP2 SWAP5 DUP3 SWAP5 DUP14 DUP5 MSTORE PUSH1 0x5 DUP10 MSTORE DUP11 DUP5 KECCAK256 SSTORE DUP7 DUP9 MSTORE DUP10 DUP4 KECCAK256 PUSH2 0x950 DUP4 DUP3 SLOAD PUSH2 0xF21 JUMP JUMPDEST SWAP1 SSTORE PUSH2 0x95E DUP3 PUSH1 0x9 SLOAD PUSH2 0xF21 JUMP JUMPDEST PUSH1 0x9 SSTORE GAS CALL PUSH2 0x96B PUSH2 0xF2E JUMP JUMPDEST POP ISZERO PUSH2 0x9B1 JUMPI POP DUP3 MLOAD SWAP5 DUP6 MSTORE DUP5 ADD MSTORE DUP3 ADD MSTORE CALLER PUSH1 0x60 DUP3 ADD MSTORE PUSH32 0x9DC18F9E082B8355E5FAF012A74378BBFE2D5904C585AD9D4AE583E37BC5190D SWAP1 PUSH1 0x80 SWAP1 LOG3 PUSH1 0x1 PUSH1 0x3 SSTORE DUP1 RETURN JUMPDEST DUP4 MLOAD PUSH4 0x12171D83 PUSH1 0xE3 SHL DUP2 MSTORE REVERT JUMPDEST PUSH4 0x4E487B71 PUSH1 0xE0 SHL DUP12 MSTORE PUSH1 0x11 DUP4 MSTORE PUSH1 0x24 DUP12 REVERT JUMPDEST POP DUP4 MLOAD PUSH4 0x8BAA579F PUSH1 0xE0 SHL DUP2 MSTORE REVERT JUMPDEST POP PUSH4 0x4E487B71 PUSH1 0xE0 SHL DUP16 MSTORE PUSH1 0x41 DUP8 MSTORE PUSH1 0x24 DUP16 REVERT JUMPDEST DUP9 MLOAD PUSH4 0x7527B77 PUSH1 0xE4 SHL DUP2 MSTORE DUP7 SWAP1 REVERT JUMPDEST DUP9 MLOAD PUSH4 0x1E9ACF17 PUSH1 0xE3 SHL DUP2 MSTORE DUP7 SWAP1 REVERT JUMPDEST DUP9 MLOAD PUSH4 0x162908E3 PUSH1 0xE1 SHL DUP2 MSTORE DUP7 SWAP1 REVERT JUMPDEST DUP9 MLOAD PUSH4 0x4E469669 PUSH1 0xE1 SHL DUP2 MSTORE DUP7 SWAP1 REVERT JUMPDEST DUP9 MLOAD PUSH4 0xF87D9271 PUSH1 0xE0 SHL DUP2 MSTORE DUP7 SWAP1 REVERT JUMPDEST DUP9 MLOAD PUSH4 0xF6FAE87 PUSH1 0xE0 SHL DUP2 MSTORE DUP7 SWAP1 REVERT JUMPDEST DUP8 MLOAD PUSH4 0xAB35696F PUSH1 0xE0 SHL DUP2 MSTORE DUP7 SWAP1 REVERT JUMPDEST DUP12 DUP1 REVERT JUMPDEST DUP11 DUP1 REVERT JUMPDEST DUP6 DUP1 REVERT JUMPDEST POP DUP3 CALLVALUE PUSH2 0x1B3 JUMPI DUP2 PUSH1 0x3 NOT CALLDATASIZE ADD SLT PUSH2 0x1B3 JUMPI PUSH1 0x20 SWAP1 MLOAD CHAINID DUP2 MSTORE RETURN JUMPDEST POP SWAP2 CALLVALUE PUSH2 0x1EE JUMPI PUSH1 0x20 CALLDATASIZE PUSH1 0x3 NOT ADD SLT PUSH2 0x1EE JUMPI DUP2 CALLDATALOAD SWAP2 PUSH2 0xAAA PUSH2 0xEFE JUMP JUMPDEST DUP3 ISZERO PUSH2 0xB3F JUMPI CALLER DUP5 MSTORE DUP1 PUSH1 0x20 MSTORE DUP3 DUP3 DUP6 KECCAK256 SLOAD LT PUSH2 0x529 JUMPI CALLER DUP5 MSTORE DUP1 PUSH1 0x20 MSTORE DUP2 DUP5 KECCAK256 PUSH2 0xAD6 DUP5 DUP3 SLOAD PUSH2 0xF21 JUMP JUMPDEST SWAP1 SSTORE PUSH2 0xAE4 DUP4 PUSH1 0x9 SLOAD PUSH2 0xF21 JUMP JUMPDEST PUSH1 0x9 SSTORE DUP4 DUP1 DUP1 DUP1 DUP7 CALLER GAS CALL PUSH2 0xAF7 PUSH2 0xF2E JUMP JUMPDEST POP ISZERO PUSH2 0x51B JUMPI SWAP1 PUSH32 0x92CCF450A286A957AF52509BC1C9939D1A6A481783E142E41E2499F0BB66EBC6 SWAP2 CALLER DUP6 MSTORE PUSH1 0x20 MSTORE DUP1 DUP5 KECCAK256 SLOAD DUP2 MLOAD SWAP4 DUP5 MSTORE PUSH1 0x20 DUP5 ADD MSTORE CALLER SWAP3 LOG2 PUSH1 0x1 PUSH1 0x3 SSTORE DUP1 RETURN JUMPDEST SWAP1 MLOAD PUSH4 0x162908E3 PUSH1 0xE1 SHL DUP2 MSTORE REVERT JUMPDEST POP SWAP2 SWAP1 CALLVALUE PUSH2 0x1EE JUMPI PUSH1 0x20 CALLDATASIZE PUSH1 0x3 NOT ADD SLT PUSH2 0x1EE JUMPI CALLDATALOAD SWAP1 DUP2 ISZERO ISZERO DUP1 SWAP3 SUB PUSH2 0x1EE JUMPI PUSH32 0x9E3A5E37224532DEA67B89FACE185703738A228A6E8A23DEE546960180D3BE64 SWAP2 PUSH1 0x20 SWAP2 PUSH2 0xB9A PUSH2 0xC46 JUMP JUMPDEST PUSH1 0xFF NOT PUSH1 0x8 SLOAD AND PUSH1 0xFF DUP4 AND OR PUSH1 0x8 SSTORE MLOAD SWAP1 DUP2 MSTORE LOG1 DUP1 RETURN JUMPDEST SWAP1 POP CALLVALUE PUSH2 0x1B3 JUMPI DUP2 PUSH1 0x3 NOT CALLDATASIZE ADD SLT PUSH2 0x1B3 JUMPI DUP1 PUSH32 0x5359604F811603E69F529AA57C2BB750F0050F2898BF83C1D44A95ABE5FB91DD PUSH1 0x20 SWAP3 MSTORE RETURN JUMPDEST PUSH1 0x4 CALLDATALOAD SWAP1 PUSH1 0x1 PUSH1 0x1 PUSH1 0xA0 SHL SUB DUP3 AND DUP3 SUB PUSH2 0xC01 JUMPI JUMP JUMPDEST PUSH1 0x0 DUP1 REVERT JUMPDEST SWAP2 SWAP1 DUP3 MLOAD SWAP3 DUP4 DUP3 MSTORE PUSH1 0x0 JUMPDEST DUP5 DUP2 LT PUSH2 0xC32 JUMPI POP POP DUP3 PUSH1 0x0 PUSH1 0x20 DUP1 SWAP5 SWAP6 DUP5 ADD ADD MSTORE PUSH1 0x1F DUP1 NOT SWAP2 ADD AND ADD ADD SWAP1 JUMP JUMPDEST PUSH1 0x20 DUP2 DUP4 ADD DUP2 ADD MLOAD DUP5 DUP4 ADD DUP3 ADD MSTORE ADD PUSH2 0xC11 JUMP JUMPDEST PUSH1 0x2 SLOAD PUSH1 0x1 PUSH1 0x1 PUSH1 0xA0 SHL SUB AND CALLER SUB PUSH2 0xC5A JUMPI JUMP JUMPDEST PUSH1 0x40 MLOAD PUSH4 0x118CDAA7 PUSH1 0xE0 SHL DUP2 MSTORE CALLER PUSH1 0x4 DUP3 ADD MSTORE PUSH1 0x24 SWAP1 REVERT JUMPDEST PUSH1 0x40 DUP2 ADD SWAP1 DUP2 LT PUSH8 0xFFFFFFFFFFFFFFFF DUP3 GT OR PUSH2 0xC8E JUMPI PUSH1 0x40 MSTORE JUMP JUMPDEST PUSH4 0x4E487B71 PUSH1 0xE0 SHL PUSH1 0x0 MSTORE PUSH1 0x41 PUSH1 0x4 MSTORE PUSH1 0x24 PUSH1 0x0 REVERT JUMPDEST SWAP1 PUSH1 0x1F DUP1 NOT SWAP2 ADD AND DUP2 ADD SWAP1 DUP2 LT PUSH8 0xFFFFFFFFFFFFFFFF DUP3 GT OR PUSH2 0xC8E JUMPI PUSH1 0x40 MSTORE JUMP JUMPDEST PUSH1 0xFF DUP2 EQ PUSH2 0xD04 JUMPI PUSH1 0xFF DUP2 AND SWAP1 PUSH1 0x1F DUP3 GT PUSH2 0xCF2 JUMPI PUSH1 0x40 MLOAD SWAP2 PUSH2 0xCE8 DUP4 PUSH2 0xC72 JUMP JUMPDEST DUP3 MSTORE PUSH1 0x20 DUP3 ADD MSTORE SWAP1 JUMP JUMPDEST PUSH1 0x40 MLOAD PUSH4 0x2CD44AC3 PUSH1 0xE2 SHL DUP2 MSTORE PUSH1 0x4 SWAP1 REVERT JUMPDEST POP PUSH1 0x40 MLOAD PUSH1 0x0 DUP1 SLOAD SWAP1 PUSH1 0x1 DUP3 DUP2 SHR SWAP1 DUP1 DUP5 AND SWAP4 DUP5 ISZERO PUSH2 0xDE2 JUMPI JUMPDEST PUSH1 0x20 SWAP5 DUP6 DUP5 LT DUP2 EQ PUSH2 0xDCE JUMPI DUP4 DUP8 MSTORE DUP7 SWAP5 SWAP4 SWAP3 SWAP2 DUP2 ISZERO PUSH2 0xDAE JUMPI POP PUSH1 0x1 EQ PUSH2 0xD52 JUMPI JUMPDEST POP POP PUSH2 0xD4F SWAP3 POP SUB DUP3 PUSH2 0xCA4 JUMP JUMPDEST SWAP1 JUMP JUMPDEST PUSH1 0x0 DUP1 DUP1 MSTORE PUSH32 0x290DECD9548B62A8D60345A988386FC84BA6BC95484008F6362F93160EF3E563 SWAP6 SWAP4 POP SWAP2 SWAP1 JUMPDEST DUP2 DUP4 LT PUSH2 0xD96 JUMPI POP POP PUSH2 0xD4F SWAP4 POP DUP3 ADD ADD CODESIZE DUP1 PUSH2 0xD41 JUMP JUMPDEST DUP6 SLOAD DUP8 DUP5 ADD DUP6 ADD MSTORE SWAP5 DUP6 ADD SWAP5 DUP7 SWAP5 POP SWAP2 DUP4 ADD SWAP2 PUSH2 0xD7E JUMP JUMPDEST SWAP2 POP POP PUSH2 0xD4F SWAP5 SWAP3 POP PUSH1 0xFF NOT AND DUP3 DUP5 ADD MSTORE ISZERO ISZERO PUSH1 0x5 SHL DUP3 ADD ADD CODESIZE DUP1 PUSH2 0xD41 JUMP JUMPDEST PUSH4 0x4E487B71 PUSH1 0xE0 SHL DUP6 MSTORE PUSH1 0x22 PUSH1 0x4 MSTORE PUSH1 0x24 DUP6 REVERT JUMPDEST SWAP2 PUSH1 0x7F AND SWAP2 PUSH2 0xD1E JUMP JUMPDEST PUSH1 0xFF DUP2 EQ PUSH2 0xE0E JUMPI PUSH1 0xFF DUP2 AND SWAP1 PUSH1 0x1F DUP3 GT PUSH2 0xCF2 JUMPI PUSH1 0x40 MLOAD SWAP2 PUSH2 0xCE8 DUP4 PUSH2 0xC72 JUMP JUMPDEST POP PUSH1 0x40 MLOAD PUSH1 0x0 PUSH1 0x1 SWAP1 DUP2 SLOAD SWAP2 DUP3 DUP2 SHR SWAP1 DUP1 DUP5 AND SWAP4 DUP5 ISZERO PUSH2 0xEB5 JUMPI JUMPDEST PUSH1 0x20 SWAP5 DUP6 DUP5 LT DUP2 EQ PUSH2 0xDCE JUMPI DUP4 DUP8 MSTORE DUP7 SWAP5 SWAP4 SWAP3 SWAP2 DUP2 ISZERO PUSH2 0xDAE JUMPI POP PUSH1 0x1 EQ PUSH2 0xE59 JUMPI POP POP PUSH2 0xD4F SWAP3 POP SUB DUP3 PUSH2 0xCA4 JUMP JUMPDEST PUSH1 0x0 DUP2 DUP2 MSTORE PUSH32 0xB10E2D527612073B26EECDFD717E6A320CF44B4AFAC2B0732D9FCBE2B7FA0CF6 SWAP6 SWAP4 POP SWAP2 SWAP1 JUMPDEST DUP2 DUP4 LT PUSH2 0xE9D JUMPI POP POP PUSH2 0xD4F SWAP4 POP DUP3 ADD ADD CODESIZE DUP1 PUSH2 0xD41 JUMP JUMPDEST DUP6 SLOAD DUP8 DUP5 ADD DUP6 ADD MSTORE SWAP5 DUP6 ADD SWAP5 DUP7 SWAP5 POP SWAP2 DUP4 ADD SWAP2 PUSH2 0xE85 JUMP JUMPDEST SWAP2 PUSH1 0x7F AND SWAP2 PUSH2 0xE29 JUMP JUMPDEST PUSH8 0xFFFFFFFFFFFFFFFF DUP2 GT PUSH2 0xC8E JUMPI PUSH1 0x1F ADD PUSH1 0x1F NOT AND PUSH1 0x20 ADD SWAP1 JUMP JUMPDEST SWAP2 SWAP1 DUP3 ADD DUP1 SWAP3 GT PUSH2 0xEE8 JUMPI JUMP JUMPDEST PUSH4 0x4E487B71 PUSH1 0xE0 SHL PUSH1 0x0 MSTORE PUSH1 0x11 PUSH1 0x4 MSTORE PUSH1 0x24 PUSH1 0x0 REVERT JUMPDEST PUSH1 0x2 PUSH1 0x3 SLOAD EQ PUSH2 0xF0F JUMPI PUSH1 0x2 PUSH1 0x3 SSTORE JUMP JUMPDEST PUSH1 0x40 MLOAD PUSH4 0x3EE5AEB5 PUSH1 0xE0 SHL DUP2 MSTORE PUSH1 0x4 SWAP1 REVERT JUMPDEST SWAP2 SWAP1 DUP3 SUB SWAP2 DUP3 GT PUSH2 0xEE8 JUMPI JUMP JUMPDEST RETURNDATASIZE ISZERO PUSH2 0xF59 JUMPI RETURNDATASIZE SWAP1 PUSH2 0xF3F DUP3 PUSH2 0xEBF JUMP JUMPDEST SWAP2 PUSH2 0xF4D PUSH1 0x40 MLOAD SWAP4 DUP5 PUSH2 0xCA4 JUMP JUMPDEST DUP3 MSTORE RETURNDATASIZE PUSH1 0x0 PUSH1 0x20 DUP5 ADD RETURNDATACOPY JUMP JUMPDEST PUSH1 0x60 SWAP1 JUMP JUMPDEST DUP2 MLOAD SWAP2 SWAP1 PUSH1 0x41 DUP4 SUB PUSH2 0xF8F JUMPI PUSH2 0xF88 SWAP3 POP PUSH1 0x20 DUP3 ADD MLOAD SWAP1 PUSH1 0x60 PUSH1 0x40 DUP5 ADD MLOAD SWAP4 ADD MLOAD PUSH1 0x0 BYTE SWAP1 PUSH2 0xF9A JUMP JUMPDEST SWAP2 SWAP3 SWAP1 SWAP2 SWAP1 JUMP JUMPDEST POP POP PUSH1 0x0 SWAP2 PUSH1 0x2 SWAP2 SWAP1 JUMP JUMPDEST SWAP2 SWAP1 PUSH32 0x7FFFFFFFFFFFFFFFFFFFFFFFFFFFFFFF5D576E7357A4501DDFE92F46681B20A0 DUP5 GT PUSH2 0x101E JUMPI SWAP3 PUSH1 0x20 SWAP3 SWAP2 PUSH1 0xFF PUSH1 0x80 SWAP6 PUSH1 0x40 MLOAD SWAP5 DUP6 MSTORE AND DUP5 DUP5 ADD MSTORE PUSH1 0x40 DUP4 ADD MSTORE PUSH1 0x60 DUP3 ADD MSTORE PUSH1 0x0 SWAP3 DUP4 SWAP2 DUP3 DUP1 MSTORE PUSH1 0x1 GAS STATICCALL ISZERO PUSH2 0x1012 JUMPI DUP1 MLOAD PUSH1 0x1 PUSH1 0x1 PUSH1 0xA0 SHL SUB DUP2 AND ISZERO PUSH2 0x1009 JUMPI SWAP2 DUP2 SWAP1 JUMP JUMPDEST POP DUP1 SWAP2 PUSH1 0x1 SWAP2 SWAP1 JUMP JUMPDEST PUSH1 0x40 MLOAD SWAP1 RETURNDATASIZE SWAP1 DUP3 RETURNDATACOPY RETURNDATASIZE SWAP1 REVERT JUMPDEST POP POP POP PUSH1 0x0 SWAP2 PUSH1 0x3 SWAP2 SWAP1 JUMP JUMPDEST PUSH1 0x4 DUP2 LT ISZERO PUSH2 0x1099 JUMPI DUP1 PUSH2 0x103C JUMPI POP POP JUMP JUMPDEST PUSH1 0x1 DUP2 SUB PUSH2 0x1056 JUMPI PUSH1 0x40 MLOAD PUSH4 0xF645EEDF PUSH1 0xE0 SHL DUP2 MSTORE PUSH1 0x4 SWAP1 REVERT JUMPDEST PUSH1 0x2 DUP2 SUB PUSH2 0x1077 JUMPI PUSH1 0x40 MLOAD PUSH4 0xFCE698F7 PUSH1 0xE0 SHL DUP2 MSTORE PUSH1 0x4 DUP2 ADD DUP4 SWAP1 MSTORE PUSH1 0x24 SWAP1 REVERT JUMPDEST PUSH1 0x3 EQ PUSH2 0x1081 JUMPI POP JUMP JUMPDEST PUSH1 0x24 SWAP1 PUSH1 0x40 MLOAD SWAP1 PUSH4 0x35E2F383 PUSH1 0xE2 SHL DUP3 MSTORE PUSH1 0x4 DUP3 ADD MSTORE REVERT JUMPDEST PUSH4 0x4E487B71 PUSH1 0xE0 SHL PUSH1 0x0 MSTORE PUSH1 0x21 PUSH1 0x4 MSTORE PUSH1 0x24 PUSH1 0x0 REVERT JUMPDEST ADDRESS PUSH32 0x0 PUSH1 0x1 PUSH1 0x1 PUSH1 0xA0 SHL SUB AND EQ DUP1 PUSH2 0x11B1 JUMPI JUMPDEST ISZERO PUSH2 0x110A JUMPI PUSH32 0x0 SWAP1 JUMP JUMPDEST PUSH1 0x40 MLOAD PUSH1 0x20 DUP2 ADD SWAP1 PUSH32 0x8B73C3C69BB8FE3D512ECC4CF759CC79239F7B179B0FFACAA9A75D522B39400F DUP3 MSTORE PUSH32 0x0 PUSH1 0x40 DUP3 ADD MSTORE PUSH32 0x0 PUSH1 0x60 DUP3 ADD MSTORE CHAINID PUSH1 0x80 DUP3 ADD MSTORE ADDRESS PUSH1 0xA0 DUP3 ADD MSTORE PUSH1 0xA0 DUP2 MSTORE PUSH1 0xC0 DUP2 ADD DUP2 DUP2 LT PUSH8 0xFFFFFFFFFFFFFFFF DUP3 GT OR PUSH2 0xC8E JUMPI PUSH1 0x40 MSTORE MLOAD SWAP1 KECCAK256 SWAP1 JUMP JUMPDEST POP PUSH32 0x0 CHAINID EQ PUSH2 0x10E1 JUMP INVALID LOG2 PUSH5 0x6970667358 0x22 SLT KECCAK256 0xB8 0x4D MOD TIMESTAMP 0xB1 0xE0 0xDF LOG4 0xA5 0x28 PUSH19 0x853C9551343B7BB57A25C6584B84EEAD6E2491 EXTCODECOPY 0xE7 PUSH5 0x736F6C6343 STOP ADDMOD EQ STOP CALLER "},"methodIdentifiers":{"TRANSFER_TYPEHASH()":"00bf26f4","balances(address)":"27e235e3","deposit()":"d0e30db0","domainSeparator()":"f698da25","eip712Domain()":"84b0196e","emergencyWithdraw(address,uint256)":"95ccea67","executeTransfer(address,address,uint256,uint256,bytes32,bytes)":"3c6801b7","facilitators(address)":"4b719ab6","getBalance(address)":"f8b2cb4f","getChainId()":"3408e470","getNonce(address)":"2d0335ab","isFacilitator(address)":"33460540","isTransferIdUsed(bytes32)":"89f3b3a4","nonces(address)":"7ecebe00","owner()":"8da5cb5b","paused()":"5c975abb","renounceOwnership()":"715018a6","setFacilitator(address,bool)":"8f57e97d","setPaused(bool)":"16c38b3c","totalDeposited()":"ff50abdc","transferOwnership(address)":"f2fde38b","usedTransferIds(bytes32)":"1d464bd9","withdraw(uint256)":"2e1a7d4d","withdrawAll()":"853828b6"}}}}}