{
  "_format": "hh-sol-artifact-1",
  "contractName": "Q402Implementation",
  "sourceName": "contracts/Q402Implementation.sol",
  "abi": [
    {
      "inputs": [
        {
          "internalType": "address",
          "name": "_owner",
          "type": "address"
        }
      ],
      "stateMutability": "nonpayable",
      "type": "constructor"
    },
    {
      "inputs": [],
      "name": "ContractPaused",
      "type": "error"
    },
    {
      "inputs": [],
      "name": "ECDSAInvalidSignature",
      "type": "error"
    },
    {
      "inputs": [
        {
          "internalType": "uint256",
          "name": "length",
          "type": "uint256"
        }
      ],
      "name": "ECDSAInvalidSignatureLength",
      "type": "error"
    },
    {
      "inputs": [
        {
          "internalType": "bytes32",
          "name": "s",
          "type": "bytes32"
        }
      ],
      "name": "ECDSAInvalidSignatureS",
      "type": "error"
    },
    {
      "inputs": [],
      "name": "ExpiredDeadline",
      "type": "error"
    },
    {
      "inputs": [],
      "name": "InvalidAmount",
      "type": "error"
    },
    {
      "inputs": [],
      "name": "InvalidNonce",
      "type": "error"
    },
    {
      "inputs": [],
      "name": "InvalidRecipient",
      "type": "error"
    },
    {
      "inputs": [],
      "name": "InvalidShortString",
      "type": "error"
    },
    {
      "inputs": [],
      "name": "InvalidSignature",
      "type": "error"
    },
    {
      "inputs": [
        {
          "internalType": "address",
          "name": "owner",
          "type": "address"
        }
      ],
      "name": "OwnableInvalidOwner",
      "type": "error"
    },
    {
      "inputs": [
        {
          "internalType": "address",
          "name": "account",
          "type": "address"
        }
      ],
      "name": "OwnableUnauthorizedAccount",
      "type": "error"
    },
    {
      "inputs": [],
      "name": "PaymentIdAlreadyUsed",
      "type": "error"
    },
    {
      "inputs": [],
      "name": "ReentrancyGuardReentrantCall",
      "type": "error"
    },
    {
      "inputs": [
        {
          "internalType": "address",
          "name": "token",
          "type": "address"
        }
      ],
      "name": "SafeERC20FailedOperation",
      "type": "error"
    },
    {
      "inputs": [
        {
          "internalType": "string",
          "name": "str",
          "type": "string"
        }
      ],
      "name": "StringTooLong",
      "type": "error"
    },
    {
      "inputs": [],
      "name": "TransferFailed",
      "type": "error"
    },
    {
      "inputs": [],
      "name": "UnauthorizedFacilitator",
      "type": "error"
    },
    {
      "anonymous": false,
      "inputs": [],
      "name": "EIP712DomainChanged",
      "type": "event"
    },
    {
      "anonymous": false,
      "inputs": [
        {
          "indexed": true,
          "internalType": "address",
          "name": "facilitator",
          "type": "address"
        },
        {
          "indexed": false,
          "internalType": "bool",
          "name": "authorized",
          "type": "bool"
        }
      ],
      "name": "FacilitatorUpdated",
      "type": "event"
    },
    {
      "anonymous": false,
      "inputs": [
        {
          "indexed": true,
          "internalType": "address",
          "name": "previousOwner",
          "type": "address"
        },
        {
          "indexed": true,
          "internalType": "address",
          "name": "newOwner",
          "type": "address"
        }
      ],
      "name": "OwnershipTransferred",
      "type": "event"
    },
    {
      "anonymous": false,
      "inputs": [
        {
          "indexed": false,
          "internalType": "bool",
          "name": "paused",
          "type": "bool"
        }
      ],
      "name": "PausedStateChanged",
      "type": "event"
    },
    {
      "anonymous": false,
      "inputs": [
        {
          "indexed": true,
          "internalType": "address",
          "name": "owner",
          "type": "address"
        },
        {
          "indexed": true,
          "internalType": "address",
          "name": "token",
          "type": "address"
        },
        {
          "indexed": true,
          "internalType": "address",
          "name": "recipient",
          "type": "address"
        },
        {
          "indexed": false,
          "internalType": "uint256",
          "name": "amount",
          "type": "uint256"
        },
        {
          "indexed": false,
          "internalType": "bytes32",
          "name": "paymentId",
          "type": "bytes32"
        },
        {
          "indexed": false,
          "internalType": "uint256",
          "name": "nonce",
          "type": "uint256"
        },
        {
          "indexed": false,
          "internalType": "address",
          "name": "facilitator",
          "type": "address"
        }
      ],
      "name": "PaymentExecuted",
      "type": "event"
    },
    {
      "inputs": [],
      "name": "WITNESS_TYPEHASH",
      "outputs": [
        {
          "internalType": "bytes32",
          "name": "",
          "type": "bytes32"
        }
      ],
      "stateMutability": "view",
      "type": "function"
    },
    {
      "inputs": [],
      "name": "domainSeparator",
      "outputs": [
        {
          "internalType": "bytes32",
          "name": "",
          "type": "bytes32"
        }
      ],
      "stateMutability": "view",
      "type": "function"
    },
    {
      "inputs": [],
      "name": "eip712Domain",
      "outputs": [
        {
          "internalType": "bytes1",
          "name": "fields",
          "type": "bytes1"
        },
        {
          "internalType": "string",
          "name": "name",
          "type": "string"
        },
        {
          "internalType": "string",
          "name": "version",
          "type": "string"
        },
        {
          "internalType": "uint256",
          "name": "chainId",
          "type": "uint256"
        },
        {
          "internalType": "address",
          "name": "verifyingContract",
          "type": "address"
        },
        {
          "internalType": "bytes32",
          "name": "salt",
          "type": "bytes32"
        },
        {
          "internalType": "uint256[]",
          "name": "extensions",
          "type": "uint256[]"
        }
      ],
      "stateMutability": "view",
      "type": "function"
    },
    {
      "inputs": [
        {
          "internalType": "address",
          "name": "token",
          "type": "address"
        },
        {
          "internalType": "address",
          "name": "to",
          "type": "address"
        },
        {
          "internalType": "uint256",
          "name": "amount",
          "type": "uint256"
        }
      ],
      "name": "emergencyWithdraw",
      "outputs": [],
      "stateMutability": "nonpayable",
      "type": "function"
    },
    {
      "inputs": [
        {
          "internalType": "address",
          "name": "owner",
          "type": "address"
        },
        {
          "internalType": "address",
          "name": "facilitator",
          "type": "address"
        },
        {
          "internalType": "address",
          "name": "token",
          "type": "address"
        },
        {
          "internalType": "address",
          "name": "recipient",
          "type": "address"
        },
        {
          "internalType": "uint256",
          "name": "amount",
          "type": "uint256"
        },
        {
          "internalType": "uint256",
          "name": "nonce",
          "type": "uint256"
        },
        {
          "internalType": "uint256",
          "name": "deadline",
          "type": "uint256"
        },
        {
          "internalType": "bytes",
          "name": "signature",
          "type": "bytes"
        }
      ],
      "name": "executeTransfer",
      "outputs": [],
      "stateMutability": "nonpayable",
      "type": "function"
    },
    {
      "inputs": [
        {
          "internalType": "address",
          "name": "",
          "type": "address"
        }
      ],
      "name": "facilitators",
      "outputs": [
        {
          "internalType": "bool",
          "name": "",
          "type": "bool"
        }
      ],
      "stateMutability": "view",
      "type": "function"
    },
    {
      "inputs": [
        {
          "internalType": "address",
          "name": "owner",
          "type": "address"
        }
      ],
      "name": "getNonce",
      "outputs": [
        {
          "internalType": "uint256",
          "name": "",
          "type": "uint256"
        }
      ],
      "stateMutability": "view",
      "type": "function"
    },
    {
      "inputs": [
        {
          "internalType": "address",
          "name": "addr",
          "type": "address"
        }
      ],
      "name": "isFacilitator",
      "outputs": [
        {
          "internalType": "bool",
          "name": "",
          "type": "bool"
        }
      ],
      "stateMutability": "view",
      "type": "function"
    },
    {
      "inputs": [
        {
          "internalType": "bytes32",
          "name": "paymentId",
          "type": "bytes32"
        }
      ],
      "name": "isPaymentIdUsed",
      "outputs": [
        {
          "internalType": "bool",
          "name": "",
          "type": "bool"
        }
      ],
      "stateMutability": "view",
      "type": "function"
    },
    {
      "inputs": [
        {
          "internalType": "address",
          "name": "",
          "type": "address"
        }
      ],
      "name": "nonces",
      "outputs": [
        {
          "internalType": "uint256",
          "name": "",
          "type": "uint256"
        }
      ],
      "stateMutability": "view",
      "type": "function"
    },
    {
      "inputs": [],
      "name": "owner",
      "outputs": [
        {
          "internalType": "address",
          "name": "",
          "type": "address"
        }
      ],
      "stateMutability": "view",
      "type": "function"
    },
    {
      "inputs": [],
      "name": "paused",
      "outputs": [
        {
          "internalType": "bool",
          "name": "",
          "type": "bool"
        }
      ],
      "stateMutability": "view",
      "type": "function"
    },
    {
      "inputs": [],
      "name": "renounceOwnership",
      "outputs": [],
      "stateMutability": "nonpayable",
      "type": "function"
    },
    {
      "inputs": [
        {
          "internalType": "address",
          "name": "facilitator",
          "type": "address"
        },
        {
          "internalType": "bool",
          "name": "authorized",
          "type": "bool"
        }
      ],
      "name": "setFacilitator",
      "outputs": [],
      "stateMutability": "nonpayable",
      "type": "function"
    },
    {
      "inputs": [
        {
          "internalType": "bool",
          "name": "_paused",
          "type": "bool"
        }
      ],
      "name": "setPaused",
      "outputs": [],
      "stateMutability": "nonpayable",
      "type": "function"
    },
    {
      "inputs": [
        {
          "internalType": "address",
          "name": "newOwner",
          "type": "address"
        }
      ],
      "name": "transferOwnership",
      "outputs": [],
      "stateMutability": "nonpayable",
      "type": "function"
    },
    {
      "inputs": [
        {
          "internalType": "bytes32",
          "name": "",
          "type": "bytes32"
        }
      ],
      "name": "usedPaymentIds",
      "outputs": [
        {
          "internalType": "bool",
          "name": "",
          "type": "bool"
        }
      ],
      "stateMutability": "view",
      "type": "function"
    },
    {
      "stateMutability": "payable",
      "type": "receive"
    }
  ],
  "bytecode": "0x610160346200023b576001600160401b0390601f620016d338819003918201601f191683019291848411838510176200022557808392604095865283396020928391810103126200023b57516001600160a01b039290838116908190036200023b578151926200006f8462000240565b600484528084019463389a181960e11b86528351966200008f8862000240565b60018852828801603160f81b8152620000a8876200025c565b97610120988952620000ba8a6200042f565b97610140988952519020988960e05251902061010098818a524660a052865191858301917f8b73c3c69bb8fe3d512ecc4cf759cc79239f7b179b0ffacaa9a75d522b39400f83528884015260608301524660808301523060a083015260a0825260c0820192828410908411176200022557828752815190206080523060c05284156200020e575050600280546001600160a01b03198116851790915584517f23b563b53629727de17c5cec4b391a63440584fdaf0d888a95bbc671da2c62e1939290918591167f8be0079c531659141344cd1fd0a4f28419497f9722a3daafe3b4186f6b6457e0600080a36001600355836000526006825284600020600160ff1982541617905560018152a251916110f69384620005dd853960805184610f47015260a05184611002015260c05184610f11015260e05184610f9601525183610fbc0152518261033c015251816103650152f35b631e4fbdf760e01b8252600060c490910152602490fd5b634e487b7160e01b600052604160045260246000fd5b600080fd5b604081019081106001600160401b038211176200022557604052565b80516020919082811015620002fb575090601f8251116200029a57808251920151908083106200028b57501790565b82600019910360031b1b161790565b90604051809263305a27a960e01b82528060048301528251908160248401526000935b828510620002e1575050604492506000838284010152601f80199101168101030190fd5b8481018201518686016044015293810193859350620002bd565b6001600160401b03811162000225576000928354926001938481811c9116801562000424575b838210146200041057601f8111620003da575b5081601f8411600114620003735750928293918392869462000367575b50501b916000199060031b1c191617905560ff90565b01519250388062000351565b919083601f1981168780528488209488905b88838310620003bf5750505010620003a5575b505050811b01905560ff90565b015160001960f88460031b161c1916905538808062000398565b85870151885590960195948501948793509081019062000385565b85805284601f848820920160051c820191601f860160051c015b8281106200040457505062000334565b878155018590620003f4565b634e487b7160e01b86526022600452602486fd5b90607f169062000321565b805160209081811015620004bd5750601f8251116200045c57808251920151908083106200028b57501790565b90604051809263305a27a960e01b82528060048301528251908160248401526000935b828510620004a3575050604492506000838284010152601f80199101168101030190fd5b84810182015186860160440152938101938593506200047f565b9192916001600160401b038111620002255760019182548381811c91168015620005d1575b82821014620005bb57601f811162000582575b5080601f83116001146200053557508192939460009262000529575b5050600019600383901b1c191690821b17905560ff90565b01519050388062000511565b90601f198316958460005282600020926000905b8882106200056a5750508385969710620003a557505050811b01905560ff90565b80878596829496860151815501950193019062000549565b8360005283601f83600020920160051c820191601f850160051c015b828110620005ae575050620004f5565b600081550184906200059e565b634e487b7160e01b600052602260045260246000fd5b90607f1690620004e256fe6080604052600436101561001b575b361561001957600080fd5b005b60003560e01c806316c38b3c14610a545780632c03ae6a14610a195780632d0335ab1461043057806333460540146109da5780634b719ab6146109da57806352e1e8a71461046a5780635c975abb146109b757806369b0d768146104f8578063715018a61461049b5780637c0ce81e1461046a5780637ecebe001461043057806384b0196e146103265780638da5cb5b146102fd5780638f57e97d1461027e578063e63ea40814610191578063f2fde38b146101035763f698da250361000e57346100fe5760003660031901126100fe5760206100f6610f0e565b604051908152f35b600080fd5b346100fe5760203660031901126100fe5761011c610ab6565b610124610b22565b6001600160a01b0390811690811561017857600254826bffffffffffffffffffffffff60a01b821617600255167f8be0079c531659141344cd1fd0a4f28419497f9722a3daafe3b4186f6b6457e0600080a3005b604051631e4fbdf760e01b815260006004820152602490fd5b346100fe5760603660031901126100fe576101aa610ab6565b6101b2610acc565b604435916101be610b22565b6001600160a01b039081169081610221575050600080809381935af16101e2611028565b50156101ea57005b60405162461bcd60e51b815260206004820152600f60248201526e151c985b9cd9995c8819985a5b1959608a1b6044820152606490fd5b60405163a9059cbb60e01b602082015292166024830152604480830193909352918152608081019167ffffffffffffffff8311828410176102685761001992604052611058565b634e487b7160e01b600052604160045260246000fd5b346100fe5760403660031901126100fe57610297610ab6565b602435908115158092036100fe5760207f23b563b53629727de17c5cec4b391a63440584fdaf0d888a95bbc671da2c62e1916102d1610b22565b60018060a01b0316928360005260068252604060002060ff1981541660ff8316179055604051908152a2005b346100fe5760003660031901126100fe576002546040516001600160a01b039091168152602090f35b346100fe5760003660031901126100fe576103607f0000000000000000000000000000000000000000000000000000000000000000610ba8565b6103897f0000000000000000000000000000000000000000000000000000000000000000610cce565b60405160208082019282841067ffffffffffffffff8511176102685791816103e385946103d5979660405260008452604051978897600f60f81b895260e0858a015260e0890190610ae2565b908782036040890152610ae2565b91466060870152306080870152600060a087015285830360c0870152519182815201929160005b82811061041957505050500390f35b83518552869550938101939281019260010161040a565b346100fe5760203660031901126100fe576001600160a01b03610451610ab6565b1660005260046020526020604060002054604051908152f35b346100fe5760203660031901126100fe576004356000526005602052602060ff604060002054166040519015158152f35b346100fe5760003660031901126100fe576104b4610b22565b600280546001600160a01b031981169091556000906001600160a01b03167f8be0079c531659141344cd1fd0a4f28419497f9722a3daafe3b4186f6b6457e08280a3005b346100fe576101003660031901126100fe57610512610ab6565b61051a610acc565b6044356001600160a01b03811690036100fe576064356001600160a01b03811690036100fe5767ffffffffffffffff60e435116100fe5736602360e4350112156100fe5767ffffffffffffffff60e43560040135116100fe5736602460e4356004013560e4350101116100fe576002600354146109a557600260035560ff600754166109935733600052600660205260ff6040600020541615908161097f575b5061096d5760c435421161095b576001600160a01b03811660009081526004602052604090205460a43503610949576064356001600160a01b03161561093757608435156109255760405160208101906bffffffffffffffffffffffff19808460601b1683528060443560601b16603483015260643560601b166048820152608435605c82015260a435607c82015260c435609c820152609c815261065e81610b4e565b5190209081600052600560205260ff6040600020541661091357604080517f598674b7ce3b0ff6baba51e0f568a28523cbe682005ed77e157fc436ec0454ac60208201526001600160a01b038381169282019290925260443582166060820152608435608082015260643590911660a082015260c43560c082015260e0810183905260a43561010080830191909152815267ffffffffffffffff6101208201908111908211176102685761078560428261012061078e940160405260208151910120610728610f0e565b906040519161190160f01b8352600283015260228201522061074f60e43560040135610da1565b9061075d6040519283610b86565b60e43560048101358084529060240160208401376000602060e4356004013584010152610dbd565b90929192610e89565b6001600160a01b03828116911603610901578160005260056020526040600020600160ff19825416179055600160a435018060a435116108eb576001600160a01b038281166000908152600460205260409020919091556044351661087e5760008080806084356064355af1610802611028565b501561086c575b604080516084358152602081019390935260a435908301523360608301526001600160a01b03606435811692604435821692909116907fb0387b5c71825a2ea4e7bb954233626e7eb24839708f820e8a1fcf3fd83872c190608090a46001600355005b6040516312171d8360e31b8152600490fd5b6040516323b872dd60e01b60208201526001600160a01b03828116602483015260648035909116604483015260843581830152815260a081019067ffffffffffffffff821181831017610268576040919091526108e6906044356001600160a01b0316611058565b610809565b634e487b7160e01b600052601160045260246000fd5b604051638baa579f60e01b8152600490fd5b604051637a623f7760e01b8152600490fd5b60405163162908e360e11b8152600490fd5b604051634e46966960e11b8152600490fd5b604051633ab3447f60e11b8152600490fd5b60405163f87d927160e01b8152600490fd5b604051630f6fae8760e01b8152600490fd5b6001600160a01b03163314159050826105ba565b60405163ab35696f60e01b8152600490fd5b604051633ee5aeb560e01b8152600490fd5b346100fe5760003660031901126100fe57602060ff600754166040519015158152f35b346100fe5760203660031901126100fe576001600160a01b036109fb610ab6565b166000526006602052602060ff604060002054166040519015158152f35b346100fe5760003660031901126100fe5760206040517f598674b7ce3b0ff6baba51e0f568a28523cbe682005ed77e157fc436ec0454ac8152f35b346100fe5760203660031901126100fe576004358015158091036100fe5760207f9e3a5e37224532dea67b89face185703738a228a6e8a23dee546960180d3be6491610a9e610b22565b60ff196007541660ff821617600755604051908152a1005b600435906001600160a01b03821682036100fe57565b602435906001600160a01b03821682036100fe57565b919082519283825260005b848110610b0e575050826000602080949584010152601f8019910116010190565b602081830181015184830182015201610aed565b6002546001600160a01b03163303610b3657565b60405163118cdaa760e01b8152336004820152602490fd5b60c0810190811067ffffffffffffffff82111761026857604052565b6040810190811067ffffffffffffffff82111761026857604052565b90601f8019910116810190811067ffffffffffffffff82111761026857604052565b60ff8114610be65760ff811690601f8211610bd45760405191610bca83610b6a565b8252602082015290565b604051632cd44ac360e21b8152600490fd5b506040516000805490600182811c90808416938415610cc4575b6020948584108114610cb05783875286949392918115610c905750600114610c34575b5050610c3192500382610b86565b90565b60008080527f290decd9548b62a8d60345a988386fc84ba6bc95484008f6362f93160ef3e56395935091905b818310610c78575050610c3193508201013880610c23565b85548784018501529485019486945091830191610c60565b915050610c3194925060ff191682840152151560051b8201013880610c23565b634e487b7160e01b85526022600452602485fd5b91607f1691610c00565b60ff8114610cf05760ff811690601f8211610bd45760405191610bca83610b6a565b50604051600060019081549182811c90808416938415610d97575b6020948584108114610cb05783875286949392918115610c905750600114610d3b575050610c3192500382610b86565b60008181527fb10e2d527612073b26eecdfd717e6a320cf44b4afac2b0732d9fcbe2b7fa0cf695935091905b818310610d7f575050610c3193508201013880610c23565b85548784018501529485019486945091830191610d67565b91607f1691610d0b565b67ffffffffffffffff811161026857601f01601f191660200190565b8151919060418303610dee57610de792506020820151906060604084015193015160001a90610df9565b9192909190565b505060009160029190565b91907f7fffffffffffffffffffffffffffffff5d576e7357a4501ddfe92f46681b20a08411610e7d57926020929160ff608095604051948552168484015260408301526060820152600092839182805260015afa15610e715780516001600160a01b03811615610e6857918190565b50809160019190565b604051903d90823e3d90fd5b50505060009160039190565b6004811015610ef85780610e9b575050565b60018103610eb55760405163f645eedf60e01b8152600490fd5b60028103610ed65760405163fce698f760e01b815260048101839052602490fd5b600314610ee05750565b602490604051906335e2f38360e21b82526004820152fd5b634e487b7160e01b600052602160045260246000fd5b307f00000000000000000000000000000000000000000000000000000000000000006001600160a01b03161480610fff575b15610f69577f000000000000000000000000000000000000000000000000000000000000000090565b60405160208101907f8b73c3c69bb8fe3d512ecc4cf759cc79239f7b179b0ffacaa9a75d522b39400f82527f000000000000000000000000000000000000000000000000000000000000000060408201527f000000000000000000000000000000000000000000000000000000000000000060608201524660808201523060a082015260a08152610ff981610b4e565b51902090565b507f00000000000000000000000000000000000000000000000000000000000000004614610f40565b3d15611053573d9061103982610da1565b916110476040519384610b86565b82523d6000602084013e565b606090565b906000602091828151910182855af1156110b4576000513d6110ab57506001600160a01b0381163b155b6110895750565b604051635274afe760e01b81526001600160a01b039091166004820152602490fd5b60011415611082565b6040513d6000823e3d90fdfea26469706673582212202211585db77965b03a6180c9dd2dfe4587b7829f2a6c383c9ec0773cc54b8a2a64736f6c63430008140033",
  "linkReferences": {},
  "deployedLinkReferences": {}
}