{
  "_format": "hh-sol-artifact-1",
  "contractName": "Q402Vault",
  "sourceName": "contracts/Q402Vault.sol",
  "abi": [
    {
      "inputs": [
        {
          "internalType": "address",
          "name": "_owner",
          "type": "address"
        }
      ],
      "stateMutability": "nonpayable",
      "type": "constructor"
    },
    {
      "inputs": [],
      "name": "ContractPaused",
      "type": "error"
    },
    {
      "inputs": [],
      "name": "ECDSAInvalidSignature",
      "type": "error"
    },
    {
      "inputs": [
        {
          "internalType": "uint256",
          "name": "length",
          "type": "uint256"
        }
      ],
      "name": "ECDSAInvalidSignatureLength",
      "type": "error"
    },
    {
      "inputs": [
        {
          "internalType": "bytes32",
          "name": "s",
          "type": "bytes32"
        }
      ],
      "name": "ECDSAInvalidSignatureS",
      "type": "error"
    },
    {
      "inputs": [],
      "name": "ExpiredDeadline",
      "type": "error"
    },
    {
      "inputs": [],
      "name": "InsufficientBalance",
      "type": "error"
    },
    {
      "inputs": [],
      "name": "InvalidAmount",
      "type": "error"
    },
    {
      "inputs": [],
      "name": "InvalidNonce",
      "type": "error"
    },
    {
      "inputs": [],
      "name": "InvalidRecipient",
      "type": "error"
    },
    {
      "inputs": [],
      "name": "InvalidShortString",
      "type": "error"
    },
    {
      "inputs": [],
      "name": "InvalidSignature",
      "type": "error"
    },
    {
      "inputs": [
        {
          "internalType": "address",
          "name": "owner",
          "type": "address"
        }
      ],
      "name": "OwnableInvalidOwner",
      "type": "error"
    },
    {
      "inputs": [
        {
          "internalType": "address",
          "name": "account",
          "type": "address"
        }
      ],
      "name": "OwnableUnauthorizedAccount",
      "type": "error"
    },
    {
      "inputs": [],
      "name": "ReentrancyGuardReentrantCall",
      "type": "error"
    },
    {
      "inputs": [
        {
          "internalType": "string",
          "name": "str",
          "type": "string"
        }
      ],
      "name": "StringTooLong",
      "type": "error"
    },
    {
      "inputs": [],
      "name": "TransferFailed",
      "type": "error"
    },
    {
      "inputs": [],
      "name": "TransferIdAlreadyUsed",
      "type": "error"
    },
    {
      "inputs": [],
      "name": "UnauthorizedFacilitator",
      "type": "error"
    },
    {
      "inputs": [],
      "name": "ZeroDeposit",
      "type": "error"
    },
    {
      "anonymous": false,
      "inputs": [
        {
          "indexed": true,
          "internalType": "address",
          "name": "user",
          "type": "address"
        },
        {
          "indexed": false,
          "internalType": "uint256",
          "name": "amount",
          "type": "uint256"
        },
        {
          "indexed": false,
          "internalType": "uint256",
          "name": "newBalance",
          "type": "uint256"
        }
      ],
      "name": "Deposited",
      "type": "event"
    },
    {
      "anonymous": false,
      "inputs": [],
      "name": "EIP712DomainChanged",
      "type": "event"
    },
    {
      "anonymous": false,
      "inputs": [
        {
          "indexed": true,
          "internalType": "address",
          "name": "facilitator",
          "type": "address"
        },
        {
          "indexed": false,
          "internalType": "bool",
          "name": "authorized",
          "type": "bool"
        }
      ],
      "name": "FacilitatorUpdated",
      "type": "event"
    },
    {
      "anonymous": false,
      "inputs": [
        {
          "indexed": true,
          "internalType": "address",
          "name": "previousOwner",
          "type": "address"
        },
        {
          "indexed": true,
          "internalType": "address",
          "name": "newOwner",
          "type": "address"
        }
      ],
      "name": "OwnershipTransferred",
      "type": "event"
    },
    {
      "anonymous": false,
      "inputs": [
        {
          "indexed": false,
          "internalType": "bool",
          "name": "paused",
          "type": "bool"
        }
      ],
      "name": "PausedStateChanged",
      "type": "event"
    },
    {
      "anonymous": false,
      "inputs": [
        {
          "indexed": true,
          "internalType": "address",
          "name": "owner",
          "type": "address"
        },
        {
          "indexed": true,
          "internalType": "address",
          "name": "recipient",
          "type": "address"
        },
        {
          "indexed": false,
          "internalType": "uint256",
          "name": "amount",
          "type": "uint256"
        },
        {
          "indexed": false,
          "internalType": "bytes32",
          "name": "transferId",
          "type": "bytes32"
        },
        {
          "indexed": false,
          "internalType": "uint256",
          "name": "nonce",
          "type": "uint256"
        },
        {
          "indexed": false,
          "internalType": "address",
          "name": "facilitator",
          "type": "address"
        }
      ],
      "name": "TransferExecuted",
      "type": "event"
    },
    {
      "anonymous": false,
      "inputs": [
        {
          "indexed": true,
          "internalType": "address",
          "name": "user",
          "type": "address"
        },
        {
          "indexed": false,
          "internalType": "uint256",
          "name": "amount",
          "type": "uint256"
        },
        {
          "indexed": false,
          "internalType": "uint256",
          "name": "newBalance",
          "type": "uint256"
        }
      ],
      "name": "Withdrawn",
      "type": "event"
    },
    {
      "inputs": [],
      "name": "TRANSFER_TYPEHASH",
      "outputs": [
        {
          "internalType": "bytes32",
          "name": "",
          "type": "bytes32"
        }
      ],
      "stateMutability": "view",
      "type": "function"
    },
    {
      "inputs": [
        {
          "internalType": "address",
          "name": "",
          "type": "address"
        }
      ],
      "name": "balances",
      "outputs": [
        {
          "internalType": "uint256",
          "name": "",
          "type": "uint256"
        }
      ],
      "stateMutability": "view",
      "type": "function"
    },
    {
      "inputs": [],
      "name": "deposit",
      "outputs": [],
      "stateMutability": "payable",
      "type": "function"
    },
    {
      "inputs": [],
      "name": "domainSeparator",
      "outputs": [
        {
          "internalType": "bytes32",
          "name": "",
          "type": "bytes32"
        }
      ],
      "stateMutability": "view",
      "type": "function"
    },
    {
      "inputs": [],
      "name": "eip712Domain",
      "outputs": [
        {
          "internalType": "bytes1",
          "name": "fields",
          "type": "bytes1"
        },
        {
          "internalType": "string",
          "name": "name",
          "type": "string"
        },
        {
          "internalType": "string",
          "name": "version",
          "type": "string"
        },
        {
          "internalType": "uint256",
          "name": "chainId",
          "type": "uint256"
        },
        {
          "internalType": "address",
          "name": "verifyingContract",
          "type": "address"
        },
        {
          "internalType": "bytes32",
          "name": "salt",
          "type": "bytes32"
        },
        {
          "internalType": "uint256[]",
          "name": "extensions",
          "type": "uint256[]"
        }
      ],
      "stateMutability": "view",
      "type": "function"
    },
    {
      "inputs": [
        {
          "internalType": "address",
          "name": "to",
          "type": "address"
        },
        {
          "internalType": "uint256",
          "name": "amount",
          "type": "uint256"
        }
      ],
      "name": "emergencyWithdraw",
      "outputs": [],
      "stateMutability": "nonpayable",
      "type": "function"
    },
    {
      "inputs": [
        {
          "internalType": "address",
          "name": "owner",
          "type": "address"
        },
        {
          "internalType": "address",
          "name": "recipient",
          "type": "address"
        },
        {
          "internalType": "uint256",
          "name": "amount",
          "type": "uint256"
        },
        {
          "internalType": "uint256",
          "name": "deadline",
          "type": "uint256"
        },
        {
          "internalType": "bytes32",
          "name": "transferId",
          "type": "bytes32"
        },
        {
          "internalType": "bytes",
          "name": "signature",
          "type": "bytes"
        }
      ],
      "name": "executeTransfer",
      "outputs": [],
      "stateMutability": "nonpayable",
      "type": "function"
    },
    {
      "inputs": [
        {
          "internalType": "address",
          "name": "",
          "type": "address"
        }
      ],
      "name": "facilitators",
      "outputs": [
        {
          "internalType": "bool",
          "name": "",
          "type": "bool"
        }
      ],
      "stateMutability": "view",
      "type": "function"
    },
    {
      "inputs": [
        {
          "internalType": "address",
          "name": "user",
          "type": "address"
        }
      ],
      "name": "getBalance",
      "outputs": [
        {
          "internalType": "uint256",
          "name": "",
          "type": "uint256"
        }
      ],
      "stateMutability": "view",
      "type": "function"
    },
    {
      "inputs": [],
      "name": "getChainId",
      "outputs": [
        {
          "internalType": "uint256",
          "name": "",
          "type": "uint256"
        }
      ],
      "stateMutability": "view",
      "type": "function"
    },
    {
      "inputs": [
        {
          "internalType": "address",
          "name": "user",
          "type": "address"
        }
      ],
      "name": "getNonce",
      "outputs": [
        {
          "internalType": "uint256",
          "name": "",
          "type": "uint256"
        }
      ],
      "stateMutability": "view",
      "type": "function"
    },
    {
      "inputs": [
        {
          "internalType": "address",
          "name": "addr",
          "type": "address"
        }
      ],
      "name": "isFacilitator",
      "outputs": [
        {
          "internalType": "bool",
          "name": "",
          "type": "bool"
        }
      ],
      "stateMutability": "view",
      "type": "function"
    },
    {
      "inputs": [
        {
          "internalType": "bytes32",
          "name": "transferId",
          "type": "bytes32"
        }
      ],
      "name": "isTransferIdUsed",
      "outputs": [
        {
          "internalType": "bool",
          "name": "",
          "type": "bool"
        }
      ],
      "stateMutability": "view",
      "type": "function"
    },
    {
      "inputs": [
        {
          "internalType": "address",
          "name": "",
          "type": "address"
        }
      ],
      "name": "nonces",
      "outputs": [
        {
          "internalType": "uint256",
          "name": "",
          "type": "uint256"
        }
      ],
      "stateMutability": "view",
      "type": "function"
    },
    {
      "inputs": [],
      "name": "owner",
      "outputs": [
        {
          "internalType": "address",
          "name": "",
          "type": "address"
        }
      ],
      "stateMutability": "view",
      "type": "function"
    },
    {
      "inputs": [],
      "name": "paused",
      "outputs": [
        {
          "internalType": "bool",
          "name": "",
          "type": "bool"
        }
      ],
      "stateMutability": "view",
      "type": "function"
    },
    {
      "inputs": [],
      "name": "renounceOwnership",
      "outputs": [],
      "stateMutability": "nonpayable",
      "type": "function"
    },
    {
      "inputs": [
        {
          "internalType": "address",
          "name": "facilitator",
          "type": "address"
        },
        {
          "internalType": "bool",
          "name": "authorized",
          "type": "bool"
        }
      ],
      "name": "setFacilitator",
      "outputs": [],
      "stateMutability": "nonpayable",
      "type": "function"
    },
    {
      "inputs": [
        {
          "internalType": "bool",
          "name": "_paused",
          "type": "bool"
        }
      ],
      "name": "setPaused",
      "outputs": [],
      "stateMutability": "nonpayable",
      "type": "function"
    },
    {
      "inputs": [],
      "name": "totalDeposited",
      "outputs": [
        {
          "internalType": "uint256",
          "name": "",
          "type": "uint256"
        }
      ],
      "stateMutability": "view",
      "type": "function"
    },
    {
      "inputs": [
        {
          "internalType": "address",
          "name": "newOwner",
          "type": "address"
        }
      ],
      "name": "transferOwnership",
      "outputs": [],
      "stateMutability": "nonpayable",
      "type": "function"
    },
    {
      "inputs": [
        {
          "internalType": "bytes32",
          "name": "",
          "type": "bytes32"
        }
      ],
      "name": "usedTransferIds",
      "outputs": [
        {
          "internalType": "bool",
          "name": "",
          "type": "bool"
        }
      ],
      "stateMutability": "view",
      "type": "function"
    },
    {
      "inputs": [
        {
          "internalType": "uint256",
          "name": "amount",
          "type": "uint256"
        }
      ],
      "name": "withdraw",
      "outputs": [],
      "stateMutability": "nonpayable",
      "type": "function"
    },
    {
      "inputs": [],
      "name": "withdrawAll",
      "outputs": [],
      "stateMutability": "nonpayable",
      "type": "function"
    },
    {
      "stateMutability": "payable",
      "type": "receive"
    }
  ],
  "bytecode": "0x6101603462000240576001600160401b0390601f620017f238819003918201601f191683019291848411838510176200022a57808392604095865283396020928391810103126200024057516001600160a01b0392908381169081900362000240578151926200006f8462000245565b600984528084019468144d0c0c95985d5b1d60ba1b8652835196620000948862000245565b60018852828801603160f81b8152620000ad8762000261565b97610120988952620000bf8a62000434565b97610140988952519020988960e05251902061010098818a524660a052865191858301917f8b73c3c69bb8fe3d512ecc4cf759cc79239f7b179b0ffacaa9a75d522b39400f83528884015260608301524660808301523060a083015260a0825260c0820192828410908411176200022a57828752815190206080523060c052841562000213575050600280546001600160a01b03198116851790915584517f23b563b53629727de17c5cec4b391a63440584fdaf0d888a95bbc671da2c62e1939290918591167f8be0079c531659141344cd1fd0a4f28419497f9722a3daafe3b4186f6b6457e0600080a36001600355836000526007825284600020600160ff1982541617905560018152a251916112109384620005e28539608051846110e8015260a051846111b4015260c051846110b2015260e051846111370152518361115d0152518261054e015251816105780152f35b631e4fbdf760e01b8252600060c490910152602490fd5b634e487b7160e01b600052604160045260246000fd5b600080fd5b604081019081106001600160401b038211176200022a57604052565b8051602091908281101562000300575090601f8251116200029f57808251920151908083106200029057501790565b82600019910360031b1b161790565b90604051809263305a27a960e01b82528060048301528251908160248401526000935b828510620002e6575050604492506000838284010152601f80199101168101030190fd5b8481018201518686016044015293810193859350620002c2565b6001600160401b0381116200022a576000928354926001938481811c9116801562000429575b838210146200041557601f8111620003df575b5081601f841160011462000378575092829391839286946200036c575b50501b916000199060031b1c191617905560ff90565b01519250388062000356565b919083601f1981168780528488209488905b88838310620003c45750505010620003aa575b505050811b01905560ff90565b015160001960f88460031b161c191690553880806200039d565b8587015188559096019594850194879350908101906200038a565b85805284601f848820920160051c820191601f860160051c015b8281106200040957505062000339565b878155018590620003f9565b634e487b7160e01b86526022600452602486fd5b90607f169062000326565b805160209081811015620004c25750601f8251116200046157808251920151908083106200029057501790565b90604051809263305a27a960e01b82528060048301528251908160248401526000935b828510620004a8575050604492506000838284010152601f80199101168101030190fd5b848101820151868601604401529381019385935062000484565b9192916001600160401b0381116200022a5760019182548381811c91168015620005d6575b82821014620005c057601f811162000587575b5080601f83116001146200053a5750819293946000926200052e575b5050600019600383901b1c191690821b17905560ff90565b01519050388062000516565b90601f198316958460005282600020926000905b8882106200056f5750508385969710620003aa57505050811b01905560ff90565b8087859682949686015181550195019301906200054e565b8360005283601f83600020920160051c820191601f850160051c015b828110620005b3575050620004fa565b60008155018490620005a3565b634e487b7160e01b600052602260045260246000fd5b90607f1690620004e756fe608060409080825260049081361015610085575b50361561001f57600080fd5b336000528060205281600020610036348254610edb565b905561004434600954610edb565b600955336000526020527f73a19dd210f1a7f902193214c0ee91dd35ee5b4d920cba8d519eca65a7b488ca81600020549180519234845260208401523392a2005b600090813560e01c908162bf26f414610bb15750806316c38b3c14610b4d5780631d464bd91461045757806327e235e3146101b75780632d0335ab146106545780632e1a7d4d14610a8c57806333460540146107105780633408e47014610a715780633c6801b71461074e5780634b719ab6146107105780635c975abb146106ec578063715018a61461068c5780637ecebe001461065457806384b0196e14610537578063853828b61461048557806389f3b3a4146104575780638da5cb5b1461042e5780638f57e97d146103ac57806395ccea6714610339578063d0e30db0146102a7578063f2fde38b14610216578063f698da25146101f2578063f8b2cb4f146101b75763ff50abdc036100135782346101b357816003193601126101b3576020906009549051908152f35b5080fd5b509190346101ee5760203660031901126101ee5760209282916001600160a01b036101e0610beb565b168252845220549051908152f35b8280fd5b5082346101b357816003193601126101b35760209061020f6110af565b9051908152f35b509190346101ee5760203660031901126101ee57610232610beb565b9061023b610c46565b6001600160a01b03918216928315610291575050600254826bffffffffffffffffffffffff60a01b821617600255167f8be0079c531659141344cd1fd0a4f28419497f9722a3daafe3b4186f6b6457e08380a380f35b51631e4fbdf760e01b8152908101849052602490fd5b509190826003193601126101ee576102bd610efe565b341561032b57338352806020528183206102d8348254610edb565b90556102e634600954610edb565b6009553383526020527f73a19dd210f1a7f902193214c0ee91dd35ee5b4d920cba8d519eca65a7b488ca818320549180519234845260208401523392a2600160035580f35b90516356316e8760e01b8152fd5b5091346101ee57806003193601126101ee5782808080610357610beb565b61035f610c46565b602435905af161036d610f2e565b5015610377578280f35b906020606492519162461bcd60e51b8352820152600f60248201526e151c985b9cd9995c8819985a5b1959608a1b6044820152fd5b5082346101b357806003193601126101b3576103c6610beb565b6024359081151580920361042a577f23b563b53629727de17c5cec4b391a63440584fdaf0d888a95bbc671da2c62e191602091610401610c46565b6001600160a01b031680865260078352848620805460ff191660ff84161790559351908152a280f35b8380fd5b5082346101b357816003193601126101b35760025490516001600160a01b039091168152602090f35b509190346101ee5760203660031901126101ee578160209360ff923581526006855220541690519015158152f35b5091346101ee57826003193601126101ee5761049f610efe565b3383528160205280832054918215610529573384528060205283828120556104c983600954610f21565b6009558380808086335af16104dc610f2e565b501561051b5750807f92ccf450a286a957af52509bc1c9939d1a6a481783e142e41e2499f0bb66ebc691519283528360208401523392a2600160035580f35b90516312171d8360e31b8152fd5b9051631e9acf1760e31b8152fd5b5091346101ee57826003193601126101ee576105727f0000000000000000000000000000000000000000000000000000000000000000610cc6565b9261059c7f0000000000000000000000000000000000000000000000000000000000000000610dec565b908251926020928385019585871067ffffffffffffffff881117610641575092806105f78388966105ea998b9996528686528151998a99600f60f81b8b5260e0868c015260e08b0190610c06565b91898303908a0152610c06565b924660608801523060808801528460a088015286840360c088015251928381520193925b82811061062a57505050500390f35b83518552869550938101939281019260010161061b565b634e487b7160e01b845260419052602483fd5b5082346101b35760203660031901126101b35760209181906001600160a01b0361067c610beb565b1681526005845220549051908152f35b50346106e957806003193601126106e9576106a5610c46565b600280546001600160a01b0319811690915581906001600160a01b03167f8be0079c531659141344cd1fd0a4f28419497f9722a3daafe3b4186f6b6457e08280a380f35b80fd5b5082346101b357816003193601126101b35760209060ff6008541690519015158152f35b5082346101b35760203660031901126101b35760209160ff9082906001600160a01b0361073b610beb565b1681526007855220541690519015158152f35b5082346101b35760c03660031901126101b357610769610beb565b926024356001600160a01b038181169390848303610a6d5760443593606435936084359260a43567ffffffffffffffff808211610a695736602383011215610a69578185013590808211610a65573660248385010111610a65576107cb610efe565b60ff60085416610a5557908b959493929133875260ff8960209860078a5220541615610a4557894211610a35578b15610a25578a15610a15578a898e9f9d9e9d86169d8e8152888a52205410610a055760ff898f8a815260068a522054166109f5578c8c918f80848d925260058b5220549b8b51928a8401947f5359604f811603e69f529aa57c2bb750f0050f2898bf83c1d44a95abe5fb91dd86528d85015260608401528d608084015260a08301528960c08301528b60e083015260e08252610100820190828210908211176109e157938f898f9796958060248f966108fe986042916109079b8a525190206108c06110af565b9089519161190160f01b83526002830152602282015220956108ed6108e484610ebf565b98519889610ca4565b828852018387013784010152610f5e565b9092919261102a565b16036109d257838a5260068352848a20600160ff19825416179055600186018087116109bf578a8089819482948d8452600589528a842055868852898320610950838254610f21565b905561095e82600954610f21565b6009555af161096b610f2e565b50156109b1575082519485528401528201523360608201527f9dc18f9e082b8355e5faf012a74378bbfe2d5904c585ad9d4ae583e37bc5190d90608090a3600160035580f35b83516312171d8360e31b8152fd5b634e487b7160e01b8b526011835260248bfd5b508351638baa579f60e01b8152fd5b50634e487b7160e01b8f526041875260248ffd5b88516307527b7760e41b81528690fd5b8851631e9acf1760e31b81528690fd5b885163162908e360e11b81528690fd5b8851634e46966960e11b81528690fd5b885163f87d927160e01b81528690fd5b8851630f6fae8760e01b81528690fd5b875163ab35696f60e01b81528690fd5b8b80fd5b8a80fd5b8580fd5b5082346101b357816003193601126101b35760209051468152f35b5091346101ee5760203660031901126101ee57813591610aaa610efe565b8215610b3f57338452806020528282852054106105295733845280602052818420610ad6848254610f21565b9055610ae483600954610f21565b6009558380808086335af1610af7610f2e565b501561051b57907f92ccf450a286a957af52509bc1c9939d1a6a481783e142e41e2499f0bb66ebc69133855260205280842054815193845260208401523392a2600160035580f35b905163162908e360e11b8152fd5b509190346101ee5760203660031901126101ee5735908115158092036101ee577f9e3a5e37224532dea67b89face185703738a228a6e8a23dee546960180d3be6491602091610b9a610c46565b60ff196008541660ff83161760085551908152a180f35b9050346101b357816003193601126101b357807f5359604f811603e69f529aa57c2bb750f0050f2898bf83c1d44a95abe5fb91dd60209252f35b600435906001600160a01b0382168203610c0157565b600080fd5b919082519283825260005b848110610c32575050826000602080949584010152601f8019910116010190565b602081830181015184830182015201610c11565b6002546001600160a01b03163303610c5a57565b60405163118cdaa760e01b8152336004820152602490fd5b6040810190811067ffffffffffffffff821117610c8e57604052565b634e487b7160e01b600052604160045260246000fd5b90601f8019910116810190811067ffffffffffffffff821117610c8e57604052565b60ff8114610d045760ff811690601f8211610cf25760405191610ce883610c72565b8252602082015290565b604051632cd44ac360e21b8152600490fd5b506040516000805490600182811c90808416938415610de2575b6020948584108114610dce5783875286949392918115610dae5750600114610d52575b5050610d4f92500382610ca4565b90565b60008080527f290decd9548b62a8d60345a988386fc84ba6bc95484008f6362f93160ef3e56395935091905b818310610d96575050610d4f93508201013880610d41565b85548784018501529485019486945091830191610d7e565b915050610d4f94925060ff191682840152151560051b8201013880610d41565b634e487b7160e01b85526022600452602485fd5b91607f1691610d1e565b60ff8114610e0e5760ff811690601f8211610cf25760405191610ce883610c72565b50604051600060019081549182811c90808416938415610eb5575b6020948584108114610dce5783875286949392918115610dae5750600114610e59575050610d4f92500382610ca4565b60008181527fb10e2d527612073b26eecdfd717e6a320cf44b4afac2b0732d9fcbe2b7fa0cf695935091905b818310610e9d575050610d4f93508201013880610d41565b85548784018501529485019486945091830191610e85565b91607f1691610e29565b67ffffffffffffffff8111610c8e57601f01601f191660200190565b91908201809211610ee857565b634e487b7160e01b600052601160045260246000fd5b600260035414610f0f576002600355565b604051633ee5aeb560e01b8152600490fd5b91908203918211610ee857565b3d15610f59573d90610f3f82610ebf565b91610f4d6040519384610ca4565b82523d6000602084013e565b606090565b8151919060418303610f8f57610f8892506020820151906060604084015193015160001a90610f9a565b9192909190565b505060009160029190565b91907f7fffffffffffffffffffffffffffffff5d576e7357a4501ddfe92f46681b20a0841161101e57926020929160ff608095604051948552168484015260408301526060820152600092839182805260015afa156110125780516001600160a01b0381161561100957918190565b50809160019190565b604051903d90823e3d90fd5b50505060009160039190565b6004811015611099578061103c575050565b600181036110565760405163f645eedf60e01b8152600490fd5b600281036110775760405163fce698f760e01b815260048101839052602490fd5b6003146110815750565b602490604051906335e2f38360e21b82526004820152fd5b634e487b7160e01b600052602160045260246000fd5b307f00000000000000000000000000000000000000000000000000000000000000006001600160a01b031614806111b1575b1561110a577f000000000000000000000000000000000000000000000000000000000000000090565b60405160208101907f8b73c3c69bb8fe3d512ecc4cf759cc79239f7b179b0ffacaa9a75d522b39400f82527f000000000000000000000000000000000000000000000000000000000000000060408201527f000000000000000000000000000000000000000000000000000000000000000060608201524660808201523060a082015260a0815260c0810181811067ffffffffffffffff821117610c8e5760405251902090565b507f000000000000000000000000000000000000000000000000000000000000000046146110e156fea2646970667358221220b84d0642b1e0dfa4a52872853c9551343b7bb57a25c6584b84eead6e24913ce764736f6c63430008140033",
  "linkReferences": {},
  "deployedLinkReferences": {}
}