{
  "_format": "hh-sol-artifact-1",
  "contractName": "Q402BatchExecutor",
  "sourceName": "contracts/Q402BatchExecutor.sol",
  "abi": [
    {
      "inputs": [
        {
          "internalType": "address",
          "name": "_owner",
          "type": "address"
        },
        {
          "internalType": "address",
          "name": "_pancakeRouter",
          "type": "address"
        }
      ],
      "stateMutability": "nonpayable",
      "type": "constructor"
    },
    {
      "inputs": [],
      "name": "BatchIdAlreadyUsed",
      "type": "error"
    },
    {
      "inputs": [],
      "name": "CallFailed",
      "type": "error"
    },
    {
      "inputs": [],
      "name": "ContractPaused",
      "type": "error"
    },
    {
      "inputs": [],
      "name": "ECDSAInvalidSignature",
      "type": "error"
    },
    {
      "inputs": [
        {
          "internalType": "uint256",
          "name": "length",
          "type": "uint256"
        }
      ],
      "name": "ECDSAInvalidSignatureLength",
      "type": "error"
    },
    {
      "inputs": [
        {
          "internalType": "bytes32",
          "name": "s",
          "type": "bytes32"
        }
      ],
      "name": "ECDSAInvalidSignatureS",
      "type": "error"
    },
    {
      "inputs": [],
      "name": "ExpiredDeadline",
      "type": "error"
    },
    {
      "inputs": [],
      "name": "InsufficientOutput",
      "type": "error"
    },
    {
      "inputs": [],
      "name": "InvalidAmount",
      "type": "error"
    },
    {
      "inputs": [],
      "name": "InvalidNonce",
      "type": "error"
    },
    {
      "inputs": [],
      "name": "InvalidOperationType",
      "type": "error"
    },
    {
      "inputs": [],
      "name": "InvalidShortString",
      "type": "error"
    },
    {
      "inputs": [],
      "name": "InvalidSignature",
      "type": "error"
    },
    {
      "inputs": [],
      "name": "InvalidTarget",
      "type": "error"
    },
    {
      "inputs": [],
      "name": "OperationsHashMismatch",
      "type": "error"
    },
    {
      "inputs": [
        {
          "internalType": "address",
          "name": "owner",
          "type": "address"
        }
      ],
      "name": "OwnableInvalidOwner",
      "type": "error"
    },
    {
      "inputs": [
        {
          "internalType": "address",
          "name": "account",
          "type": "address"
        }
      ],
      "name": "OwnableUnauthorizedAccount",
      "type": "error"
    },
    {
      "inputs": [],
      "name": "ReentrancyGuardReentrantCall",
      "type": "error"
    },
    {
      "inputs": [],
      "name": "RouterNotWhitelisted",
      "type": "error"
    },
    {
      "inputs": [
        {
          "internalType": "address",
          "name": "token",
          "type": "address"
        }
      ],
      "name": "SafeERC20FailedOperation",
      "type": "error"
    },
    {
      "inputs": [
        {
          "internalType": "string",
          "name": "str",
          "type": "string"
        }
      ],
      "name": "StringTooLong",
      "type": "error"
    },
    {
      "inputs": [],
      "name": "SwapFailed",
      "type": "error"
    },
    {
      "inputs": [],
      "name": "TargetNotWhitelisted",
      "type": "error"
    },
    {
      "inputs": [],
      "name": "TooManyOperations",
      "type": "error"
    },
    {
      "inputs": [],
      "name": "TransferFailed",
      "type": "error"
    },
    {
      "inputs": [],
      "name": "UnauthorizedFacilitator",
      "type": "error"
    },
    {
      "anonymous": false,
      "inputs": [
        {
          "indexed": true,
          "internalType": "address",
          "name": "owner",
          "type": "address"
        },
        {
          "indexed": true,
          "internalType": "bytes32",
          "name": "batchId",
          "type": "bytes32"
        },
        {
          "indexed": false,
          "internalType": "uint256",
          "name": "operationCount",
          "type": "uint256"
        },
        {
          "indexed": false,
          "internalType": "uint256",
          "name": "nonce",
          "type": "uint256"
        },
        {
          "indexed": false,
          "internalType": "address",
          "name": "facilitator",
          "type": "address"
        }
      ],
      "name": "BatchExecuted",
      "type": "event"
    },
    {
      "anonymous": false,
      "inputs": [],
      "name": "EIP712DomainChanged",
      "type": "event"
    },
    {
      "anonymous": false,
      "inputs": [
        {
          "indexed": true,
          "internalType": "address",
          "name": "facilitator",
          "type": "address"
        },
        {
          "indexed": false,
          "internalType": "bool",
          "name": "authorized",
          "type": "bool"
        }
      ],
      "name": "FacilitatorUpdated",
      "type": "event"
    },
    {
      "anonymous": false,
      "inputs": [
        {
          "indexed": false,
          "internalType": "uint256",
          "name": "newMax",
          "type": "uint256"
        }
      ],
      "name": "MaxOperationsUpdated",
      "type": "event"
    },
    {
      "anonymous": false,
      "inputs": [
        {
          "indexed": true,
          "internalType": "bytes32",
          "name": "batchId",
          "type": "bytes32"
        },
        {
          "indexed": true,
          "internalType": "uint256",
          "name": "operationIndex",
          "type": "uint256"
        },
        {
          "indexed": false,
          "internalType": "uint8",
          "name": "opType",
          "type": "uint8"
        },
        {
          "indexed": false,
          "internalType": "address",
          "name": "tokenIn",
          "type": "address"
        },
        {
          "indexed": false,
          "internalType": "uint256",
          "name": "amountIn",
          "type": "uint256"
        },
        {
          "indexed": false,
          "internalType": "address",
          "name": "tokenOut",
          "type": "address"
        },
        {
          "indexed": false,
          "internalType": "uint256",
          "name": "amountOut",
          "type": "uint256"
        },
        {
          "indexed": false,
          "internalType": "address",
          "name": "target",
          "type": "address"
        }
      ],
      "name": "OperationExecuted",
      "type": "event"
    },
    {
      "anonymous": false,
      "inputs": [
        {
          "indexed": true,
          "internalType": "address",
          "name": "previousOwner",
          "type": "address"
        },
        {
          "indexed": true,
          "internalType": "address",
          "name": "newOwner",
          "type": "address"
        }
      ],
      "name": "OwnershipTransferred",
      "type": "event"
    },
    {
      "anonymous": false,
      "inputs": [
        {
          "indexed": false,
          "internalType": "bool",
          "name": "paused",
          "type": "bool"
        }
      ],
      "name": "PausedStateChanged",
      "type": "event"
    },
    {
      "anonymous": false,
      "inputs": [
        {
          "indexed": true,
          "internalType": "address",
          "name": "router",
          "type": "address"
        },
        {
          "indexed": false,
          "internalType": "bool",
          "name": "whitelisted",
          "type": "bool"
        }
      ],
      "name": "RouterWhitelisted",
      "type": "event"
    },
    {
      "anonymous": false,
      "inputs": [
        {
          "indexed": true,
          "internalType": "address",
          "name": "target",
          "type": "address"
        },
        {
          "indexed": false,
          "internalType": "bool",
          "name": "whitelisted",
          "type": "bool"
        }
      ],
      "name": "TargetWhitelisted",
      "type": "event"
    },
    {
      "inputs": [],
      "name": "BATCH_WITNESS_TYPEHASH",
      "outputs": [
        {
          "internalType": "bytes32",
          "name": "",
          "type": "bytes32"
        }
      ],
      "stateMutability": "view",
      "type": "function"
    },
    {
      "inputs": [],
      "name": "OPERATION_TYPEHASH",
      "outputs": [
        {
          "internalType": "bytes32",
          "name": "",
          "type": "bytes32"
        }
      ],
      "stateMutability": "view",
      "type": "function"
    },
    {
      "inputs": [],
      "name": "OP_CALL",
      "outputs": [
        {
          "internalType": "uint8",
          "name": "",
          "type": "uint8"
        }
      ],
      "stateMutability": "view",
      "type": "function"
    },
    {
      "inputs": [],
      "name": "OP_SWAP",
      "outputs": [
        {
          "internalType": "uint8",
          "name": "",
          "type": "uint8"
        }
      ],
      "stateMutability": "view",
      "type": "function"
    },
    {
      "inputs": [],
      "name": "OP_TRANSFER",
      "outputs": [
        {
          "internalType": "uint8",
          "name": "",
          "type": "uint8"
        }
      ],
      "stateMutability": "view",
      "type": "function"
    },
    {
      "inputs": [
        {
          "components": [
            {
              "internalType": "uint8",
              "name": "opType",
              "type": "uint8"
            },
            {
              "internalType": "address",
              "name": "tokenIn",
              "type": "address"
            },
            {
              "internalType": "uint256",
              "name": "amountIn",
              "type": "uint256"
            },
            {
              "internalType": "address",
              "name": "tokenOut",
              "type": "address"
            },
            {
              "internalType": "uint256",
              "name": "minAmountOut",
              "type": "uint256"
            },
            {
              "internalType": "address",
              "name": "target",
              "type": "address"
            },
            {
              "internalType": "bytes",
              "name": "data",
              "type": "bytes"
            }
          ],
          "internalType": "struct Q402BatchExecutor.Operation[]",
          "name": "operations",
          "type": "tuple[]"
        }
      ],
      "name": "computeOperationsHash",
      "outputs": [
        {
          "internalType": "bytes32",
          "name": "",
          "type": "bytes32"
        }
      ],
      "stateMutability": "pure",
      "type": "function"
    },
    {
      "inputs": [],
      "name": "domainSeparator",
      "outputs": [
        {
          "internalType": "bytes32",
          "name": "",
          "type": "bytes32"
        }
      ],
      "stateMutability": "view",
      "type": "function"
    },
    {
      "inputs": [],
      "name": "eip712Domain",
      "outputs": [
        {
          "internalType": "bytes1",
          "name": "fields",
          "type": "bytes1"
        },
        {
          "internalType": "string",
          "name": "name",
          "type": "string"
        },
        {
          "internalType": "string",
          "name": "version",
          "type": "string"
        },
        {
          "internalType": "uint256",
          "name": "chainId",
          "type": "uint256"
        },
        {
          "internalType": "address",
          "name": "verifyingContract",
          "type": "address"
        },
        {
          "internalType": "bytes32",
          "name": "salt",
          "type": "bytes32"
        },
        {
          "internalType": "uint256[]",
          "name": "extensions",
          "type": "uint256[]"
        }
      ],
      "stateMutability": "view",
      "type": "function"
    },
    {
      "inputs": [
        {
          "internalType": "address",
          "name": "token",
          "type": "address"
        },
        {
          "internalType": "address",
          "name": "to",
          "type": "address"
        },
        {
          "internalType": "uint256",
          "name": "amount",
          "type": "uint256"
        }
      ],
      "name": "emergencyWithdraw",
      "outputs": [],
      "stateMutability": "nonpayable",
      "type": "function"
    },
    {
      "inputs": [
        {
          "components": [
            {
              "internalType": "address",
              "name": "owner",
              "type": "address"
            },
            {
              "internalType": "bytes32",
              "name": "operationsHash",
              "type": "bytes32"
            },
            {
              "internalType": "uint256",
              "name": "deadline",
              "type": "uint256"
            },
            {
              "internalType": "bytes32",
              "name": "batchId",
              "type": "bytes32"
            },
            {
              "internalType": "uint256",
              "name": "nonce",
              "type": "uint256"
            }
          ],
          "internalType": "struct Q402BatchExecutor.BatchWitness",
          "name": "witness",
          "type": "tuple"
        },
        {
          "components": [
            {
              "internalType": "uint8",
              "name": "opType",
              "type": "uint8"
            },
            {
              "internalType": "address",
              "name": "tokenIn",
              "type": "address"
            },
            {
              "internalType": "uint256",
              "name": "amountIn",
              "type": "uint256"
            },
            {
              "internalType": "address",
              "name": "tokenOut",
              "type": "address"
            },
            {
              "internalType": "uint256",
              "name": "minAmountOut",
              "type": "uint256"
            },
            {
              "internalType": "address",
              "name": "target",
              "type": "address"
            },
            {
              "internalType": "bytes",
              "name": "data",
              "type": "bytes"
            }
          ],
          "internalType": "struct Q402BatchExecutor.Operation[]",
          "name": "operations",
          "type": "tuple[]"
        },
        {
          "internalType": "bytes",
          "name": "signature",
          "type": "bytes"
        }
      ],
      "name": "executeBatch",
      "outputs": [],
      "stateMutability": "nonpayable",
      "type": "function"
    },
    {
      "inputs": [
        {
          "internalType": "address",
          "name": "",
          "type": "address"
        }
      ],
      "name": "facilitators",
      "outputs": [
        {
          "internalType": "bool",
          "name": "",
          "type": "bool"
        }
      ],
      "stateMutability": "view",
      "type": "function"
    },
    {
      "inputs": [
        {
          "internalType": "address",
          "name": "owner",
          "type": "address"
        }
      ],
      "name": "getNonce",
      "outputs": [
        {
          "internalType": "uint256",
          "name": "",
          "type": "uint256"
        }
      ],
      "stateMutability": "view",
      "type": "function"
    },
    {
      "inputs": [
        {
          "internalType": "bytes32",
          "name": "batchId",
          "type": "bytes32"
        }
      ],
      "name": "isBatchIdUsed",
      "outputs": [
        {
          "internalType": "bool",
          "name": "",
          "type": "bool"
        }
      ],
      "stateMutability": "view",
      "type": "function"
    },
    {
      "inputs": [
        {
          "internalType": "address",
          "name": "addr",
          "type": "address"
        }
      ],
      "name": "isFacilitator",
      "outputs": [
        {
          "internalType": "bool",
          "name": "",
          "type": "bool"
        }
      ],
      "stateMutability": "view",
      "type": "function"
    },
    {
      "inputs": [
        {
          "internalType": "address",
          "name": "router",
          "type": "address"
        }
      ],
      "name": "isRouterWhitelisted",
      "outputs": [
        {
          "internalType": "bool",
          "name": "",
          "type": "bool"
        }
      ],
      "stateMutability": "view",
      "type": "function"
    },
    {
      "inputs": [
        {
          "internalType": "address",
          "name": "target",
          "type": "address"
        }
      ],
      "name": "isTargetWhitelisted",
      "outputs": [
        {
          "internalType": "bool",
          "name": "",
          "type": "bool"
        }
      ],
      "stateMutability": "view",
      "type": "function"
    },
    {
      "inputs": [],
      "name": "maxOperationsPerBatch",
      "outputs": [
        {
          "internalType": "uint256",
          "name": "",
          "type": "uint256"
        }
      ],
      "stateMutability": "view",
      "type": "function"
    },
    {
      "inputs": [
        {
          "internalType": "address",
          "name": "",
          "type": "address"
        }
      ],
      "name": "nonces",
      "outputs": [
        {
          "internalType": "uint256",
          "name": "",
          "type": "uint256"
        }
      ],
      "stateMutability": "view",
      "type": "function"
    },
    {
      "inputs": [],
      "name": "owner",
      "outputs": [
        {
          "internalType": "address",
          "name": "",
          "type": "address"
        }
      ],
      "stateMutability": "view",
      "type": "function"
    },
    {
      "inputs": [],
      "name": "paused",
      "outputs": [
        {
          "internalType": "bool",
          "name": "",
          "type": "bool"
        }
      ],
      "stateMutability": "view",
      "type": "function"
    },
    {
      "inputs": [],
      "name": "renounceOwnership",
      "outputs": [],
      "stateMutability": "nonpayable",
      "type": "function"
    },
    {
      "inputs": [
        {
          "internalType": "address",
          "name": "facilitator",
          "type": "address"
        },
        {
          "internalType": "bool",
          "name": "authorized",
          "type": "bool"
        }
      ],
      "name": "setFacilitator",
      "outputs": [],
      "stateMutability": "nonpayable",
      "type": "function"
    },
    {
      "inputs": [
        {
          "internalType": "uint256",
          "name": "_max",
          "type": "uint256"
        }
      ],
      "name": "setMaxOperationsPerBatch",
      "outputs": [],
      "stateMutability": "nonpayable",
      "type": "function"
    },
    {
      "inputs": [
        {
          "internalType": "bool",
          "name": "_paused",
          "type": "bool"
        }
      ],
      "name": "setPaused",
      "outputs": [],
      "stateMutability": "nonpayable",
      "type": "function"
    },
    {
      "inputs": [
        {
          "internalType": "address",
          "name": "router",
          "type": "address"
        },
        {
          "internalType": "bool",
          "name": "whitelisted",
          "type": "bool"
        }
      ],
      "name": "setRouterWhitelist",
      "outputs": [],
      "stateMutability": "nonpayable",
      "type": "function"
    },
    {
      "inputs": [
        {
          "internalType": "address",
          "name": "target",
          "type": "address"
        },
        {
          "internalType": "bool",
          "name": "whitelisted",
          "type": "bool"
        }
      ],
      "name": "setTargetWhitelist",
      "outputs": [],
      "stateMutability": "nonpayable",
      "type": "function"
    },
    {
      "inputs": [
        {
          "internalType": "address",
          "name": "newOwner",
          "type": "address"
        }
      ],
      "name": "transferOwnership",
      "outputs": [],
      "stateMutability": "nonpayable",
      "type": "function"
    },
    {
      "inputs": [
        {
          "internalType": "bytes32",
          "name": "",
          "type": "bytes32"
        }
      ],
      "name": "usedBatchIds",
      "outputs": [
        {
          "internalType": "bool",
          "name": "",
          "type": "bool"
        }
      ],
      "stateMutability": "view",
      "type": "function"
    },
    {
      "inputs": [
        {
          "internalType": "address",
          "name": "",
          "type": "address"
        }
      ],
      "name": "whitelistedRouters",
      "outputs": [
        {
          "internalType": "bool",
          "name": "",
          "type": "bool"
        }
      ],
      "stateMutability": "view",
      "type": "function"
    },
    {
      "inputs": [
        {
          "internalType": "address",
          "name": "",
          "type": "address"
        }
      ],
      "name": "whitelistedTargets",
      "outputs": [
        {
          "internalType": "bool",
          "name": "",
          "type": "bool"
        }
      ],
      "stateMutability": "view",
      "type": "function"
    },
    {
      "stateMutability": "payable",
      "type": "receive"
    }
  ],
  "bytecode": "0x61016034620002ab576001600160401b0390620024c490601f38839003908101601f191682019084821183831017620002955780839160409586948552833981010312620002ab576200005281620002cc565b91620000626020809301620002cc565b8151926200007084620002b0565b600a845280840194690e26860645ac4c2e8c6d60b31b86528351966200009688620002b0565b600191828952838901603160f81b8152620000b188620002e1565b98610120998a52620000c38b620004b4565b98610140998a52519020998a60e0525190209161010099838b524660a052875193868501917f8b73c3c69bb8fe3d512ecc4cf759cc79239f7b179b0ffacaa9a75d522b39400f83528986015260608501524660808501523060a085015260a0845260c0840191848310908311176200029557818852835190206080523060c0526001600160a01b039182169283156200027e5750509085939291600254958260018060a01b03198816176002558551928083600099167f8be0079c531659141344cd1fd0a4f28419497f9722a3daafe3b4186f6b6457e08a80a384600355600a8055808852600686527f23b563b53629727de17c5cec4b391a63440584fdaf0d888a95bbc671da2c62e186888a209560ff19968888825416179055878152a216948562000239575b5050505050505191611e62938462000662853960805184611c3d015260a05184611d08015260c05184611c07015260e05184611c8c01525183611cb2015251826110bb015251816110e40152f35b7fcf2b36bf2aa8353623d06f58eab9577176d9214e588362c013a7eeb0586463f19481878593526007865220918254161790558451908152a2388181808080620001eb565b631e4fbdf760e01b8252600060c490910152602490fd5b634e487b7160e01b600052604160045260246000fd5b600080fd5b604081019081106001600160401b038211176200029557604052565b51906001600160a01b0382168203620002ab57565b8051602091908281101562000380575090601f8251116200031f57808251920151908083106200031057501790565b82600019910360031b1b161790565b90604051809263305a27a960e01b82528060048301528251908160248401526000935b82851062000366575050604492506000838284010152601f80199101168101030190fd5b848101820151868601604401529381019385935062000342565b6001600160401b03811162000295576000928354926001938481811c91168015620004a9575b838210146200049557601f81116200045f575b5081601f8411600114620003f857509282939183928694620003ec575b50501b916000199060031b1c191617905560ff90565b015192503880620003d6565b919083601f1981168780528488209488905b888383106200044457505050106200042a575b505050811b01905560ff90565b015160001960f88460031b161c191690553880806200041d565b8587015188559096019594850194879350908101906200040a565b85805284601f848820920160051c820191601f860160051c015b82811062000489575050620003b9565b87815501859062000479565b634e487b7160e01b86526022600452602486fd5b90607f1690620003a6565b805160209081811015620005425750601f825111620004e157808251920151908083106200031057501790565b90604051809263305a27a960e01b82528060048301528251908160248401526000935b82851062000528575050604492506000838284010152601f80199101168101030190fd5b848101820151868601604401529381019385935062000504565b9192916001600160401b038111620002955760019182548381811c9116801562000656575b828210146200064057601f811162000607575b5080601f8311600114620005ba575081929394600092620005ae575b5050600019600383901b1c191690821b17905560ff90565b01519050388062000596565b90601f198316958460005282600020926000905b888210620005ef57505083859697106200042a57505050811b01905560ff90565b808785968294968601518155019501930190620005ce565b8360005283601f83600020920160051c820191601f850160051c015b828110620006335750506200057a565b6000815501849062000623565b634e487b7160e01b600052602260045260246000fd5b90607f16906200056756fe608080604052600436101561001d575b50361561001b57600080fd5b005b60003560e01c9081630aef023f146114a4575080630f874a1314611465578063108bdc14146113ed57806316c38b3c1461138b5780632d0335ab146111e9578063334605401461134c57806340125e44146112f85780634b719ab61461134c5780635c975abb146113295780636651320f146112f8578063715018a61461129b5780637b224339146112235780637ecebe00146111e9578063828d6e8d146111ae57806384b0196e146110a557806387e02d16146110595780638da5cb5b146110305780638f57e97d14610fb15780638ff9e3f81461017457806393aaa14614610f76578063a4e96bbb14610f3b578063a9adfc2a14610f1f578063e389df1414610390578063e63ea408146102bf578063eac8d18f146102a1578063ec7bbbbf14610285578063f2fde38b146101f7578063f698da25146101d4578063f7994213146101b85763fb9ed25714610174573861000f565b346101b35760203660031901126101b3576001600160a01b036101956114df565b166000526008602052602060ff604060002054166040519015158152f35b600080fd5b346101b35760003660031901126101b357602060405160028152f35b346101b35760003660031901126101b35760206101ef611c04565b604051908152f35b346101b35760203660031901126101b3576102106114df565b610218611574565b6001600160a01b0390811690811561026c57600254826bffffffffffffffffffffffff60a01b821617600255167f8be0079c531659141344cd1fd0a4f28419497f9722a3daafe3b4186f6b6457e0600080a3005b604051631e4fbdf760e01b815260006004820152602490fd5b346101b35760003660031901126101b357602060405160018152f35b346101b35760003660031901126101b3576020600a54604051908152f35b346101b35760603660031901126101b3576102d86114df565b6024356001600160a01b0380821682036101b357604435926102f8611574565b168061034f5750600080809381935af1610310611d2e565b501561031857005b60405162461bcd60e51b815260206004820152600f60248201526e151c985b9cd9995c8819985a5b1959608a1b6044820152606490fd5b60405163a9059cbb60e01b60208201526001600160a01b0392909216602483015260448083019390935291815261001b9161038b6064836115bb565b611db8565b346101b357366003190160e081126101b35760a0136101b35760a4356001600160401b0381116101b3576103c8903690600401611504565b906001600160401b0360c435116101b35736602360c4350112156101b3576001600160401b0360c43560040135116101b35736602460c4356004013560c4350101116101b357600260035414610f0d57600260035560ff60095416610efb5733600052600660205260ff6040600020541615610ee9576044354211610ed7576001600160a01b03610457611807565b16600052600460205260406000205460843503610ec557606435600052600560205260ff60406000205416610eb35781158015610ea8575b610e965761049d82826118ef565b60243503610e84576104ad611807565b604051907f81ab27b097aad1eef8580946a56e7ae570e5c730db01fe4bd50fd90603efcbee602083015260018060a01b031660408201526024356060820152604435608082015260643560a082015260843560c082015260c0815260e08101908082106001600160401b03831117610e6e57604261056f91610578936040526020815191012061053b611c04565b906040519161190160f01b835260028301526022820152206105693660c43560040135602460c435016118b8565b90611ab3565b90929192611b7f565b6001600160a01b03610588611807565b166001600160a01b0390911603610e5c5760643560005260056020526040600020600160ff19825416179055600160843501608435116108fe576001600160a01b036105d2611807565b16600052600460205260016084350160406000205560005b82811061064657826001600160a01b03610602611807565b1660405191825260843560208301523360408301527fc9396e654a57d93ec31014b61b1b5c51de580a5c03da55b901c04e64941a336c606060643593a36001600355005b61064e611807565b9061065a818585611840565b9160ff61066684611878565b166107ea576001600160a01b0361067f60a0850161181d565b16156107d8576040830135156107c657602083016001600160a01b036106a48261181d565b1661078e575050600080808060408601356106c160a0880161181d565b5af16106cb611d2e565b501561077c5780610777925b6040810135905b6106e781611878565b916106f46020830161181d565b9160406107036060830161181d565b9161071060a0820161181d565b825160ff9790971687526001600160a01b0395861660208801529101356040860152908316606085015260808401919091521660a0820152606435907f4de9cebc1daefd6ebb51ef8e43ba7a2c43de9428ba9f51a2d9fc55eec6bcf90b9060c090a3611831565b6105ea565b6040516312171d8360e31b8152600490fd5b926107c18392610777956107a860018060a01b039161181d565b166040840135916107bb60a0860161181d565b91611d5e565b6106d7565b60405163162908e360e11b8152600490fd5b60405163416aebb560e11b8152600490fd5b91600160ff6107f883611878565b1603610bd1576001600160a01b0361081260a0830161181d565b16600052600760205260ff6040600020541615610bbf576040810135156107c6576001600160a01b036108476060830161181d565b16610b39578231925b6001600160a01b036108646020840161181d565b166109b75760008061087860a0850161181d565b61088560c0860186611886565b90816040519283928337810184815203916040870135905af16108a6611d2e565b50156109a5575b6001600160a01b036108c16060840161181d565b166109145731905b81848103116108fe576080810135848303106108ec5761077793839203906106de565b60405163bb2875c360e01b8152600490fd5b634e487b7160e01b600052601160045260246000fd5b60206001600160a01b0361092a6060850161181d565b6040516370a0823160e01b81526001600160a01b03909416600485015283916024918391165afa90811561099957600091610967575b50906108c9565b90506020813d602011610991575b81610982602093836115bb565b810103126101b3575186610960565b3d9150610975565b6040513d6000823e3d90fd5b60405163081ceff360e41b8152600490fd5b6109dd6001600160a01b036109ce6020850161181d565b16604084013590833091611d5e565b60006020610a396001600160a01b036109f786840161181d565b16610a0460a0870161181d565b6040805163095ea7b360e01b81526001600160a01b039092166004830152870135602482015293849283919082906044820190565b03925af1801561099957610b1a575b50600080610a5860a0850161181d565b81610a6660c0870187611886565b9190826040519384928337810182815203925af1610a82611d2e565b50156109a557600060206001600160a01b03610a9f85830161181d565b166044610aae60a0870161181d565b60405163095ea7b360e01b81526001600160a01b039091166004820152602481018590529384928391905af1801561099957610aeb575b506108ad565b610b0c9060203d602011610b13575b610b0481836115bb565b810190611e14565b5086610ae5565b503d610afa565b610b329060203d602011610b1357610b0481836115bb565b5086610a48565b602460206001600160a01b03610b516060850161181d565b6040516370a0823160e01b81526001600160a01b038816600482015293849290918391165afa90811561099957600091610b8d575b5092610850565b90506020813d602011610bb7575b81610ba8602093836115bb565b810103126101b3575186610b86565b3d9150610b9b565b604051635bb5845760e11b8152600490fd5b91600260ff610bdf85611878565b1603610e4a576001600160a01b03610bf960a0850161181d565b16600052600860205260ff6040600020541615610e38576001600160a01b03610c246020850161181d565b16151580610e2b575b610d78575b506001600160a01b03610c476020840161181d565b16610d6f5760008060408401355b610c6160a0860161181d565b90610c6f60c0870187611886565b9190826040519384928337810185815203925af1610c8b611d2e565b5015610d5d576001600160a01b03610ca56020840161181d565b16151580610d50575b610cc3575b80826040610777940135906106de565b60009160206001600160a01b03610cdb82840161181d565b166044610cea60a0850161181d565b60405163095ea7b360e01b81526001600160a01b039091166004820152602481018790529586928391905af190811561099957610777938392610d31575b50925050610cb3565b610d499060203d602011610b1357610b0481836115bb565b5086610d28565b5060408201351515610cae565b604051633204506f60e01b8152600490fd5b60008080610c55565b610dfd90602090610da56001600160a01b03610d9587850161181d565b6040880135938492309216611d5e565b6001600160a01b03610db886840161181d565b16610dc560a0870161181d565b60405163095ea7b360e01b81526001600160a01b03909116600482015260248101929092529092839190829060009082906044820190565b03925af180156109995715610c3257610e249060203d602011610b1357610b0481836115bb565b5084610c32565b5060408301351515610c2d565b6040516301d0c40560e21b8152600490fd5b604051630ead561960e11b8152600490fd5b604051638baa579f60e01b8152600490fd5b634e487b7160e01b600052604160045260246000fd5b60405163f285e41160e01b8152600490fd5b60405163222d757960e01b8152600490fd5b50600a54821161048f565b604051631bf48b3560e31b8152600490fd5b604051633ab3447f60e11b8152600490fd5b60405163f87d927160e01b8152600490fd5b604051630f6fae8760e01b8152600490fd5b60405163ab35696f60e01b8152600490fd5b604051633ee5aeb560e01b8152600490fd5b346101b35760003660031901126101b357602060405160008152f35b346101b35760003660031901126101b35760206040517f81ab27b097aad1eef8580946a56e7ae570e5c730db01fe4bd50fd90603efcbee8152f35b346101b35760003660031901126101b35760206040517fd5bc7dc4fd209ff5394abd09b6da523ccfcb478feb1ae9ce566f4a9a4e8013338152f35b346101b35760403660031901126101b357610fca6114df565b7f23b563b53629727de17c5cec4b391a63440584fdaf0d888a95bbc671da2c62e16020610ff56114f5565b92610ffe611574565b6001600160a01b031660008181526006835260409020805460ff191660ff86151516179055925b6040519015158152a2005b346101b35760003660031901126101b3576002546040516001600160a01b039091168152602090f35b346101b35760203660031901126101b3577f3d2d1920864a5df2185330733a5a35a1cbad9509896209ab89a232e79c2f869a6020600435611098611574565b80600a55604051908152a1005b346101b35760003660031901126101b3576110df7f00000000000000000000000000000000000000000000000000000000000000006115f3565b6111087f0000000000000000000000000000000000000000000000000000000000000000611719565b6040516020808201928284106001600160401b03851117610e6e5791816111618594611153979660405260008452604051978897600f60f81b895260e0858a015260e0890190611534565b908782036040890152611534565b91466060870152306080870152600060a087015285830360c0870152519182815201929160005b82811061119757505050500390f35b835185528695509381019392810192600101611188565b346101b35760203660031901126101b3576004356001600160401b0381116101b3576101ef6111e36020923690600401611504565b906118ef565b346101b35760203660031901126101b3576001600160a01b0361120a6114df565b1660005260046020526020604060002054604051908152f35b346101b35760403660031901126101b35761123c6114df565b7fcf2b36bf2aa8353623d06f58eab9577176d9214e588362c013a7eeb0586463f160206112676114f5565b92611270611574565b6001600160a01b031660008181526007835260409020805460ff191660ff8615151617905592611025565b346101b35760003660031901126101b3576112b4611574565b600280546001600160a01b031981169091556000906001600160a01b03167f8be0079c531659141344cd1fd0a4f28419497f9722a3daafe3b4186f6b6457e08280a3005b346101b35760203660031901126101b3576004356000526005602052602060ff604060002054166040519015158152f35b346101b35760003660031901126101b357602060ff600954166040519015158152f35b346101b35760203660031901126101b3576001600160a01b0361136d6114df565b166000526006602052602060ff604060002054166040519015158152f35b346101b35760203660031901126101b3576004358015158091036101b35760207f9e3a5e37224532dea67b89face185703738a228a6e8a23dee546960180d3be64916113d5611574565b60ff196009541660ff821617600955604051908152a1005b346101b35760403660031901126101b3576114066114df565b7ff6c76eeb7c8ff50ae11742b7c9c659668fd5450291aa2e196914e251b7786abe60206114316114f5565b9261143a611574565b6001600160a01b031660008181526008835260409020805460ff191660ff8615151617905592611025565b346101b35760203660031901126101b3576001600160a01b036114866114df565b166000526007602052602060ff604060002054166040519015158152f35b346101b35760203660031901126101b3576020906001600160a01b036114c86114df565b166000526007825260ff6040600020541615158152f35b600435906001600160a01b03821682036101b357565b6024359081151582036101b357565b9181601f840112156101b3578235916001600160401b0383116101b3576020808501948460051b0101116101b357565b919082519283825260005b848110611560575050826000602080949584010152601f8019910116010190565b60208183018101518483018201520161153f565b6002546001600160a01b0316330361158857565b60405163118cdaa760e01b8152336004820152602490fd5b604081019081106001600160401b03821117610e6e57604052565b90601f801991011681019081106001600160401b03821117610e6e57604052565b6001600160401b038111610e6e5760051b60200190565b60ff81146116315760ff811690601f821161161f5760405191611615836115a0565b8252602082015290565b604051632cd44ac360e21b8152600490fd5b506040516000805490600182811c9080841693841561170f575b60209485841081146116fb57838752869493929181156116db575060011461167f575b505061167c925003826115bb565b90565b60008080527f290decd9548b62a8d60345a988386fc84ba6bc95484008f6362f93160ef3e56395935091905b8183106116c357505061167c9350820101388061166e565b855487840185015294850194869450918301916116ab565b91505061167c94925060ff191682840152151560051b820101388061166e565b634e487b7160e01b85526022600452602485fd5b91607f169161164b565b60ff811461173b5760ff811690601f821161161f5760405191611615836115a0565b50604051600060019081549182811c908084169384156117e2575b60209485841081146116fb57838752869493929181156116db575060011461178657505061167c925003826115bb565b60008181527fb10e2d527612073b26eecdfd717e6a320cf44b4afac2b0732d9fcbe2b7fa0cf695935091905b8183106117ca57505061167c9350820101388061166e565b855487840185015294850194869450918301916117b2565b91607f1691611756565b6001600160401b038111610e6e57601f01601f191660200190565b6004356001600160a01b03811681036101b35790565b356001600160a01b03811681036101b35790565b60001981146108fe5760010190565b91908110156118625760051b8101359060de19813603018212156101b3570190565b634e487b7160e01b600052603260045260246000fd5b3560ff811681036101b35790565b903590601e19813603018212156101b357018035906001600160401b0382116101b3576020019181360383136101b357565b9291926118c4826117ec565b916118d260405193846115bb565b8294818452818301116101b3578281602093846000960137010152565b906118f9816115dc565b916040611908815194856115bb565b828452611914836115dc565b60209385850193601f199392840136863760005b8281106119795750505051838194820180965190949160005b828110611962575050505061195c92039081018352826115bb565b51902090565b835187529581019587945092810192600101611941565b7fd5bc7dc4fd209ff5394abd09b6da523ccfcb478feb1ae9ce566f4a9a4e801333876119b16119ac8487879b9a9b611840565b611878565b6119c6826119c0868989611840565b0161181d565b85886119d3878a84611840565b013589896060946119e9866119c08c8589611840565b608094856119f88d868a611840565b013595611a188d86611a128b6119c08460a09b8c93611840565b9a611840565b9560ff611a34611a2d60c0998a810190611886565b36916118b8565b8d81519101209b82519d8e019e8f5216908c015260018060a01b039889809516908c01528a015216908701528501521660e08301526101009081830152815261012081018181106001600160401b03821117610e6e57865251902090885181101561186257611aab91888260051b8b010152611831565b949394611928565b8151919060418303611ae457611add92506020820151906060604084015193015160001a90611aef565b9192909190565b505060009160029190565b91907f7fffffffffffffffffffffffffffffff5d576e7357a4501ddfe92f46681b20a08411611b7357926020929160ff608095604051948552168484015260408301526060820152600092839182805260015afa15611b675780516001600160a01b03811615611b5e57918190565b50809160019190565b604051903d90823e3d90fd5b50505060009160039190565b6004811015611bee5780611b91575050565b60018103611bab5760405163f645eedf60e01b8152600490fd5b60028103611bcc5760405163fce698f760e01b815260048101839052602490fd5b600314611bd65750565b602490604051906335e2f38360e21b82526004820152fd5b634e487b7160e01b600052602160045260246000fd5b307f00000000000000000000000000000000000000000000000000000000000000006001600160a01b03161480611d05575b15611c5f577f000000000000000000000000000000000000000000000000000000000000000090565b60405160208101907f8b73c3c69bb8fe3d512ecc4cf759cc79239f7b179b0ffacaa9a75d522b39400f82527f000000000000000000000000000000000000000000000000000000000000000060408201527f000000000000000000000000000000000000000000000000000000000000000060608201524660808201523060a082015260a0815260c081018181106001600160401b03821117610e6e5760405251902090565b507f00000000000000000000000000000000000000000000000000000000000000004614611c36565b3d15611d59573d90611d3f826117ec565b91611d4d60405193846115bb565b82523d6000602084013e565b606090565b6040516323b872dd60e01b60208201526001600160a01b03928316602482015292909116604483015260648083019390935291815260a08101918183106001600160401b03841117610e6e57611db692604052611db8565b565b906000602091828151910182855af115610999576000513d611e0b57506001600160a01b0381163b155b611de95750565b604051635274afe760e01b81526001600160a01b039091166004820152602490fd5b60011415611de2565b908160209103126101b3575180151581036101b3579056fea26469706673582212207ce3754606351e32be838114785c1c9f64458f1c0f964221041e756262b58cd364736f6c63430008140033",
  "linkReferences": {},
  "deployedLinkReferences": {}
}